:100000000C94F5020C941D030C941D030C941D0319
:100010000C941D030C941D030C94CA180C941D031E
:100020000C941D030C941D030C941D030C941D03D0
:100030000C941D030C941D030C941D030C941D03C0
:100040000C94E3330C941D030C94DF350C9411369F
:100050000C941D030C941D030C941D030C941D03A0
:100060000C94A51C0C941D03C305C605C905CC053D
:10007000CF05D205D505D805DB05616E696D207603
:10008000616C75653A2000616E696D006F6666731C
:1000900065742076616C75653A20006F66667365DD
:1000A000740046414C5345005452554500736563F6
:1000B0006F6E642076616C75653A20007365636FBE
:1000C0006E640046414C5345005452554500686FDC
:1000D000757231322076616C75653A2000686F75F3
:1000E00072313200636C6F636B00206E6F74207628
:1000F000616C69643A2000696E692066696C6520EC
:1001000000496E692066696C65206578697374734F
:100110000020646F6573206E6F7420657869737456
:1001200000636C6F636B2E696E69006E6578744650
:100130006F6C6465722076616C75653A20006E653F
:100140007874466F6C6465720046414C53450054A8
:100150005255450070616E6F66662076616C7565FC
:100160003A200070616E6F66660046414C53450050
:1001700054525545007472616E736C617465206CE5
:100180006F6F702076616C75653A20006C6F6F70D0
:10019000006D6F7665592076616C75653A20006D4B
:1001A0006F766559006D6F7665582076616C756560
:1001B0003A20006D6F766558007472616E736C61E1
:1001C00074650046414C5345005452554500616EDC
:1001D000696D6174696F6E206C6F6F702076616CF1
:1001E00075653A20006C6F6F7000686F6C642076E4
:1001F000616C75653A2000686F6C6400616E696DB2
:100200006174696F6E00206E6F742076616C696432
:100210003A2000696E692066696C652000496E6944
:100220002066696C65206578697374730020646F5B
:100230006573206E6F7420657869737400636F6EE8
:100240006669672E696E6900756E6B6E6F776E20DA
:100250006572726F722076616C756500756E6B6E7B
:100260006F776E00656F66006B6E6600736E66007A
:1002700073650062747300666E6F00666E66006E72
:100280006F206572726F72002F30307379737465EE
:100290006D2F6469676974732E626D70002F303042
:1002A00073797374656D2F6469676974732E626DF9
:1002B00070002F303073797374656D2F64696769CE
:1002C00074732E626D70002F303073797374656DA6
:1002D0002F6469676974732E626D70002F303073FC
:1002E000797374656D2F6469676974732E626D70BC
:1002F00000466F726D617420756E7265636F676E14
:10030000697A656400436C6F73696E6720496D613B
:1003100067652E2E2E00526F772073697A653A201A
:10032000002C2000496D616765206F6666736574F7
:100330003A2000496D6167652073697A653A20004B
:100340004269742044657074683A200048656164AD
:1003500065722073697A653A2000496D616765208E
:100360004F66667365743A200046696C6520736950
:100370007A653A200046696C65206F70656E20666C
:1003800061696C6564004C6F6164696E6720696DBA
:1003900061676520270041626F72742E00436C6FA5
:1003A00073696E6720496D6167652E2E2E00780097
:1003B000496D616765207265736F6C7574696F6EE6
:1003C0003A200046696C65206F70656E2066616931
:1003D0006C6564006300456D70747920666F6C64B1
:1003E00065722100312E626D7000302E626D7000DA
:1003F000486F6C642028696E206D73293A200030A4
:100400002E626D70002F636F6E6669672E696E696C
:10041000004F70656E696E672046696C653A200012
:10042000302E626D7000436861696E696E6720648A
:10043000657465637465643A200030004F70656EC2
:10044000696E6720466F6C6465723A2000466F6C77
:1004500064657220496E6465783A200020666F6C8E
:100460006465722873292E0052616E646F6D6C7919
:1004700020616476616E63696E6720004E6F742040
:100480006578697374732100466F7263696E6720C3
:100490006E6578743A2000436861696E696E673AE8
:1004A00020002F004E65787420466F6C6465722EB4
:1004B0002E2E002D2D2D002F303073797374656D25
:1004C0002F636C6F636B2E626D70002F3030737909
:1004D0007374656D2F74696D655F002F30307379AB
:1004E0007374656D2F706C61795F002F3030737994
:1004F0007374656D2F6272696768745F002F3030A6
:1005000073797374656D2F74696D655F002F30307A
:1005100073797374656D2F706C61795F002F303063
:1005200073797374656D2F6272696768745F0020F8
:10053000666F6C6465727320666F756E642E00461C
:100540006F6C6465723A200046696C6520496E6480
:1005500065783A20002D2D2D004F4B2100666169F2
:100560006C00496E69742053443A20001F1C1F1E02
:100570001F1E1F1F1E1F1E1F7C3C3E5E2B3D3F2F5C
:100580005B5D3B2C2A225C00000000080002010099
:10059000000304070000000000000000010204083E
:1005A00010204080010204081020010204081020DD
:1005B0000404040404040404020202020202030309
:1005C00003030303000000002300260029000000AD
:1005D0000000250028002B00000000002400270058
:1005E0002A00021C6F1EC433413611241FBECFEFF8
:1005F000D8E0DEBFCDBF11E0A0E0B1E0E2EBF5E76F
:1006000002C005900D92A838B107D9F728E0A8E8F4
:10061000B1E001C01D92A633B207E1F715E0CAEEC2
:10062000D5E004C02297FE010E949139C23ED10755
:10063000C9F70E9485360C94D73A0C940000569A5C
:1006400008950F931F93CF93DF93EC0188A18E0140
:10065000035E1F4F882319F0C8010E94E1244A8DD0
:10066000BE01C8010E94C02788A1882321F01C8EEA
:100670001B8E81E005C081E090E09C8F8B8F80E035
:10068000DF91CF911F910F910895FC0160810C942F
:100690009F3280912401823019F48EE190E020C0D5
:1006A000833019F48CE390E01BC0843019F48CE2A1
:1006B00091E016C0853019F484E893E011C08630CB
:1006C00019F488E097E00CC0873019F480E19EE0CF
:1006D00007C0883019F48FEF9FEF02C08AE090E0E6
:1006E0009093200180931F0108958091EC01811166
:1006F00006C081E08093EC016EEF70E004C01092C0
:10070000EC016FEF70E083E00C94BF34982F61111F
:1007100003C08FE0891B0895862F8295807F60FF3C
:1007200002C0890F0895891B815F0895CF93DF93DD
:10073000EA010E94860390E0FC01EE0FFF1FE80F24
:10074000F91FE550FE4F88818083898181838A81EA
:100750008283DF91CF910895CF93DF9300D01F92D2
:10076000CDB7DEB780E090E04FEF9C0125503E4FC3
:10077000F901E054FF4F4083319610823196108288
:1007800003968033910589F780E090E09C01255025
:100790003E4FF901E051FF4F1082319610823196A1
:1007A00010820396803521E0920781F780E090E087
:1007B0004FEF9C0125503E4FF901E05CFD4F1FEFCC
:1007C00040833196108231961082039680339105D2
:1007D00081F719831A831B82AE014F5F5F4F66E07A
:1007E00087E00E94960319831A831B82AE014F5F34
:1007F0005F4F66E086E00E94960319831A831B828E
:10080000AE014F5F5F4F66E085E00E94960319835B
:100810001A831B82AE014F5F5F4F67E084E00E9446
:10082000960319831A831B82AE014F5F5F4F68E006
:1008300085E00E94960319831A831B82AE014F5FE5
:100840005F4F68E086E00E94960319831A831B823B
:10085000AE014F5F5F4F69E087E00E949603198306
:100860001A831B82AE014F5F5F4F6AE086E00E94F1
:10087000960319831A831B82AE014F5F5F4F6AE0B4
:1008800085E00E94960319831A831B82AE014F5F95
:100890005F4F6AE084E00E94960319831A831B82EB
:1008A000AE014F5F5F4F66E089E00E9496031983B7
:1008B0001A831B82AE014F5F5F4F66E08AE00E94A1
:1008C000960319831A831B82AE014F5F5F4F67E067
:1008D0008BE00E94960319831A831B82AE014F5F3F
:1008E0005F4F68E08BE00E94960319831A831B8296
:1008F000AE014F5F5F4F69E08BE00E949603198362
:100900001A831B82AE014F5F5F4F6AE08AE00E944C
:10091000960319831A831B82AE014F5F5F4F6AE013
:1009200089E00E94960319831A831B82AE014F5FF0
:100930005F4F67E089E00E94960319831A831B8248
:10094000AE014F5F5F4F68E089E00E949603198314
:100950001A831B82AE014F5F5F4F69E089E00E94FE
:1009600096039091250180912601989F802D112456
:100970008093890789E897E00E9445030FEF10E014
:1009800017FD0DC0B80183E00E94BF3461E070E044
:1009900080E090E00E945C3401501109F1CF00E04A
:1009A00010E0B80183E00E94BF3461E070E080E0B5
:1009B00090E00E945C340F5F1F4F0F3F110589F7D5
:1009C000DDCFCF93DF9300D01F92CDB7DEB7198272
:1009D0001A821B82AE014F5F5F4F60E071E08BEFC8
:1009E00091E00E94A7310F900F900F90DF91CF916F
:1009F00008950F931F9385E00E94B635019749F43F
:100A000084E00E94B635019721F48091F101813094
:100A1000F9F080912A0181112AC08091F1018111A0
:100A200026C00E942D340091B9011091BA01209185
:100A3000BB013091BC010E5C1F4F2F4F3F4F06177B
:100A400017072807390798F481E080932A010FC01F
:100A50001092F10110922A010E942D346093B90185
:100A60007093BA018093BB019093BC01D2CF1F91C8
:100A70000F910895CF92EF920F93CF93DF9300D011
:100A800000D000D0CDB7DEB7C090E001E090E1012A
:100A90000091210121E041E06EED77E0CE01019669
:100AA0000E94931DCE0101960E94C11D26960FB68D
:100AB000F894DEBF0FBECDBFDF91CF910F91EF90C5
:100AC000CF900895E2EAF1E083818093210184814F
:100AD0008093E10185818093E00108952091E101F7
:100AE0008091E00190E03CE3239F800D911D112453
:100AF00008958091E001803128F48093E401109200
:100B0000E301089590EF980F9E3028F49FE09093B2
:100B1000E4018F5009C092EE980F903140F49DE2AD
:100B2000981B9093E4018FE08093E3010895109265
:100B3000E4019CE3981B9093E30108950E947905DA
:100B40006091E3018091E4010E94860390E0FC0142
:100B5000EE0FFF1FE80FF91FE550FE4F8091C50112
:100B600080838091C60181838091C701828308952B
:100B7000CF93C62F90E08930910500F5FC01EC5C25
:100B8000FF4F0C948F396FE772E01AC06BE772E089
:100B900017C067E772E014C063E772E011C060E756
:100BA00072E00EC06CE672E00BC068E672E008C04E
:100BB00064E672E005C06CE572E002C068E472E0D1
:100BC00089E997E00E94D236CC2329F089E997E0A1
:100BD000CF910C940037CF910895EF92FF920F932D
:100BE0001F93CF93DF93CDB7DEB7CE58D1090FB6A1
:100BF000F894DEBF0FBECDBF6DE372E0CE01895821
:100C00009F4F0E940B3A20E041E0BE0169587F4FA0
:100C1000CE0101960E94832ECE0101960E942103EF
:100C200081110AC0BE0169587F4F89E997E00E948F
:100C3000F7366DE272E002C06DE172E089E997E09B
:100C40000E94143742E350E0BE01665C7F4FCE0144
:100C500001960E94382F811117C063E172E089E983
:100C600097E00E94D236BE016F5F7F4F89E997E01F
:100C70000E94F73666E072E089E997E00E94D2367A
:100C800061E08C8D0E94B8056CEF71E0CE018E574B
:100C90009F4F0E940B3A67EF71E0CE0184599F4F3E
:100CA0000E940B3A02E310E09E01265C3F4FAE012A
:100CB00044595F4FBE016E577F4FCE0101960E948F
:100CC0001C318823B1F06AEE71E089E997E00E9457
:100CD000D236BE01665C7F4F89E997E00E942637D5
:100CE000CE01CA960E94DC3970931C0160931B01EF
:100CF0000AC061E08C8D0E94B80588EC90E090936A
:100D00001C0180931B0165EE71E0CE0184599F4F59
:100D10000E940B3ACE0182579F4F7C0102E310E004
:100D20009E01265C3F4FAE0144595F4FBE016E5796
:100D30007F4F8D5891090E9464318823E1F06EEC59
:100D400071E089E997E00E94D236C257DF4F88816F
:100D5000CE58D040882319F069EC71E002C063ECF2
:100D600071E089E997E00E941437C257DF4F88810C
:100D7000CE58D04005C061E08C8D0E94B80581E05E
:100D800080932B0169EB71E0CE018E579F4F0E943B
:100D90000B3A63EB71E0CE0184599F4F0E940B3AEE
:100DA00002E310E09E01265C3F4FAE0144595F4FC5
:100DB000BE016E577F4FCE0101960E941C318823E1
:100DC000B1F065EA71E089E997E00E94D236BE0190
:100DD000665C7F4F89E997E00E942637CE01CA966C
:100DE0000E94BE399093D3018093D20108C061E084
:100DF0008C8D0E94B8051092D3011092D2016FE938
:100E000071E0CE0184599F4F0E940B3A02E310E03B
:100E10009E01265C3F4FAE0144595F4FBE016E57A5
:100E20007F4FCE0101960E941C318823B1F061E909
:100E300071E089E997E00E94D236BE01665C7F4F7F
:100E400089E997E00E942637CE01CA960E94BE39F2
:100E50009093D1018093D00108C061E08C8D0E94F5
:100E6000B8051092D1011092D0016CE871E0CE016A
:100E700084599F4F0E940B3ACE0183579F4F7C01AC
:100E800002E310E09E01265C3F4FAE0144595F4FE4
:100E9000BE016E577F4F8C5891090E9464318823A0
:100EA000F1F065E771E089E997E00E94D236C35717
:100EB000DF4F8881CD58D040882319F060E771E07A
:100EC00002C06AE671E089E997E00E941437C357CF
:100ED000DF4F8881CD58D0408093F20106C061E099
:100EE0008C8D0E94B8051092F20163E671E0CE018C
:100EF00084599F4F0E940B3ACE0184579F4F7C012B
:100F000002E310E09E01265C3F4FAE0144595F4F63
:100F1000BE016E577F4F8B5891090E946431882320
:100F2000E1F064E571E089E997E00E94D236C457A8
:100F3000DF4F8881CC58D040882319F06FE471E0EE
:100F400002C069E471E089E997E00E941437C45750
:100F5000DF4F8881CC58D04005C061E08C8D0E9465
:100F6000B80581E0809329016EE371E0CE018459D8
:100F70009F4F0E940B3A02E310E09E01265C3F4F18
:100F8000AE0144595F4FBE016E577F4FCE010196AF
:100F90000E941C318823B9F06BE271E089E997E087
:100FA0000E94D236BE01665C7F4F89E997E00E94BD
:100FB000263788E0FE01FA96A6E0B1E001900D9296
:100FC0008A95E1F706C061E08C8D0E94B805109209
:100FD000060189A1882321F0CE014E960E94E124CA
:100FE000CE0101960E94AA2EC257DF4F0FB6F89489
:100FF000DEBF0FBECDBFDF91CF911F910F91FF904C
:10100000EF900895EF92FF920F931F93CF93DF938A
:10101000CDB7DEB7CC58D1090FB6F894DEBF0FBEFE
:10102000CDBF61E271E0CE0189589F4F0E940B3A1B
:1010300020E041E0BE0169587F4FCE0101960E9439
:10104000832E40E06EE271E08AE195E00E94E329A0
:10105000CE0101960E94210381110AC0BE01695888
:101060007F4F89E997E00E94F73661E171E002C0A5
:1010700061E071E089E997E00E94143742E350E0B3
:10108000BE01665C7F4FCE0101960E94382F811110
:1010900017C067EF70E089E997E00E94D236BE0181
:1010A0006F5F7F4F89E997E00E94F7366AEE70E044
:1010B00089E997E00E94D23661E08C8D0E94B805E4
:1010C00064EE70E0CE018E579F4F0E940B3A6DED9B
:1010D00070E0CE0184599F4F0E940B3ACE01845795
:1010E0009F4F7C0102E310E09E01265C3F4FAE0162
:1010F00044595F4FBE016E577F4F8B5891090E9434
:1011000064318823E1F06EEC70E089E997E00E9499
:10111000D236C457DF4F8881CC58D040882319F08D
:1011200069EC70E002C063EC70E089E997E00E942E
:101130001437C457DF4F8881CC58D04005C061E0D8
:101140008C8D0E94B80581E0809327016CEB70E0E4
:10115000CE0184599F4F0E940B3ACE0184579F4F76
:101160007C0102E310E09E01265C3F4FAE01445932
:101170005F4FBE016E577F4F8B5891090E946431BB
:101180008823E1F06DEA70E089E997E00E94D236A9
:10119000C457DF4F8881CC58D040882319F068EAC3
:1011A00070E002C062EA70E089E997E00E941437BB
:1011B000C457DF4F8881CC58D04005C061E08C8D8A
:1011C0000E94B80581E0809328016BE970E0CE01B0
:1011D00084599F4F0E940B3A02E310E09E01265C67
:1011E0003F4FAE0144595F4FBE016E577F4FCE0156
:1011F00001960E941C318823A1F06CE870E089E917
:1012000097E00E94D236BE01665C7F4F89E997E085
:101210000E942637CE01CA960E94BE398093E20111
:1012200006C061E08C8D0E94B8051092E20167E86B
:1012300070E0CE0184599F4F0E940B3A02E310E008
:101240009E01265C3F4FAE0144595F4FBE016E5771
:101250007F4FCE0101960E941C31882391F06AE7EE
:1012600070E089E997E00E94D236BE01665C7F4F4C
:1012700089E997E00E942637CE01CA960E94BE39BE
:1012800005C061E08C8D0E94B80585E08093230144
:1012900089A1882321F0CE014E960E94E12440E0EE
:1012A00068E371E08AE195E00E94E329CE010196AE
:1012B0000E94AA2EC457DF4F0FB6F894DEBF0FBEB0
:1012C000CDBFDF91CF911F910F91FF90EF900895C7
:1012D0000F931F93CF93DF9300D0CDB7DEB78C0170
:1012E0000C5F1F4FC8010E94F9228983C8010E9428
:1012F000F9228A8389819A810F900F90DF91CF9193
:101300001F910F9108950F931F93CF93DF9300D0F8
:1013100000D0CDB7DEB78C010C5F1F4FC8010E9413
:10132000F9228983C8010E94F9228A83C8010E9498
:10133000F9228B83C8010E94F9228C8369817A810A
:101340008B819C810F900F900F900F90DF91CF9128
:101350001F910F91089541E0BC018FEF94E00E942E
:10136000C027811108C063EC73E089E997E00E940F
:1013700014370E94AC038BEF94E00E94680982341A
:101380009D4409F040C08BEF94E00E9483098BEFED
:1013900094E00E9483098BEF94E00E9483098BEF15
:1013A00094E00E9483098BEF94E00E94830970937C
:1013B000CB016093CA018BEF94E00E948309709384
:1013C000C9016093C80160EB73E089E997E00E946E
:1013D000D2366091CA017091CB014AE050E089E9B0
:1013E00097E00E94ED376EEA73E089E997E00E948A
:1013F000D2366091C8017091C9014AE050E089E994
:1014000097E00E94F5376DE973E089E997E00E9463
:1014100014378FEF94E00C94E124DF92EF92FF9267
:101420000F931F93CF93DF93CDB7DEB7E4970FB63B
:10143000F894DEBF0FBECDBF63EB74E089E997E09F
:101440000E94143764EA74E089E997E00E94143737
:1014500080910205882321F08FEF94E00E94E1241F
:101460008091E701811104C01092DF011092DE012A
:101470000E942D346093BD017093BE018093BF0123
:101480009093C00110921C0110921B0140E068E390
:1014900071E08AE195E00E94E3291092D90110924F
:1014A000D8011092CF011092CE011092CD0110926E
:1014B000CC011092EF018091F301811103C081E012
:1014C0008093F30180911D0190911E0197FD5BC0F7
:1014D00062EA74E0CE0101960E940B3A68EA71E07C
:1014E000CE0101960E943B3A68E371E0CE0101967D
:1014F0000E943B3A4AE050E0BE01685E7F4F809117
:101500001D0190911E010E94613ABE01685E7F4FED
:10151000CE0101960E943B3ABE016F5F7F4F8AE188
:1015200095E00E94292A8823F9F067E974E089E9A7
:1015300097E00E94D236BE016F5F7F4F89E997E046
:101540000E94263740E0BE016F5F7F4F8AE195E041
:101550000E94E32980911D0190911E0101969093B4
:101560001E0180931D010FC08FEF9FEF90931E010E
:1015700080931D011092A80140E068E371E08AE1C8
:1015800095E00E94E32980910601882351F1809122
:101590001D0190911E01019621F568E874E089E92A
:1015A00097E00E94D23666E071E089E997E00E94F8
:1015B000263766E071E08AE195E00E94292A8823B7
:1015C00041F040E066E071E08AE195E00E94E329A5
:1015D00008C0109206016CE774E089E997E00E9468
:1015E0001437809106018823A9F16AE374E0CE01E3
:1015F000C3960E940B3ABE016D5C7F4F8AE195E075
:101600000E94292A882309F403C166E274E089E96B
:1016100097E00E94D236BE01685E7F4F89E997E06D
:101620000E94263788E0FE017896A8EAB1E0019092
:101630000D928A95E1F740E0BE016D5C7F4F8AE133
:1016400095E00E94E32981E090E090931E01809351
:101650001D01DEC080911D0190911E01019629F6A9
:101660008091E601882309F4BBC08091F6018130A6
:1016700039F00091F40110E00115110539F531C080
:101680008091F401880F811D9091F7018927809343
:10169000F4018091F5018F5F883018F48093F50193
:1016A00002C01092F5018091DC019091DD01682F5C
:1016B0004091F401542F561B242F30E082179307DA
:1016C00014F4452FF7CF4093F401D3CF8091DC0180
:1016D0009091DD010817190721F0019708171907E4
:1016E00011F40E5F1F4F68E674E089E997E00E94ED
:1016F000D2364AE050E0B80189E997E00E94ED3720
:101700006CE574E089E997E00E941437EE24E394D5
:10171000F12CE016F1060CF063C04091DA01509113
:10172000DB0121E06DE375E08FEF94E00E94C927B3
:1017300080910205823030F08FEFE81AF80ADD243C
:10174000D39401C0D12C8FEF94E00E94E1248091CA
:10175000DA019091DB0101969093DB018093DA012D
:10176000DD20D9F2D6CF888D803309F44FC1898D21
:10177000803309F44BC16DE474E089E997E00E947D
:10178000D2366091DA017091DB014AE050E089E9DC
:1017900097E00E94F5376CE374E089E997E00E94D6
:1017A000D236BE01685E7F4F89E997E00E942637F6
:1017B00040E0BE01685E7F4F8AE195E00E94E32928
:1017C0008FEF94E00E94E12421E08091DA01909172
:1017D000DB0101969093DB018093DA01211105CFA3
:1017E0004091DA015091DB0121E06DE375E08FEF6C
:1017F00094E00E94C927BE01685E7F4F8FEF94E09E
:101800000E94942180910205823008F0ACCFFEC086
:1018100060E274E0CE018D960E940B3ABE01635DDA
:101820007F4F8AE195E00E94292A882309F4D2C0DB
:1018300061E174E089E997E00E94D236BE01685EFA
:101840007F4F89E997E00E94F73665E074E089E907
:1018500097E00E9414370E94ED056FEF73E0CE0110
:1018600087960E940B3ACE0187960E94AB0960EFE3
:1018700073E089E997E00E94D23660911B01709174
:101880001C014AE050E089E997E00E94F5370E9488
:101890002D3400911B0110911C01222717FD20956A
:1018A000322F600F711F821F931F6093C1017093CD
:1018B000C2018093C3019093C4018091E6018230FC
:1018C00009F44CC08091D2019091D30118161906E9
:1018D000ACF4809129012091CA013091CB01813073
:1018E00041F43195219531093093CF012093CE01F8
:1018F00016C080E190E0821B930B08C0892B79F021
:1019000080912901813039F480E190E09093CF01FA
:101910008093CE0104C01092CF011092CE0180912D
:10192000D0019091D1011816190664F48091290113
:10193000813019F480EF9FEF2AC01092CD011092F0
:10194000CC0129C0892B39F1209129018091C8014E
:101950009091C9012130D9F0409719C08091CA01F6
:101960009091CB0197FD01969595879591958195DD
:10197000910908969093CF018093CE018091C80180
:101980009091C90197FD0196959587950897909339
:10199000CD018093CC016AEE73E0CE0181960E9466
:1019A0000B3A64EE73E0CE0101960E940B3ABE0141
:1019B0006F5D7F4F8AE195E00E94292A882391F08C
:1019C000BE016F5F7F4F8AE195E00E94292A811155
:1019D00009C022C066ED73E089E997E00E941437E0
:1019E0000E940D0A64ED73E0CE0101960E940B3A4D
:1019F000E4960FB6F894DEBF0FBECDBFDF91CF9156
:101A00001F910F91FF90EF90DF9008958FEF94E07A
:101A10000E94E12420E0D9CE81E08093EF01809103
:101A2000D2019091D301892BE9F68091D001909158
:101A3000D101892BB9F68FEF9FEF90931C01809312
:101A40001B01D0CF2F923F924F925F926F927F9265
:101A50008F929F92AF92BF92CF92DF92EF92FF92BE
:101A60000F931F93CF93DF93CDB7DEB764970FB675
:101A7000F894DEBF0FBECDBF7C016A87142F6031A2
:101A800010F4403138F066E973E089E997E00E948C
:101A9000D23616C289E997E00E940037809102058C
:101AA000811120C066E873E089E997E00E94D23690
:101AB000B70189E997E00E94F73667E289E997E084
:101AC0000E94383741E0B7018FEF94E00E94C027B1
:101AD00081110FC065E773E089E997E00E94143730
:101AE0000E94AC0340E050E0BA018FEF94E00E9406
:101AF00042238BEF94E00E94680982349D4409F0F0
:101B0000DDC169E673E089E997E00E94D2368BEF88
:101B100094E00E948309AB01BC012AE030E089E92E
:101B200097E00E9431388BEF94E00E9483098BEF9D
:101B300094E00E9483096B017C016AE573E089E906
:101B400097E00E94D2362AE030E0B701A60189E989
:101B500097E00E9431386CE473E089E997E00E94D5
:101B6000D2368BEF94E00E948309AB01BC012AE0DE
:101B700030E089E997E00E9431388BEF94E00E94D1
:101B800083092B013C018BEF94E00E9483094B01F8
:101B90005C018BEF94E00E946809019709F08EC107
:101BA0008BEF94E00E946809082F60E473E089E9F4
:101BB00097E00E94D2364AE050E0602F89E997E032
:101BC0000E941A38083109F079C18BEF94E00E9425
:101BD0008309672B682B692B09F070C1598A488AE1
:101BE0009D828C8263E373E089E997E00E94D2369C
:101BF0004AE050E0B20189E997E00E94ED3768E7DA
:101C000089E997E00E94F9364AE050E0B40189E999
:101C100097E00E94F53764E273E089E997E00E945B
:101C2000D2366091CE017091CF014AE050E089E94F
:101C300097E00E94ED3761E273E089E997E00E9446
:101C4000D2366091CC017091CD014AE050E089E933
:101C500097E00E94F537C2010F964F9720F0C4011C
:101C60000F964F9710F40E94E104C2010196DC0127
:101C7000AA0FBB1FA80FB91FAC7FBF83AE83CD01D6
:101C8000AA2797FDA095BA2F8B879C87AD87BE8723
:101C900066E173E089E997E00E94D2362AE030E0FD
:101CA0004B855C856D857E8589E997E00E9431389A
:101CB000AC81BD81B7FF08C0222733272819390915
:101CC0003D832C831F8602C031E03F876A85862FC3
:101CD00090E09C01240D351D2131310534F0B0E137
:101CE0006B2E712C681A790A01C03201812F90E0A5
:101CF0002C813D81280F391F213131053CF0A0E1B5
:101D0000B0E0A81BB90BB987A88704C02C813D811E
:101D1000398728871601270100E010E08C819D811A
:101D200001979B8B8A8BA885B9850A171B070CF036
:101D3000A1C09F85992331F18091CC019091CD0173
:101D4000800F911F2A893B89281B390B4091CE01B6
:101D50005091CF016DEF6403C001659F900D112478
:101D60004C01AA2497FCA094BA2C8C0C9D1CAE1C90
:101D7000BF1CAE81BF810E949539860E971EA81E9A
:101D8000B91E02C05201410180910A0590910B05D4
:101D9000A0910C05B0910D0588159905AA05BB0504
:101DA00031F0B501A4018FEF94E00E944223A12CF1
:101DB000B12CA614B7040CF052C043E050E0BE01B1
:101DC0006F5F7F4F8FEF94E00E94EF2199808A80B0
:101DD0004B818091CC019091CD012C813D81281BBC
:101DE000390B0217130734F491958195910908175F
:101DF000190714F4602F0FC08091CE019091CF018C
:101E000028893989280F391F602FA216B3061CF4C0
:101E1000A816B9067CF48A2D0E94860390E0FC0186
:101E2000EE0FFF1FE80FF91FE550FE4F10821182E1
:101E3000128211C08A858A0D4C8B0E94860390E025
:101E4000FC01EE0FFF1FE80FF91FE550FE4F4C8914
:101E50004083818292828FEFA81AB80AAACF0F5FBF
:101E60001F4F8B859C85AD85BE85280E391E4A1E69
:101E70005B1E59CF11E08091EB01811104C089E80C
:101E800097E00E9445038091EF01882321F0809123
:101E9000F001813051F465E073E089E997E00E9438
:101EA00014378FEF94E00E94E124111109C061EF13
:101EB00072E089E997E00E94143702C010E0DBCF9E
:101EC00064960FB6F894DEBF0FBECDBFDF91CF9101
:101ED0001F910F91FF90EF90DF90CF90BF90AF9048
:101EE0009F908F907F906F905F904F903F902F903A
:101EF0000895CF93DF930E9479051092CF0110923D
:101F0000CE0180EB90E09093CD018093CC016CEDFD
:101F100072E086E091E00E940B3AC9E8D7E08FEFCB
:101F2000888340E060E086E091E00E94220D6091AD
:101F3000E3018091E4010E94860390E0FC01EE0F32
:101F4000FF1FE80FF91FE550FE4F80818093C50108
:101F500081818093C60182818093C7019091250180
:101F600080912601989F802D11248883DF91CF9145
:101F70000895CF93DF9300D01F92CDB7DEB7809145
:101F800021014AE050E0BE016F5F7F4F90E00E9468
:101F9000613A89812FEF3FEF3093CF012093CE013B
:101FA000909121019A3030F0805320E1829FC0014E
:101FB000112402C080EA90E09093CD018093CC017F
:101FC0008091EA0181110EC08091E80181110AC05F
:101FD0008091E901811106C080EA90E09093CD01E3
:101FE0008093CC0167EC72E086E091E00E940B3AAE
:101FF00040E060E086E091E00E94220D0F900F909B
:102000000F90DF91CF910895CF93DF9300D01F926F
:10201000CDB7DEB7809121014AE050E0BE016F5F8D
:102020007F4F90E00E94613A809121018A3010F048
:102030008A8101C0898180531092CF011092CE0114
:1020400020E1829FC00111249093CD018093CC01A7
:102050008091EA0181110EC08091E80181110AC0CE
:102060008091E901811106C080EA90E09093CD0152
:102070008093CC0162EB72E086E091E00E940B3A23
:1020800040E063E086E091E00E94220D0F900F9007
:102090000F90DF91CF910895CF93DF9300D01F92DF
:1020A000CDB7DEB78091E1014AE050E0BE016F5F3D
:1020B0007F4F90E00E94613A8091E1018A3018F0F0
:1020C0008981805301C080E020E1829FC0011124FA
:1020D0009093CD018093CC018091EA0181110EC0D3
:1020E0008091E801882351F08091E901811106C0B7
:1020F00080EA90E09093CD018093CC016DE972E08D
:1021000086E091E00E940B3A40E068E086E091E0D2
:102110000E94220D0F900F900F90DF91CF910895A4
:10212000CF93DF9300D01F92CDB7DEB78091E1014E
:102130004AE050E0BE016F5F7F4F90E00E94613A3D
:102140008091E1018A3010F08A8101C08981805339
:1021500020E1829FC00111249093CD018093CC0196
:102160008091EA0181110EC08091E801882351F02D
:102170008091E901811106C080EA90E09093CD0141
:102180008093CC0168E872E086E091E00E940B3A0F
:1021900040E06CE086E091E00E94220D0F900F90ED
:1021A0000F90DF91CF9108950E94B90F0E94041003
:1021B0000E944C100E9490108091EA01811107C08A
:1021C00081E09091E901911180E08093E901809193
:1021D0000205882321F08FEF94E00C94E124089508
:1021E000CF93CCE08091E801811147C00E94D410C8
:1021F00089E897E00E9445030E94F90485E00E9467
:10220000B635892B39F58091F101811123C0809178
:102210002A018130F9F48091E9018823D9F0909165
:10222000210181E0890F8093210120912701222340
:1022300059F08D3018F09B5090932101809121012D
:10224000811102C0C093210180912101883110F0D9
:102250001092210184E00E94B635892B19F68091F5
:10226000F1018111BFCF80912A01813009F0BACFED
:102270008093F1018093E801B5CFCF9108958091CB
:10228000E8018130B1F50E94D41089E897E00E94FE
:1022900045030E94F90485E00E94B635892BA9F414
:1022A0008091F101811111C080912A01813069F47E
:1022B0008091E901882349F08091E1018F5F80934B
:1022C000E1018C3310F01092E10184E00E94B635F8
:1022D000892BA9F68091F1018111D1CF80912A013A
:1022E000813069F68093F1011092E8018093E90151
:1022F000C6CF08951092EA011092E0010E94F010FA
:102300000E943F110E943A058FEF809322010E94A4
:102310000F1E2093A2013093A3014093A401509378
:10232000A5016093A6017093A701089560E070E095
:1023300089E595E00E943E1C40912601841731F00A
:1023400060E070E089E595E00E94411C61E070E08A
:1023500089E595E00E943E1C4091E601841731F02A
:1023600061E070E089E595E00E94411C62E070E068
:1023700089E595E00E943E1C40912401841731F0CC
:1023800062E070E089E595E00E94411C1092DF0157
:102390001092DE011092F00181E08093EB01109227
:1023A000E7010E942D346093B9017093BA018093C4
:1023B000BB019093BC011092E5018FEF8093220145
:1023C00080910205882321F08FEF94E00E94E124A0
:1023D00010921C0110921B0140E068E371E08AE159
:1023E00095E00E94E3291092D9011092D80181E072
:1023F0008093EF019091F301911102C08093F3015A
:102400000E9402088091EA01811107C08CE080934C
:1024100021011092E1010E947A118091280181111D
:1024200006C00E94D41089E897E00C9445030895F3
:102430001F93CF93DF930E9462052091E00180916A
:102440002201281709F472C08091DE019091DF010A
:1024500001969093DF018093DE01209322010E9478
:10246000750380912701882371F0809121018D30BF
:1024700018F08C508093210180912101811103C0BB
:102480008CE080932101809128019091E0018823C4
:1024900079F08091E201890F8C3308F08C5380939E
:1024A000E0010E94790F0E94D4100E949E0504C092
:1024B000911106C00E94D41089E897E00E9445035C
:1024C000C0911F01D09120011091EA01CF3F8FEF01
:1024D000D80739F180912301882319F10E946E05F4
:1024E000BE010E945939892BE1F41130D1F41092C8
:1024F000DF011092DE018091A7018093E00110932B
:10250000E7011092EB0180910205882321F08FEF03
:1025100094E00E94E12481E08093EE011092060194
:1025200005C0111103C081E08093EA01DF91CF91D2
:102530001F910895CF93DF93CDB7DEB728970FB6DD
:10254000F894DEBF0FBECDBF209129018091CE014E
:102550009091CF01213009F070C081319105CCF408
:102560002091CA013091CB01319521953109821713
:1025700093077CF02091CC013091CD014091C801AE
:102580005091C9014217530724F0203F3F4F0CF0F0
:10259000C5C02091F201211107C01092D9011092FB
:1025A000D8010E940D0ABAC02091D2013091D30106
:1025B0001216130654F44097D4F08091CA019091FA
:1025C000CB019195819591090EC0232B81F020912B
:1025D000CA013091CB01319521953109281739076E
:1025E00034F080E190E09093CF018093CE01809110
:1025F000D0019091D101181619067CF42091CC01DC
:102600003091CD018091C8019091C90128173907F7
:102610000CF484C080EF9FEF7DC0892B09F47EC04D
:102620008091CC019091CD01813F9F4F0CF076C0FD
:102630008091C8019091C9016DC018161906D4F097
:1026400020E130E04091CA015091CB01241B350BB1
:10265000821793077CF04091CC015091CD012091DD
:10266000C8013091C9012F5031094217530714F4A2
:1026700057FF54C02091F201222309F48ECF2091FC
:10268000D2013091D301121613067CF497FD1CC0C1
:1026900080E190E02091CA013091CB01821B930B25
:1026A0009093CF018093CE010FC0232B69F020912E
:1026B000CA013091CB012F5031098217930724F4BE
:1026C0001092CF011092CE018091D0019091D10152
:1026D000181619068CF48091C8019091C901409791
:1026E0002091CC013091CD0128173907BCF0109210
:1026F000CD011092CC0112C0892B81F08091CC01C8
:102700009091CD01181619064CF08091C801909156
:10271000C90140979093CD018093CC018091EF0146
:10272000811138C04AE050E0BE016F5F7F4F809159
:10273000D8019091D9010E94613A6BE371E0CE011A
:1027400001960E943B3ABE016F5F7F4F8AE195E0A0
:102750000E94292A811119C01092D9011092D80122
:102760004AE050E0BE016F5F7F4F80E090E00E9442
:10277000613A6BE371E0CE0101960E943B3A809191
:102780002B01811102C00E940D0A40E060E0CE01E1
:10279000019604C040E060E08AE391E00E94220DCF
:1027A0002091D2013091D3012115310551F0809152
:1027B000CE019091CF01820F931F9093CF01809310
:1027C000CE012091D0013091D1012115310551F078
:1027D0008091CC019091CD01820F931F9093CD01F8
:1027E0008093CC0128960FB6F894DEBF0FBECDBF04
:1027F000DF91CF9108958F929F92AF92BF92CF9227
:10280000DF92EF92FF920F931F93CF93DF93CDB799
:10281000DEB769970FB6F894DEBF0FBECDBF0E943A
:10282000F9040E940F1E2093A2013093A30140934C
:10283000A4015093A5016093A6017093A70184E0C1
:102840000E94B635892B59F58091F101811127C07D
:1028500010912A01113019F58091EB0181111FC0EF
:102860001093F1018091F0018111A1C180911D01AE
:1028700090911E0197FD0FC08FEF9FEF90931E0167
:1028800080931D011092A80140E068E371E08AE1A5
:1028900095E00E94E3290E940D0A0E949A1284E0AA
:1028A0000E94B635892B09F012C28091F101811185
:1028B0000EC280912A01813009F009C29091EB018A
:1028C000992309F404C28093F1011092EA01109255
:1028D000E9010E9462050E947A118091F001813025
:1028E00009F0C7C00E942D340091B5011091B601C6
:1028F0002091B7013091B80106171707280739074B
:1029000008F0B7C01092F00160E070E089E595E052
:102910000E943E1C40912601841731F060E070E077
:1029200089E595E00E94411C61E070E089E595E051
:102930000E943E1C4091E601841731F061E070E096
:1029400089E595E00E94411C62E070E089E595E030
:102950000E943E1C40912401841731F062E070E037
:1029600089E595E00E94411C1092E5018091D60115
:102970009091D7019093CF018093CE018091D401A3
:102980009091D5019093CD018093CC018091E60187
:102990008230E9F48091CA019091CB0197FD0196B4
:1029A0009595879591958195910908969093CF017A
:1029B0008093CE018091C8019091C90197FD019645
:1029C0009595879508979093CD018093CC01C09001
:1029D000C101D090C201E090C301F090C4010E94F7
:1029E0002D340091B1011091B2012091B3013091C9
:1029F000B40146015701801A910AA20AB30A95014F
:102A00008401060F171F281F391F0093C10110935F
:102A1000C2012093C3013093C401C090BD01D09086
:102A2000BE01E090BF01F090C0010E942D340091E2
:102A3000B1011091B2012091B3013091B40146016E
:102A40005701801A910AA20AB30A95018401060F60
:102A5000171F281F391F0093BD011093BE0120933B
:102A6000BF013093C0018091EE01811102C00E942C
:102A70009A128091F0018111DCC19091EB019923B0
:102A800029F08091E701813009F089C08091A70188
:102A90009091E0018917B9F08093E0018091DE0107
:102AA0009091DF0101969093DF018093DE012091E8
:102AB000E701213041F42091230130E08217930790
:102AC00014F00E9496118091EE01813039F48091CA
:102AD000EB01811103C01092EE0117C08091240117
:102AE0008830B9F08091EB01811113C08091E7012A
:102AF00081110FC02091DE013091DF0180911F0113
:102B0000909120012817390724F00E940D0A0E9495
:102B10009A1280911B0190911C01019621F08091E5
:102B2000E601823021F48091F301811182C10E947B
:102B30002D34C090C101D090C201E090C301F0904B
:102B4000C4016C157D058E059F0508F472C1809146
:102B5000EB0181116EC10E9475030E942D34C0905B
:102B60001B01D0901C01EE24D7FCE094FE2C6C0DD0
:102B70007D1D8E1D9F1D6093C1017093C2018093C6
:102B8000C3019093C4018091D8019091D90101961D
:102B90009093D9018093D8010E949A124AC1913032
:102BA00009F047C1811145C10E94181242C10E941B
:102BB0002D346854744F8F4F9F4F6093B5017093BD
:102BC000B6018093B7019093B8018091E50181111E
:102BD00031C0809126018F5F883018F480932601E0
:102BE00002C0109326016DE175E0CE0101960E94AE
:102BF0000B3A809126014AE050E0BE01685E7F4FAB
:102C000090E00E94613ABE01685E7F4FCE0101965E
:102C10000E943B3A6BE371E0CE0101960E943B3A81
:102C20009091250180912601989F802D11248093F9
:102C3000890729C0813071F58091E6018F5F83306B
:102C400018F48093E60102C01092E6016DE075E091
:102C5000CE0101960E940B3A8091E6014AE050E0D5
:102C6000BE01685E7F4F90E00E94613ABE01685EDF
:102C70007F4FCE0101960E943B3A6BE371E0CE019B
:102C800001960E943B3A40E060E0CE0101960E942E
:102C9000220D05CE8230A9F4809124018F5F893006
:102CA00018F48093240102C0109324010E94490368
:102CB0006DEF74E0CE0101960E940B3A80912401E1
:102CC000CDCF833009F0EBCD0E949611E8CD85E0A1
:102CD0000E94B635892B09F000CE8091F101811157
:102CE000FCCD10912A01113009F0F7CD1093F101BC
:102CF0000E942D346854744F8F4F9F4F6093B501DD
:102D00007093B6018093B7019093B8018091F00160
:102D100081113EC01093F0010E942D346093B101E7
:102D20007093B2018093B3019093B4018091CE016E
:102D30009091CF019093D7018093D6018091CC01DF
:102D40009091CD019093D5018093D4011092CF0141
:102D50001092CE011092CD011092CC01809102050B
:102D6000882321F08FEF94E00E94E1248091EB0111
:102D7000811104C08091E701882399F01092E70146
:102D80001092EB0181E08093EE011092060109C0E0
:102D90008091E5018F5F8093E501843010F01092FF
:102DA000E5018091E501811109C06BEE74E0CE016F
:102DB00001960E940B3A8091260115C0813049F49A
:102DC0006BED74E0CE0101960E940B3A8091E60112
:102DD0000AC08230F1F46BEC74E0CE0101960E94DF
:102DE0000B3A809124014AE050E0BE01685E7F4FBB
:102DF00090E00E94613ABE01685E7F4FCE0101966D
:102E00000E943B3A6BE371E0CE0101960E943B3A8F
:102E100009C0833009F061CD67EB74E0CE01019603
:102E20000E940B3A40E060E0CE0101960E94220D24
:102E300054CD69960FB6F894DEBF0FBECDBFDF91BB
:102E4000CF911F910F91FF90EF90DF90CF90BF90A7
:102E5000AF909F908F9008950C94FB13F89414BE3C
:102E6000E0E6F0E080818861808380E4808378946C
:102E70000895EF92FF920F931F93CF93DF93CDB7F7
:102E8000DEB729970FB6F894DEBF0FBECDBF61E065
:102E900083E00E94473564E670E083E00E94BF341F
:102EA0000E942E1760E084E00E94473560E085E0D4
:102EB0000E94473561E084E00E94803561E085E052
:102EC0000E9480350E94A71D0E943A0560E070E0D4
:102ED00089E595E00E943E1C9FEF980F973010F413
:102EE0008093260161E070E089E595E00E943E1C38
:102EF000833010F48093E60162E070E089E595E0AC
:102F00000E943E1C9FEF980F983010F4809324018C
:102F10000E94490380919A01811145C010928C0151
:102F200010928B018FEF80938F018093900180939B
:102F3000910180939201809393018093940181E0A9
:102F400080939501109297011092960110928E0134
:102F500010928D018091870790918807892B31F419
:102F600089E891E09093880780938707E09185072F
:102F7000F0918607309721F089E891E0958384836A
:102F800089E891E0909386078093850710929901D4
:102F90001092980184E491E090938A0180938901D2
:102FA00081E080939A0120E030E040E051E06BEF57
:102FB00071E089E891E00E940532FC018FEF868381
:102FC00080EB878380EF808760E089E897E00E944C
:102FD000A5339091250180912601989F802D112481
:102FE0008093890784E00E94B635892B31F485E00F
:102FF0000E94B635892B09F4FFCF85E00E94B635D3
:10300000892B71F481E080932601809125018093C2
:1030100089071092E60182E0809324010E9449030F
:1030200084E00E94B635892B19F481E08093ED018C
:1030300062E675E089E997E00E94D23640E069E0F7
:103040008AE195E00E94B729811108C06DE575E01D
:1030500089E997E00E9414370E94AC0369E575E0A6
:1030600089E997E00E94143700E010E060E8F62E4E
:10307000EE24EA9421E0A8016DE375E08FEF94E07F
:103080000E94C92780910205823008F446C065E598
:1030900075E089E997E00E9414378091ED01813055
:1030A00091F48091DC019091DD01FC01EE0FFF1F96
:1030B000E80FF91FE550FE4FF082E182128289E8A5
:1030C00097E00E9445038091DC019091DD0101961B
:1030D0009093DD018093DC0168E475E089E997E075
:1030E0000E94D2364AE050E0B80189E997E00E9498
:1030F000F537BE016F5F7F4F8FEF94E00E94942100
:103100006FE375E089E997E00E94D236BE016F5FF8
:103110007F4F89E997E00E9426378FEF94E00E9465
:10312000E1240F5F1F4F011588E0180709F0A2CFB7
:103130006091DC017091DD014AE050E089E997E09F
:103140000E94ED376FE275E089E997E00E9414373D
:103150008091ED01813031F468E873E180E090E026
:103160000E945C3440E066E071E08AE195E00E94F4
:10317000E3290E94ED050E949A1229960FB6F89451
:10318000DEBF0FBECDBFDF91CF911F910F91FF909A
:10319000EF9008951F920F920FB60F9211248F9304
:1031A000809184008093F70181E08093F6018F91F4
:1031B0000F900FBE0F901F9018956F927F928F9275
:1031C0009F92AF92BF92CF92DF92EF92FF920F93B6
:1031D0001F93CF93DF93EC01E881F9819BB1906459
:1031E0008BB18F7B8BB978842D81F72CF21AFD82FD
:1031F000A881B98111963C91332329F00F2D300F0E
:1032000008F43FEF01C030E02B85132F129F112DE2
:103210001124812E6D84AA81BB814A855C85DC8066
:10322000CE80EF80C985912CA12CB12CD0E08D01EE
:1032300001501109AB2B09F4A9C1372D3F19F32E09
:103240006E2D6D19D62E7C2F7C19C72E0014D80137
:103250000D2F392D182D6B2D7A2D9BB9002C002C9C
:1032600017FF8BB900816627889400C000C0002C2E
:103270008BB901110D0D00C0002C9BB9002C002C46
:1032800016FF8BB908F40FEF889400C000C0002C23
:10329000002C8BB940FD600F00C0002C9BB9002CA6
:1032A000002C15FF8BB96795889441FD600F00C015
:1032B00000C0002C8BB96795889400C0002C9BB986
:1032C000002C002C14FF8BB942FD600F6795889489
:1032D00000C000C0002C8BB943FD600F00C0002C63
:1032E0009BB9002C002C13FF8BB96795889444FD83
:1032F000600F00C000C0002C8BB96795889400C097
:10330000002C9BB9002C002C12FF8BB945FD600FDF
:103310006795889400C000C0002C8BB946FD600FF3
:1033200000C0002C9BB9002C002C11FF8BB96795B5
:10333000889447FD600F00C000C0002C8BB96795D2
:10334000889400C0002C9BB9002C002C10FF8BB976
:1033500000C000C000C000C0002C8BB900C000C07D
:10336000002C9BB9002C002C67FF8BB902817727BA
:10337000889400C000C0002C8BB901110C0D00C056
:10338000002C9BB9002C002C66FF8BB908F40FEFC2
:10339000889400C000C0002C002C8BB950FD700F29
:1033A00000C0002C9BB9002C002C65FF8BB97795D1
:1033B000889451FD700F00C000C0002C8BB9779528
:1033C000889400C0002C9BB9002C002C64FF8BB9A2
:1033D00052FD700F7795889400C000C0002C8BB907
:1033E00053FD700F00C0002C9BB9002C002C63FF14
:1033F0008BB97795889454FD700F00C000C0002CE5
:103400008BB97795889400C0002C9BB9002C002CB8
:1034100062FF8BB955FD700F7795889400C000C08E
:10342000002C8BB956FD700F00C0002C9BB9002CEE
:10343000002C61FF8BB97795889457FD700F00C001
:1034400000C0002C8BB97795889400C0002C9BB9E4
:10345000002C002C60FF8BB9E60DF11D889400C094
:1034600000C0002C002C8BB900C000C0002C9BB900
:10347000002C002C77FF8BB901811127889400C0A4
:1034800000C0002C8BB901110F0D00C0002C9BB99E
:10349000002C002C76FF8BB908F40FEF889400C045
:1034A00000C0002C002C8BB920FD100F00C0002C98
:1034B0009BB9002C002C75FF8BB91795889421FDC2
:1034C000100F00C000C0002C8BB91795889400C065
:1034D000002C9BB9002C002C74FF8BB922FD100F1F
:1034E0001795889400C000C0002C8BB923FD100FE5
:1034F00000C0002C9BB9002C002C73FF8BB91795D2
:10350000889424FD100F00C000C0002C8BB91795C3
:10351000889400C0002C9BB9002C002C72FF8BB942
:1035200025FD100F1795889400C000C0002C8BB9A2
:1035300026FD100F00C0002C9BB9002C002C71FF41
:103540008BB91795889427FD100F00C000C0002C80
:103550008BB91795889400C0002C9BB9002C002CC7
:1035600070FF8BB900C000C000C000C0002CD02F7D
:10357000932E012F162F372F6D2F792D8BB9972E64
:10358000D62FA32EB12E802E002C51CEDF91CF91BD
:103590001F910F91FF90EF90DF90CF90BF90AF9071
:1035A0009F908F907F906F900895FF920F931F933D
:1035B000CF93DF93EC01809188018F5F982F9770F4
:1035C0009093880180FD02C080E001C080E891FDF9
:1035D0008064947009F0806270E1F72EF80E20E0AC
:1035E00030E000E011E0FE01E20FF31F6285662388
:1035F00031F070E0C8010E9459396F5F01C060E08E
:1036000067834F2D469F412D11244483662311F07B
:10361000615067832F5F3F4F2330310521F7DF91E2
:10362000CF911F910F91FF900895AF92BF92CF92CB
:10363000DF92EF92FF920F93CF93DF93CDB7DEB778
:103640002E970FB6F894DEBF0FBECDBF6C015A01A6
:10365000F901DC011C968C917A8369835C834B832E
:1036600090819B8791819C8792819D87813029F4ED
:10367000CE0101960E94D51A06C01A8619861886B0
:103680001F821E821D8289819A818E0D911D9A83CF
:103690008983002319F083E08E0D01C080E08E87BE
:1036A0000E943934F60127853089621B730B6A301A
:1036B0007105B0F3F894CE0101960E94DD1820EE5A
:1036C00031E0D5010E94AC39A4E0969587957795B5
:1036D0006795AA95D1F720E030E04AE9A49E212D14
:1036E000B49E200D311D1124620F731F811D911D89
:1036F000693EF3E07F0781059105A8F1DC01CB016C
:10370000885E9340A109B109E2E0B695A795979527
:103710008795EA95D1F740E050E027E0829F412D60
:10372000929F400D511D11242091580530E0280F23
:10373000391F240F351F8091910790919207A09116
:103740009307B0919407432F5527840F951FA11D10
:10375000B11D8093910790939207A0939307B09324
:1037600094072093580578940E943934D6015096D6
:103770007C936E931F972E960FB6F894DEBF0FBE04
:10378000CDBFDF91CF910F91FF90EF90DF90CF9061
:10379000BF90AF900895EF92FF920F93E12CF12C20
:1037A00000E00E94151B0F91FF90EF900895EF929B
:1037B000FF920F93E12CF12C01E00E94151B0F9159
:1037C000FF90EF900895EF92FF920F93CF93DF93C6
:1037D00000D01F92CDB7DEB7AB0119821A821B82CF
:1037E000E12CF12C00E09E012F5F3F4FB9010E94B8
:1037F000151B0F900F900F90DF91CF910F91FF90BD
:10380000EF90089589E180931B0510921E05109298
:10381000360510923D05109240051092FF0410925B
:1038200002051092FE041092FD048EE591E0909343
:10383000FC048093FB041092F8011092F90110929D
:10384000FA0140E050E0BA0182EA91E00C94351DA3
:1038500061E08AE00E94803561E08AE00E9447359D
:103860008CB580618CBD8CB580648CBD61E08DE0D1
:103870000E94473561E08BE00C944735CB010C94F6
:10388000AE3ACB01642F0C94B63A85ED8093BC0020
:103890008091BC0084FDFCCF10925D0508958A30B4
:1038A00040F590915D059111FCCF92E090935D05FC
:1038B0009FEF90935C0510925E0580935B0580ED11
:1038C00080935A0585EE8093BC0080915D0582301F
:1038D000E1F380915C058F3F71F080915C0580324F
:1038E00061F080915C05803311F483E0089584E0F9
:1038F000089581E0089580E0089582E008956A3097
:1039000010F590915D059111FCCF91E090935D05CC
:103910009FEF90935C0510925E05960F90935B0568
:10392000880F816080935A0585EE8093BC0080915A
:103930005D058130E1F380915E05861710F460919A
:103940005E05862F089580E008951F920F920FB6AE
:103950000F9211242F933F934F935F936F937F9315
:103960008F939F93AF93BF93EF93FF938091B90091
:10397000887F883251F170F4803121F130F488234E
:1039800009F45EC08830F1F05FC08831F1F0803218
:1039900079F15AC08034D9F168F4803349F1883321
:1039A00009F052C080935C0585EC8093BC001092B6
:1039B0005D054AC08035F9F08835A9F1883409F0F1
:1039C00043C040C080915A0510C090915E0580911F
:1039D0005B059817B8F5E0915E0581E08E0F809346
:1039E0005E05F0E0E15AFA4F80818093BB0017C07A
:1039F00080935C0527C0E0915E0581E08E0F809387
:103A00005E05F0E08091BB00E15AFA4F808390910F
:103A10005E0580915B05981710F085E801C085EC84
:103A20008093BC0011C0E0915E0581E08E0F809311
:103A30005E05F0E08091BB00E15AFA4F808302C03E
:103A400010925C050E94451CFF91EF91BF91AF91D0
:103A50009F918F917F916F915F914F913F912F91A6
:103A60000F900FBE0F901F901895CF92DF92EF929C
:103A7000FF92CF93DF93EC01405853446D46784357
:103A80008CE3C82ED12CE12CF12CCB01BA01A7017B
:103A900096010E946D396D83CA01B901A701960193
:103AA0000E946D396C83CA01B90128E130E040E021
:103AB00050E00E946D396B83188243E95EEFE88124
:103AC0008E2F8370A1E009F0A0E08A2F90E0BC0166
:103AD00063597E4F2617370740F0BA01681B790BF0
:103AE000260F371FEF5FE883EACF81E08983898162
:103AF000E82FF0E0E559FA4FE491AA2319F082305B
:103B000009F4EF5FF0E02E173F0720F02E1B3F0B6C
:103B10008F5FECCF2F5F2A83DF91CF91FF90EF90E3
:103B2000DF90CF900895CF92EF920F93FC01603D0C
:103B300087E0780710F0605D7740608341832283DF
:103B40000383E482C5820F91EF90CF900895109285
:103B50005D0561E082E10E94803561E083E10E94C1
:103B60008035E9EBF0E080818E7F808380818D7FDE
:103B7000808388E48093B80085E48093BC0081E072
:103B80000895FC0110925F0535812AE0832F622F92
:103B90000E943939982F990F980F990F930F90938E
:103BA00060053481832F0E943939982F990F980F1F
:103BB000990F930F909361053381832F0E943939B8
:103BC000982F990F980F990F930F90936205109269
:103BD00063053281832F0E943939982F990F980FEE
:103BE000990F930F909364053181832F0E94393987
:103BF000982F990F980F990F930F90936505308127
:103C0000832F0E943939982F990F980F990F930F8E
:103C1000909366051092670589E00C944F1C0F93F2
:103C20001F93CF93DF9300D000D000D0CDB7DEB785
:103C30000FE515E0F801108281E00E944F1C67E05B
:103C400088E60E947F1CF80170817F776091600593
:103C5000509161054091630530916405209165059F
:103C6000922F92959F708AEF989F200D1124932F89
:103C700092959F70989F300D1124942F92959F706C
:103C8000989F400D1124952F92959F70989F500DED
:103C90001124962F92959F70989F600D1124972F55
:103CA00092959F70989F700D112480E090E0269669
:103CB0000FB6F894DEBF0FBECDBFDF91CF911F913D
:103CC0000F9108958091C10085FDFCCF8091C000C7
:103CD00085FFF8CF6093C60081E090E008951092D0
:103CE0006B0510926A0580E591E0909369058093D9
:103CF000680508959CB59F7D9CBD9CB5937F9CBD38
:103D00008695863048F4E82FF0E0EC5AFE4F80812B
:103D1000992787FD909502C083E090E02CB5982FFD
:103D200093702C7F922B9CBD9DB582FB882780F9D8
:103D30009E7F982B9DBD08958EBD00000DB407FE9B
:103D4000FDCF8EB508958FEF0C949C1E61E0FC01B1
:103D500080810E9480358FEF0C949C1ECF93DF935F
:103D6000EC018A810E947A1E60E08881DF91CF9108
:103D70000C948035CF92DF92EF92FF920F931F93B6
:103D8000CF93DF93EC016B018A010E942D347B01FC
:103D90000E94A31E8B838F3F49F40E942D346E191D
:103DA0007F096D327140A0F381E107C08E3F21F49D
:103DB00076010C0D1D1D07C08FE08983CE010E9486
:103DC000A61E80E013C0E016F10639F08FEF0E94C6
:103DD0009C1EF70181937F01F6CF1B820E94A31ED8
:103DE0000E94A31ECE010E94A61E81E0DF91CF910A
:103DF0001F910F91FF90EF90DF90CF9008950F9358
:103E00001F93CF93DF93EB010E942D348B010E940F
:103E1000A31E8F3F49F00E942D34601B710B6C175D
:103E20007D07A8F380E001C081E0DF91CF911F9171
:103E30000F910895FF920F931F93CF93DF9300D0BC
:103E400000D0CDB7DEB78C01F62E29833A834B83A1
:103E50005C830E94AE1E6CE271E0C8010E94FF1EEE
:103E60008F2D80640E949C1E8C810E949C1E8B81E1
:103E70000E949C1E8A810E949C1E89810E949C1E19
:103E8000F11002C085E901C087E80E949C1E8CE009
:103E9000F81202C00E94A31EF12C0E94A31EF8017A
:103EA000838387FF05C0FFEFFF1611F0F394F5CF72
:103EB0000F900F900F900F90DF91CF911F910F9166
:103EC000FF900895BF92CF92DF92EF92FF920F93EF
:103ED0001F93CF93DF93EC01B62E1C821982488387
:103EE0000E942D348B0161E088810E94473561E09A
:103EF00088810E9480350E94281C8BE08A830E9462
:103F00007A1E2AE0F22E8FEF0E949C1EFA94D9F7B7
:103F100020E030E0A90160E0CE010E941A1F81304C
:103F200049F00E942D34601B710B613D774080F396
:103F300081E051C02AEA31E040E050E068E0CE0183
:103F40000E941A1F853011F481E00AC094E0F92E16
:103F50000E94A31E8B83FA94D9F78A3A59F482E01F
:103F60008C838C81823079F4C12CD12CE12C80E4BB
:103F7000F82E0CC00E942D34601B710B613D774000
:103F8000C8F282E028C0C12CD12C760120E030E0BC
:103F9000A90167E3CE010E941A1FA701960169E2F9
:103FA000CE010E941A1F882349F00E942D34601B05
:103FB000710B613D774050F38AE00DC08C818230F7
:103FC000E1F420E030E0A9016AE3CE010E941A1F6B
:103FD000882331F088E08983CE010E94A61E19C093
:103FE0000E94A31E807C803C11F483E08C830E949D
:103FF000A31E0E94A31E0E94A31ECE010E94A61E05
:104000008EE08B1518F488E1898303C0BA8281E0C1
:1040100001C080E0DF91CF911F910F91FF90EF9051
:10402000DF90CF90BF9008950F931F93CF93DF93AE
:10403000EC0189018C81833039F039E0440F551F40
:10404000661F771F3A95D1F79A01AB0161E1CE0166
:104050000E941A1F81110AC040E052E0B801CE014F
:10406000DF91CF911F910F910C94BA1E84E0898348
:10407000CE010E94A61E80E0DF91CF911F910F918B
:104080000895CF92DF92EF92FF920F931F93CF93F9
:10409000DF9300D0CDB7DEB78C01862F49835A83DA
:1040A0000E949C1E4981C42E5A81D52EE12CF12CF0
:1040B000F60181916F010E949C1EFFEFEF1AFF0A2B
:1040C000E11482E0F806A1F78FEF0E949C1E8FEFAB
:1040D0000E949C1E0E94A31EF80183838F7185306D
:1040E00039F083E18183C8010E94A61E80E001C0EF
:1040F00081E00F900F90DF91CF911F910F91FF9072
:10410000EF90DF90CF9008950F931F93CF93DF939D
:10411000EC0189018C81833039F089E0440F551F0F
:10412000661F771F8A95D1F79A01AB0168E1CE012E
:104130000E941A1F882311F086E023C0A8016EEFA9
:10414000CE010E9441208823E9F068E572E0CE01AB
:104150000E94FF1E182F811102C087E112C020E0CB
:1041600030E0A9016DE0CE010E941A1F811108C044
:104170000E94A31E811104C0CE010E94A61E06C08B
:1041800086E18983CE010E94A61E10E0812FDF9177
:10419000CF911F910F910895CF93DF93EC019C0174
:1041A000295F3F4F41E050E060E070E08D819E81EB
:1041B0000E94ED2B882399F04F89588D698D7A8D57
:1041C000452B462B472B59F44F81588569857A85B5
:1041D0004F8B588F698F7A8F998190689983DF917F
:1041E000CF910895BF92CF92DF92EF92FF920F93FB
:1041F0001F93CF93DF93EC018B899C89AD89BE8996
:10420000803E9F4FAF41B105A8F4CE010E94CC2063
:10421000882381F04F81588569857A858D819E81BB
:104220000E94E92A6B017C0145E00E94952A8C01DD
:10423000009719F480E090E037C080E092E0F80148
:104240009C01119221503040E1F7BB24B394ED81E1
:10425000FE818481B81688F49801B701A6014B0D40
:10426000511D611D711D80917005909171050E9415
:1042700084208823F9F2B394EACF90E0A0E0B0E084
:1042800029E0880F991FAA1FBB1F2A95D1F74B89D8
:104290005C896D897E89480F591F6A1F7B1F4B8B74
:1042A0005C8B6D8B7E8BC801DF91CF911F910F913D
:1042B000FF90EF90DF90CF90BF900895CF93DF9362
:1042C000EC01462F6F85788989899A890E94952A01
:1042D000009739F02C8130E2239F800D911D11242D
:1042E00002C080E090E0DF91CF91089530E020E0BF
:1042F0004EE2DC015C91503271F0383029F4FB0160
:10430000E20FF11D40832F5FFB01E20FF11DDC0185
:104310005C9150832F5F3F5F01963B3051F7FB016B
:10432000E20FF11D10820895CF93DF93EB01FC01A2
:104330002381211102C080E010C02250223020F4DD
:104340008FE28883198208C060E00E945E21009796
:1043500091F3BE010E94762181E0DF91CF91089513
:10436000FB012BE030E231932150E9F7DC0190E0D2
:1043700027E03A2FEB2F8D9181110AC0DA013C938F
:104380001196EC9381E0FB019081903239F525C0C4
:104390008F32A1F38E3219F0E8E7F5E008C02A3039
:1043A000E1F098E02AE0E5CF31963817B1F034918A
:1043B0003111FACF291788F03FED380F3E3568F4F8
:1043C00031E0390FFB01E90FF11D9FE9980F9A3198
:1043D00008F480528083932FCCCF80E008952F92F1
:1043E0003F924F925F926F927F928F929F92AF9285
:1043F000BF92CF92DF92EF92FF920F931F93CF93D2
:10440000DF9300D000D0CDB7DEB79C838B836B01E8
:104410007A01FC018381811103C08FEF9FEFD2C02D
:10442000EB81FC81818180FFF8CFEB81FC814389A6
:1044300054896589768983859485A585B6854701E4
:10444000A12CB12C8A019B01081B190B2A0B3B0BD9
:1044500080169106A206B30618F07A01E81AF90A46
:1044600087018B819C8107969A838983812CF2E056
:104470009F2E0115110509F46BC0EB81FC8143856A
:104480005485658576855A01F1E0BF22EB81FC8178
:1044900085819681FC0174801A012B01E9E0569414
:1044A000479437942794EA95D1F7EB81FC812381D7
:1044B000223051F4FC01628D738D848D958D620DD7
:1044C000731D841D951D2FC07A947220A114B10410
:1044D000E1F471101AC0EB81FC81452B462B472B70
:1044E00049F48789908DA18DB28D87839087A187AC
:1044F000B2870BC0478150856185728529813A81D9
:104500000E94012B882309F488CFEB81FC8147812D
:10451000508561857285858196810E94E92A670DA3
:10452000711D811D911DA114B104A1F40115F2E0CA
:104530001F0780F0409077055090780560907905CE
:1045400070907A056415750586059705C9F402C053
:10455000C70138C094012A193B09380120173107D7
:1045600008F4390140E00E94952A009709F455CFDC
:10457000BC016A0D7B1DA301C6010E941F3A0FC03A
:104580009601AB01BC0180917005909171050E946C
:104590001420882309F441CF612C62E0762EC60CEA
:1045A000D71CEB81FC8183859485A585B685860D16
:1045B000971DA11DB11D83879487A587B68706190E
:1045C000170957CF0F900F900F900F90DF91CF9159
:1045D0001F910F91FF90EF90DF90CF90BF90AF9021
:1045E0009F908F907F906F905F904F903F902F9013
:1045F0000895CF93DF931F92CDB7DEB741E050E02F
:10460000BE016F5F7F4F0E94EF21019719F48981EE
:1046100090E002C08FEF9FEF0F90DF91CF91089550
:104620001F93CF93DF93EC018B81823018F480E0ED
:1046300090E024C04B855C856D857E85B5E07695E0
:10464000679557954795BA95D1F7142F1F70CE01EE
:104650000E94F92297FDEBCF4B855C856D857E85A9
:10466000415E5F4F6F4F7F4F4B875C876D877E87C3
:1046700020E2129FC001112485589A4FDF91CF91FB
:104680001F9108954F925F926F927F92AF92BF9267
:10469000CF92DF92EF92FF920F931F93CF93DF930E
:1046A000EC016A017B012B81222349F08B899C89D3
:1046B000AD89BE8984179507A607B70710F480E077
:1046C0006CC0223009F464C0C114D104E104F104C7
:1046D00049F41F82188619861A861B861C861D8639
:1046E0001E865AC08B859C85AD85BE85ED81FE8179
:1046F000E585F0E03996AC01BD01415051096109F1
:1047000071090E2E04C076956795579547950A94C2
:10471000D2F797018601015011092109310904C01E
:104720003695279517950795EA95D2F7041715073B
:104730002607370720F0892B8A2B8B2B49F48F898A
:10474000988DA98DBA8D8F839887A987BA8704C061
:10475000041B150B260B370B280139015E0187E07E
:10476000A80EB11C411451046104710489F04F81F9
:10477000588569857A8595018D819E810E94012BDE
:1047800091E0491A5108610871088111EBCF05C009
:10479000CB86DC86ED86FE8681E0DF91CF911F918E
:1047A0000F91FF90EF90DF90CF90BF90AF907F90F0
:1047B0006F905F904F900895AF92BF92CF92DF922B
:1047C000EF92FF920F931F93CF93DF9300D000D00F
:1047D000CDB7DEB78C01FC018789908DA18DB28D9C
:1047E00089839A83AB83BC83A12CB12C49815A81E4
:1047F0006B817C819E012F5F3F4FD80115968D9173
:104800009C9116970E94012B8823C1F1D80115961F
:10481000ED91FC9116978481A80EB11CA114B0E112
:10482000BB0658F5C980DA80EB80FC80878980312F
:1048300049F481E0E8EFCE16EFEFDE06E104F10483
:1048400050F4D4CF81E0F8EFCF16FFEFDF06EF068C
:10485000FFE0FF0658F2A50160E070E099E0440F28
:10486000551F661F771F9A95D1F7D80153964D9320
:104870005D936D937C93569701C080E00F900F90ED
:104880000F900F90DF91CF911F910F91FF90EF90BC
:10489000DF90CF90BF90AF900895CF93DF93EC015E
:1048A000FB018B81882311F080E03CC07E836D8307
:1048B0008789803109F18032B9F783E08B83428D9B
:1048C000538D648D758D4F8B588F698F7A8FCE0184
:1048D0000E94DC23882341F381E089831F821886AC
:1048E00019861A861B861C861D861E861F86188AB8
:1048F000198A1A8A1C8216C082E08B831F8A188E3E
:10490000198E1A8E408D518D60E070E025E0440FC5
:10491000551F661F771F2A95D1F74B8B5C8B6D8BCC
:104920007E8BDACFDF91CF9108950F931F93CF93B2
:10493000DF93EC018B818823E1F1898187FF33C00C
:1049400061E0CE010E945E218C01009791F1FC0193
:104950008081853E71F18B81823040F44B895C8986
:104960006D897E89448F558F668F778F4F89588DDB
:10497000698D7A8DF801538F428F758B648BE0912E
:104980006C05F0916D05309759F0B8016A5E7F4F64
:10499000C80148960995F801808D918D938B828B83
:1049A00089818F778983DF91CF911F910F910C942B
:1049B000452A81E0888380E0DF91CF911F910F919C
:1049C0000895CF93DF93EC010E9495241B82DF9121
:1049D000CF9108954F925F926F927F92AF92BF9264
:1049E000CF92DF92EF92FF920F931F93CF93DF93BB
:1049F00000D000D0CDB7DEB75C016A017B01FC01BD
:104A000083818130F1F4818181FF1BC0F5018389AD
:104A10009489A589B68984179507A607B70788F0F2
:104A2000892B8A2B8B2B09F479C0F501438454849C
:104A300065847684B701A601C5010E9442238111D5
:104A400002C080E06CC0F50185819681C114D1045B
:104A5000E104F10471F44789508D618D728D0E94DB
:104A6000FA2C882371F3F501178A108E118E128E9D
:104A70003AC0F50147815085618572859E012F5F9F
:104A80003F4F0E94012B8823E1F249815A816B81BB
:104A90007C81F50185819681FC012789203139F4DB
:104AA000483FFFEF5F0761057105E8F407C0483F25
:104AB0002FEF520762072FE07207A8F40E94FA2C2A
:104AC000882309F4BECFF501478150856185728541
:104AD0000FEF1FEF2FEF3FE0858196810E947A2B29
:104AE000882309F4AECFF501C38AD48AE58AF68A11
:104AF000818180688183C5010E949524882309F4FF
:104B0000A0CFB701A6014C145D046E047F0410F41D
:104B1000B301A201C5010E94422301C081E00F90B0
:104B20000F900F900F90DF91CF911F910F91FF90F9
:104B3000EF90DF90CF90BF90AF907F906F905F909D
:104B40004F900895BF92CF92DF92EF92FF920F9312
:104B50001F93CF93DF93EC01B42E80E2689FF001A6
:104B60001124E558FA4F8385817121F0842F8271D9
:104B700009F04BC08091770590917805A091790557
:104B8000B0917A058F87988BA98BBA8B6C83048937
:104B9000158920E030E0980111270027C28CD38CC2
:104BA000E12CF12C0C291D292E293F290F8B188F60
:104BB000298F3A8F8385887151F4048D158D268D48
:104BC000378D0B8B1C8B2D8B3E8B81E008C0803189
:104BD000E1F4CE010E94DC238823B9F084E08B83CA
:104BE0008B2D8F7089831F82188619861A861B86E3
:104BF0001C861D861E86B4FE0BC040E050E0BA0144
:104C0000CE010E94EA24811103C01B8280E013C000
:104C1000B5FE10C04B895C896D897E89CE01DF911C
:104C2000CF911F910F91FF90EF90DF90CF90BF90A9
:104C30000C94422381E0DF91CF911F910F91FF905F
:104C4000EF90DF90CF90BF900895AF92BF92CF9238
:104C5000DF92EF92FF920F931F93CF93DF937C012C
:104C6000EB016A01B22E8D819E81F70196838583C7
:104C700040E050E0BA01CE010E944223A12C0B85F6
:104C80001C852D853E858B899C89AD89BE89081739
:104C900019072A073B07A8F5B5E03695279517951C
:104CA0000795BA95D1F70F70CE010E941023009797
:104CB00009F484C0FC012081222311F0253EB9F4BF
:104CC000A1100EC04091770550917805609179054B
:104CD00070917A05F7014787508B618B728B048343
:104CE000FC018081AA24A3948111C9CF0AC04BE0A2
:104CF00050E0BC01C6010E94123A892B09F0BFCFD7
:104D00005BC08B2D8274823409F058C0AA2051F008
:104D1000F701048161E0C7010E945E21EC01009768
:104D200069F44CC08B81823009F448C0CE010E94E6
:104D3000F220009709F442C0EC0100E080E2FE019D
:104D400011928A95E9F78BE0F601DE0101900D9250
:104D50008A95E1F7E0916C05F0916D05309739F097
:104D6000BE01625F7F4FCE014096099508C081E287
:104D700098E2998B888B80E098E09F878E8788895E
:104D800099899B8B8A8B998F888F8E859F859F8B26
:104D90008E8B0E94452A882389F04B2D602FC701F6
:104DA000DF91CF911F910F91FF90EF90DF90CF9007
:104DB000BF90AF900C94A225B7FEEFCF80E0DF91BB
:104DC000CF911F910F91FF90EF90DF90CF90BF9008
:104DD000AF9008953F924F925F926F927F928F9221
:104DE0009F92AF92BF92CF92DF92EF92FF920F937A
:104DF0001F93CF93DF93CDB7DEB7C354D1090FB65E
:104E0000F894DEBF0FBECDBF5C016B0124965FAF8F
:104E10004EAF2497522E1C8E1F8E19821C82611554
:104E2000710511F480E077C0FC0183818111FACF14
:104E30002496EEADFFAD249780818F3211F076017C
:104E40001EC02496EEADFFAD249780818F3231F4E1
:104E500031962496FFAFEEAF2497F3CFF60183810E
:104E60008250823060F3F60165817681CE01019631
:104E70000E944D248823B1F2CE0101967C018E015F
:104E8000045E1F4F3801FE0131964F01402E312E36
:104E90001BC08823C1F121E0AE01495C5F4FB7011F
:104EA000C8010E942526882309F4BCCFEC14FD0418
:104EB00019F0C7010E94E1240615170509F1942D88
:104EC000832D7801092F182FAE014E5B5F4FBE0175
:104ED000695C7F4F24968EAD9FAD24970E94B021D0
:104EE000882309F49FCF2496EEADFFAD24978081EF
:104EF0008F3279F631962496FFAFEEAF2497F3CF39
:104F0000982D892DDECF252DAE01495C5F4FB7016D
:104F1000C5010E942526CD5BDF4F0FB6F894DEBF9A
:104F20000FBECDBFDF91CF911F910F91FF90EF90FA
:104F3000DF90CF90BF90AF909F908F907F906F90B9
:104F40005F904F903F900895CF93DF93CDB7DEB73A
:104F50006B970FB6F894DEBF0FBECDBFAB011982C1
:104F60001C8221E0BC01CE0101960E94EA266B96CC
:104F70000FB6F894DEBF0FBECDBFDF91CF9108957D
:104F8000FB01242F60916E0570916F05AF010C94A9
:104F9000EA26DF92EF92FF920F931F93CF93DF9356
:104FA0008C01EB017A01D22E8D819E81F8019683CE
:104FB0008583838181112BC0209749F127FD27C06C
:104FC000A70185E0440F551F8A95E1F760E070E086
:104FD000CE010E9442238823D1F0CE010E941023EB
:104FE0000097A9F0FC018081882389F0853E79F043
:104FF0008E3269F06E2D6F704D2DC801DF91CF910B
:105000001F910F91FF90EF90DF900C94A22580E00C
:10501000DF91CF911F910F91FF90EF90DF90089556
:105020002F923F924F925F926F927F928F929F92B8
:10503000AF92BF92CF92DF92EF92FF920F931F93A6
:10504000CF93DF93CDB7DEB760970FB6F894DEBF8E
:105050000FBECDBF8C015B011A01DC0113968C9150
:1050600013978130C9F411968C9181FF15C082FF8E
:1050700019C0F801438954896589768983859485A7
:10508000A585B68584179507A607B70759F0C80107
:105090000E944223811106C081E0F80180838FEFD6
:1050A0009FEF2EC1710178C0D8011596ED91FC914A
:1050B000169754805A94DB01CA0169E0B695A7950A
:1050C000979587956A95D1F758226A01B1E0DB225E
:1050D000552009F46DC0D80117964D915D916D91E1
:1050E0007C911A9715968D919C9116970E94E92AAA
:1050F000650D711D811D911DC114D10409F4A0C05D
:1051000020E032E02C193D0927012E153F0508F457
:105110002901C114D10409F098C0D8011B966D90E3
:105120007D908D909C901E976D827E828F82988656
:1051300053966D907D908D909C9056972D813E81D9
:105140004F815885261537054805590508F47DC057
:1051500045E00E94952A009709F49ECFA201B5016F
:105160008C0D9D1D0E941F3AC40CD51CC11432E049
:10517000D30609F46CC0F80183859485A585B685AE
:10518000840D951DA11DB11D83879487A587B687C2
:10519000A40CB51CE418F508D8011B964D915D913F
:1051A0006D917C911E97E114F10409F07DCF7BC0D5
:1051B000C114D10409F08FCFD80117964D915D919C
:1051C0006D917C911A97411551056105710519F191
:1051D0009E012F5F3F4FCF010E94012B882309F4CE
:1051E0005BCF89819A81AB81BC81F80125813681B1
:1051F000F9012789203139F4883FFFEF9F07A10586
:10520000B10590F417C0883F2FEF9207A2072FE057
:10521000B20780F009C0F8018789908DA18DB28D09
:105220000097A105B10531F4C8010E94CC2081117D
:1052300052CF32CFF80187839087A187B2874BCFB7
:10524000E114B2E0FB0640F45BCF41E082CF0E9464
:10525000D92A811190CF20CF209177053091780500
:105260004091790550917A05261737074807590765
:1052700051F469877A878B879C870E94DB2A9C85FB
:105280008B857A8569859501AB01BC01809170059C
:10529000909171050E948420882309F4FDCE412C51
:1052A00052E0552E68CF53968D919D910D90BC91F3
:1052B000A02DF801218184179507A607B70738F4B8
:1052C000438B548B658B768B206821830CC0809137
:1052D0006C0590916D05892B31F02114310419F082
:1052E0002068F8012183D80111968C9183FD02C0BA
:1052F000C10106C0C8010E9495248111F9CFCCCE0E
:1053000060960FB6F894DEBF0FBECDBFDF91CF9190
:105310001F910F91FF90EF90DF90CF90BF90AF90D3
:105320009F908F907F906F905F904F903F902F90C5
:1053300008950F931F93CF93DF938C01EC01A396F5
:10534000662321F0D0936F05C0936E05F80186A106
:10535000882319F0CE010E94E124B8016B5F7F4FD2
:10536000CE01DF91CF911F910F910C944D240F939B
:105370001F93CF93DF93EC01842F462F682FCE012C
:105380000E94621F8823C9F08E010B5F1F4F41E00E
:10539000BE01C8010E94532D882341F061E0CE0177
:1053A000DF91CF911F910F910C94992940E0BE019C
:1053B000C8010E94532D8111F1CF80E0DF91CF9180
:1053C0001F910F910895FF920F931F93CF93DF9337
:1053D000CDB7DEB76B970FB6F894DEBF0FBECDBF6B
:1053E000FB01F42E19821C8220812F3239F4218195
:1053F000211104C0642F0E9499291FC08C010D5DEA
:105400001F4F21E0AF01B801CE0101960E94EA26AC
:10541000882399F09C81923078F09BE1FE013196CF
:10542000D80101900D929A95E1F7FF2031F0109389
:105430006F0500936E0501C080E06B960FB6F8947F
:10544000DEBF0FBECDBFDF91CF911F910F91FF90B7
:10545000089583960C94A427CF93DF931F92CDB722
:10546000DEB7698341E050E0BE016F5F7F4F049675
:105470000E94102821E030E0019711F020E030E098
:10548000C9010F90DF91CF9108950F931F93CF9390
:105490008091760580FF43C0409177055091780553
:1054A0006091790570917A052BE735E08091700560
:1054B000909171050E948420C82F811102C0C0E024
:1054C0002FC08091760581FD06C0809176058E7F84
:1054D0008093760525C00091720510917305209187
:1054E000740530917505011511052105310569F324
:1054F00040917705509178056091790570917A0512
:10550000400F511F621F731F2BE735E0809170051C
:10551000909171050E9484208111D7CFD0CFC1E036
:105520008C2FCF911F910F910895CF92DF92EF9220
:10553000FF92CF936B017C01C42F809177059091EE
:105540007805A0917905B0917A058C159D05AE0579
:10555000BF0509F10E94452A811103C080E090E057
:1055600022C0C2FF0BC010927605C0927705D09280
:105570007805E0927905F0927A050DC02BE735E0C9
:10558000B701A60180917005909171050E941420C9
:105590008111E9CFE3CFC370809176058C2B809386
:1055A00076058BE795E0CF91FF90EF90DF90CF905D
:1055B00008950C94452A8FEF9FEFDC0180937705C7
:1055C00090937805A0937905B0937A0510927605AB
:1055D00008950F931F93FC0142505109610971090D
:1055E000A481B0E09A01AB010E94B339068517850A
:1055F00020893189600F711F821F931F1F910F91A6
:1056000008958F929F92AF92BF92CF92DF92EF92C6
:10561000FF920F931F93CF93DF93EC016A017B01FD
:105620008901423051056105710508F455C089852D
:105630009A85AB85BC850196A11DB11D8417950780
:10564000A607B70708F448C08F89803129F4992745
:105650008F2D7E2D6D2D0BC08032F1F5CB01BA015F
:1056600047E096958795779567954A95D1F78B880A
:105670009C88AD88BE88680D791D8A1D9B1D42E0FF
:105680000E94952A009741F12F89203169F4DD2489
:10569000EE24FF24F601EE0FFF1FE80FF91F8081B3
:1056A0009181A0E0B0E011C0E894C7F8DD24EE24B9
:1056B000FF24F601EE0FFF1FEE0FFF1FE80FF91F8B
:1056C00080819181A281B381BF70F8018083918331
:1056D000A283B38381E001C080E0DF91CF911F916D
:1056E0000F91FF90EF90DF90CF90BF90AF909F9081
:1056F0008F9008958F929F92AF92BF92CF92DF9238
:10570000EF92FF920F931F93CF93DF93EC016A0107
:105710007B0148015901423051056105710508F4CA
:105720004EC049855A856B857C854F5F5F4F6F4FB3
:105730007F4F4C155D056E057F0508F440C08F89CD
:10574000803129F499278F2D7E2D6D2D0BC080324D
:10575000B1F5C701B601E7E096958795779567950E
:10576000EA95D1F70B891C892D893E89600F711F3D
:10577000821F931F43E00E94952A009701F12F8911
:10578000203159F4DD24EE24FF24F601EE0FFF1F33
:10579000E80FF91F9182808210C0E894C7F8DD24D9
:1057A000EE24FF24F601EE0FFF1FEE0FFF1FE80FA0
:1057B000F91F80829182A282B38281E001C080E0E1
:1057C000DF91CF911F910F91FF90EF90DF90CF90DD
:1057D000BF90AF909F908F9008952F923F924F92DD
:1057E0005F926F927F928F929F92AF92BF92CF9271
:1057F000DF92EF92FF920F931F93CF93DF93CDB77A
:10580000DEB72F970FB6F894DEBF0FBECDBF1C01D9
:105810004C875D876E877F873B872A87DC011996D7
:105820000D911D912D913C911C970F5F1F4F2F4F94
:105830003F4F0D831E832F833887EA85FB85808049
:105840009180A280B38081149104A104B10431F04D
:10585000FFEF8F1A9F0AAF0ABF0A10C0DC018D90BC
:105860009D90AD90BC90B1E0B9870C851D852E85CB
:105870003F85013011052105310509F019867501B3
:105880006401412C512C3201F10181859285A3855F
:10589000B485481659066A067B0608F050C00D818B
:1058A0001E812F8138850C151D052E053F0550F4EE
:1058B000A2E0CA2ED12CE12CF12CB2E08B2E912C3F
:1058C000A12CB12C9E012F5F3F4FB701A601C10152
:1058D0000E94012B882399F149815A816B817C8137
:1058E000D701C6010196A11DB11D452B462B472BA3
:1058F00019F04C015D010FC0AC01BD0148195909F7
:105900006A097B090C851D852E853F854017510747
:105910006207730741F01FEF411A510A610A710AC9
:105920006C017D01B1CF0FEF1FEF2FEF3FE0B7010B
:10593000A601C1010E947A2B8D83811114C01D82A2
:105940003FC02601370121E0421A51086108710861
:1059500097018601B301A201C1010E947A2B88231D
:1059600071F3730162018C149D04AE04BF0448F30B
:10597000AA85BB854D915D916D917C914115510535
:1059800061057105A9F4EA85FB8580829182A28276
:10599000B382F985FF23A1F00FEF801A900AA00AC5
:1059A000B00AD1018D929D92AD92BC92139708C01E
:1059B00095018401C1010E947A2B8111E4CFBFCFF0
:1059C0008D812F960FB6F894DEBF0FBECDBFDF914D
:1059D000CF911F910F91FF90EF90DF90CF90BF90EC
:1059E000AF909F908F907F906F905F904F903F907F
:1059F0002F900895AF92BF92CF92DF92EF92FF92D5
:105A00000F931F93CF93DF9300D000D0CDB7DEB7B5
:105A10005C016A017B0182E090E0A0E0B0E0F5016A
:105A200080839183A283B3839E012F5F3F4FB70191
:105A3000A601C5010E94012B811102C080E024C093
:105A400000E010E09801B701A601C5010E947A2B81
:105A50008823A1F3C980DA80EB80FC80F501878977
:105A6000803149F481E0F8EFCF16FFEFDF06E10463
:105A7000F10450F4D9CF81E098EFC9169FEFD90611
:105A8000E9069FE0F90680F20F900F900F900F90BB
:105A9000DF91CF911F910F91FF90EF90DF90CF900A
:105AA000BF90AF9008954F925F926F927F92AF92A6
:105AB000BF92CF92DF92EF92FF920F931F93CF93FB
:105AC000DF93EC01142F70937105609370051F8AAA
:105AD00082E090E0A0E0B0E088839983AA83BB8352
