:100000000C9498020C94C0020C94C0020C94C00290
:100010000C94C0020C94C0020C9447160C94C002BD
:100020000C94C0020C94C0020C94C0020C94C00248
:100030000C94C0020C94C0020C94C0020C94C00238
:100040000C944B310C94C0020C948E340C94C0343C
:100050000C94C0020C94C0020C94C0020C94C00218
:100060000C94221A0C94C002160419041C041F04D8
:100070002204250428042B042E0405A84CCDB2D458
:100080004EB93836A9020C50B9918688083CA6AA08
:10009000AA2ABE000000803F4C6F7765737420462B
:1000A00072656552616D3A20004672656552616DF8
:1000B0003A20002F303073797374656D2F66697242
:1000C00065776F726B0057696E212121004C6F7349
:1000D00065212121006E657874466F6C646572201D
:1000E00076616C75653A20006E657874466F6C6455
:1000F00065720046414C53450054525545007061AD
:100100006E6F66662076616C75653A200070616E70
:100110006F66660046414C53450054525545007485
:1001200072616E736C617465206C6F6F70207661A4
:100130006C75653A20006C6F6F70006D6F76655955
:100140002076616C75653A20006D6F766559006D9B
:100150006F7665582076616C75653A20006D6F7614
:100160006558007472616E736C6174650046414C31
:100170005345005452554500616E696D6174696F55
:100180006E206C6F6F702076616C75653A20006C24
:100190006F6F7000686F6C642076616C75653A20D3
:1001A00000686F6C6400616E696D6174696F6E00E8
:1001B000206E6F742076616C69643A2000696E6904
:1001C0002066696C652000496E692066696C65204F
:1001D0006578697374730020646F6573206E6F7443
:1001E00020657869737400636F6E6669672E696E47
:1001F0006900756E6B6E6F776E206572726F72201C
:1002000076616C756500756E6B6E6F776E00656FED
:1002100066006B6E6600736E6600736500627473D1
:1002200000666E6F00666E66006E6F206572726F9C
:100230007200466F726D617420756E7265636F67D0
:100240006E697A65642E00436C6F73696E6720492E
:100250006D6167652E2E2E00526F772073697A6567
:100260003A20002C2000496D616765206F66667337
:1002700065743A2000496D6167652073697A653A53
:1002800020004269742044657074683A2000486513
:10029000616465722073697A653A2000496D61670F
:1002A00065204F66667365743A200046696C652068
:1002B00073697A653A200046696C65206F70656ED7
:1002C000206661696C6564004C6F6164696E6720CB
:1002D000696D61676520270041626F72742E00436B
:1002E0006C6F73696E6720496D6167652E2E2E00F5
:1002F0007800496D616765207265736F6C7574690C
:100300006F6E3A200046696C65206F70656E2066DE
:1003100061696C656400456D70747920666F6C640A
:1003200065722100312E626D7000302E626D70009A
:10033000486F6C642028696E206D73293A20003064
:100340002E626D70002F636F6E6669672E696E692D
:10035000004F70656E696E672046696C653A2000D3
:10036000302E626D7000436861696E696E6720644B
:10037000657465637465643A200030004F70656E83
:10038000696E6720466F6C6465723A2000466F6C38
:1003900064657220496E6465783A200020666F6C4F
:1003A0006465722873292E0052616E646F6D6C79DA
:1003B00020616476616E63696E6720004E6F742001
:1003C0006578697374732100466F7263696E672084
:1003D0006E6578743A2000436861696E696E673AA9
:1003E00020002F004E65787420466F6C6465722E75
:1003F0002E2E002D2D2D002F303073797374656DE6
:100400002F67616D652E626D70002F3030737973C8
:1004100074656D2F74696D655F002F30307379736B
:1004200074656D2F706C61795F002F303073797354
:1004300074656D2F6272696768745F002F30307366
:10044000797374656D2F627265616B6F75742E625E
:100450006D70002F303073797374656D2F74696D12
:10046000655F002F303073797374656D2F706C6128
:10047000795F002F303073797374656D2F62726904
:100480006768745F00466F6C6465723A2000466965
:100490006C6520496E6465783A20002D2D2D004F43
:1004A0004B21006661696C00496E69742053443ABF
:1004B00020001F1C1F1E1F1E1F1F1E1F1E1F7C3CF7
:1004C0003E5E2B3D3F2F5B5D3B2C2A225C000000F3
:1004D0000008000201000003040700000000000003
:1004E00000000102040810204080010204081020CE
:1004F0000102040810200404040404040404020299
:1005000002020202030303030303000000002300AE
:100510002600290000000000250028002B00000014
:100520000000240027002A007F19EC1B2C31F03436
:1005300011241FBECFEFD8E0DEBFCDBF11E0A0E099
:10054000B1E0E6E0F8E702C005900D92AC37B107E4
:10055000D9F728E0ACE7B1E001C01D92AC31B20799
:10056000E1F715E0C0E3D5E004C02297FE010E9448
:10057000563AC832D107C9F70E9434350C94013C71
:100580000C940000569A0895FC0160810C94073089
:1005900080912501823011F48EE119C0833011F46D
:1005A0008CE315C0843011F48CE211C0853011F455
:1005B00084E80DC0863011F488E009C0873011F45A
:1005C00080E105C0883011F48FEF01C08AE080938C
:1005D0001E0108958091CC01811106C081E08093B5
:1005E000CC016EEF70E004C01092CC016FEF70E0B0
:1005F00083E00C942732982F611103C08FE0891B90
:100600000895862F8295807F60FF02C0890F08952C
:10061000891B815F08950E94FB0290E0FC01EE0FB0
:10062000FF1FE80FF91FE352FE4F8FEF8083818396
:100630001282089580E090E04FEF9C0123523E4FDC
:10064000F901E054FF4F40833196108231961082B9
:1006500003968033910589F780E090E09C01235256
:100660003E4FF901E051FF4F1082319610823196D2
:1006700010820396803521E0920781F780E090E0B8
:100680004FEF9C0123523E4FF901E05CFD4F408348
:10069000319610823196108203968033910589F746
:1006A00066E087E00E940B0366E086E00E940B0391
:1006B00066E085E00E940B0367E084E00E940B0384
:1006C00068E085E00E940B0368E086E00E940B036F
:1006D00069E087E00E940B036AE086E00E940B035A
:1006E0006AE085E00E940B036AE084E00E940B034D
:1006F00066E089E00E940B0366E08AE00E940B033B
:1007000067E08BE00E940B0368E08BE00E940B0324
:1007100069E08BE00E940B036AE08AE00E940B0311
:100720006AE089E00E940B0367E089E00E940B0306
:1007300068E089E00E940B0369E089E00E940B03F6
:100740009091260180912701989F802D11248093FC
:100750006B078BE697E00E94C402CFEF6C2F70E02E
:1007600083E00E94273261E070E080E090E00E9428
:10077000C431C150F3CF20E0822F90E0FC01EE0F96
:10078000FF1FE80FF91FE352FE4F10821182128201
:100790002F5FF2CF0F931F9385E00E941E330197C6
:1007A00049F484E00E941E33019721F48091D10125
:1007B0008130F9F08091290181112AC08091D10105
:1007C000811126C00E9495310091AD011091AE01BA
:1007D0002091AF013091B0010E5C1F4F2F4F3F4F62
:1007E000061717072807390798F481E08093290135
:1007F0000FC01092D101109229010E94953160938F
:10080000AD017093AE018093AF019093B001D2CF50
:100810001F910F910895CF93C62F90E089309105D5
:1008200000F5FC01EC5CFF4F0C94543A69E272E075
:100830001AC065E272E017C061E272E014C06DE1B7
:1008400072E011C06AE172E00EC066E172E00BC0B6
:1008500062E172E008C06EE072E005C066E072E03E
:1008600002C062EF71E08BE797E00E948135CC23F4
:1008700029F08BE797E0CF910C94AF35CF91089595
:10088000EF92FF920F931F93CF93DF93CDB7DEB715
:10089000CE58D1090FB6F894DEBF0FBECDBF67EEBC
:1008A00071E0CE0189589F4F0E942D3B20E041E02E
:1008B000BE0169587F4FCE0101960E94002C89A18C
:1008C000882321F0CE014E960E945E224B8DBE0100
:1008D0006F5F7F4FCE014E960E943D2589A18823F0
:1008E00029F01D8E1C8E67EC71E00DC081E090E058
:1008F0009D8F8C8FBE0169587F4F8BE797E00E94D8
:10090000A63567ED71E08BE797E00E94C33542E3BF
:1009100050E0BE01665C7F4FCE0101960E94B52C6F
:10092000811117C06DEB71E08BE797E00E94813574
:10093000BE016F5F7F4F8BE797E00E94A63560EBAB
:1009400071E08BE797E00E94813561E08C8D0E9419
:100950000B0466EA71E0CE018E579F4F0E942D3B3B
:1009600061EA71E0CE0184599F4F0E942D3B02E362
:1009700010E09E01265C3F4FAE0144595F4FBE011F
:100980006E577F4FCE0101960E94992E8823A1F0C9
:1009900064E971E08BE797E00E948135BE01665CF7
:1009A0007F4F8BE797E00E94D535CE01CA960E9413
:1009B000FE3A60931C0107C061E08C8D0E940B041D
:1009C00088EC80931C016FE871E0CE0184599F4F41
:1009D0000E942D3BCE0182579F4F7C0102E310E025
:1009E0009E01265C3F4FAE0144595F4FBE016E57DA
:1009F0007F4F8D5891090E94E12E8823E1F068E72E
:100A000071E08BE797E00E948135C257DF4F888104
:100A1000CE58D040882319F063E771E002C06DE63C
:100A200071E08BE797E00E94C335C257DF4F8881A2
:100A3000CE58D04005C061E08C8D0E940B0481E04F
:100A400080932A0163E671E0CE018E579F4F0E948A
:100A50002D3B6DE571E0CE0184599F4F0E942D3BE7
:100A600002E310E09E01265C3F4FAE0144595F4F08
:100A7000BE016E577F4FCE0101960E94992E8823AA
:100A8000A1F06FE471E08BE797E00E948135BE0131
:100A9000665C7F4F8BE797E00E94D535CE01CA9602
:100AA0000E94E03A8093BF0106C061E08C8D0E94F5
:100AB0000B041092BF0169E471E0CE0184599F4F8D
:100AC0000E942D3B02E310E09E01265C3F4FAE01E9
:100AD00044595F4FBE016E577F4FCE0101960E9471
:100AE000992E8823A1F06BE371E08BE797E00E94D9
:100AF0008135BE01665C7F4F8BE797E00E94D5355C
:100B0000CE01CA960E94E03A8093BE0106C061E021
:100B10008C8D0E940B041092BE0166E371E0CE0141
:100B200084599F4F0E942D3BCE0183579F4F7C01DC
:100B300002E310E09E01265C3F4FAE0144595F4F37
:100B4000BE016E577F4F8C5891090E94E12E882379
:100B5000F1F06FE171E08BE797E00E948135C357B8
:100B6000DF4F8881CD58D040882319F06AE171E0C9
:100B700002C064E171E08BE797E00E94C335C35780
:100B8000DF4F8881CD58D0408093D20106C061E00C
:100B90008C8D0E940B041092D2016DE071E0CE01A9
:100BA00084599F4F0E942D3BCE0184579F4F7C015B
:100BB00002E310E09E01265C3F4FAE0144595F4FB7
:100BC000BE016E577F4F8B5891090E94E12E8823FA
:100BD000E1F06EEF70E08BE797E00E948135C4573B
:100BE000DF4F8881CC58D040882319F069EF70E03E
:100BF00002C063EF70E08BE797E00E94C335C457F3
:100C0000DF4F8881CC58D04005C061E08C8D0E94B8
:100C10000B0481E08093280168EE70E0CE018459D6
:100C20009F4F0E942D3B02E310E09E01265C3F4F48
:100C3000AE0144595F4FBE016E577F4FCE01019602
:100C40000E94992E8823B9F065ED70E08BE797E05C
:100C50000E948135BE01665C7F4F8BE797E00E9462
:100C6000D53588E0FE01FA96AAE0B1E001900D9238
:100C70008A95E1F706C061E08C8D0E940B0410920A
:100C80000A0189A1882321F0CE014E960E945E229E
:100C9000CE0101960E94272CC257DF4F0FB6F89461
:100CA000DEBF0FBECDBFDF91CF911F910F91FF909F
:100CB000EF9008958091230190E0FC01EE0FFF1F5B
:100CC000E80FF91FE352FE4F48EC40834183428313
:100CD0009C012F5F3F4FF901EE0FFF1FE20FF31F43
:100CE000E352FE4F4083418342830296FC01EE0FA4
:100CF000FF1FE80FF91FE352FE4F408341834283F9
:100D00008BE697E00C94C402CF93DF93CDB7DEB7A8
:100D100064970FB6F894DEBF0FBECDBF63EB70E0F3
:100D2000CE0101960E942D3B40E0BE016F5F7F4FD8
:100D30008CEF94E00E94602764960FB6F894DEBFB3
:100D40000FBECDBFDF91CF9108956091D301709117
:100D5000D401A091D50180E090E020E0FC01E352B5
:100D6000FE4F308141815281361314C0471312C0A7
:100D70005A1310C003968D3FE2E09E0779F7309337
:100D8000D6014093D7015093D80181E0253020F05F
:100D900080E008952F5FEECF0895982F92959F7071
:100DA00062956F7011F48FE008C0862F8295807F66
:100DB00060FF02C0890F0895815F891B08958091AB
:100DC000B9018B3514F48A3529F094EB981B909374
:100DD000B901089582EC8093B901089588E6909155
:100DE000B901891B8093B90108950F931F93CF9385
:100DF000DF9300D0CDB7DEB78C010C5F1F4FC80169
:100E00000E9476208983C8010E9476208A83898186
:100E10009A810F900F90DF91CF911F910F910895BC
:100E20000F931F93CF93DF9300D000D0CDB7DEB7E1
:100E30008C010C5F1F4FC8010E9476208983C80176
:100E40000E9476208A83C8010E9476208B83C80185
:100E50000E9476208C8369817A818B819C810F909E
:100E60000F900F900F90DF91CF911F910F910895E8
:100E700041E0BC0181EE94E00E943D25811108C053
:100E800065E073E08BE797E00E94C3350E941A0388
:100E90008DED94E00E94F50682349D44F1F58DEDD0
:100EA00094E00E9410078DED94E00E9410078DEDF4
:100EB00094E00E9410078DED94E00E9410078DEDE4
:100EC00094E00E9410076093BB018DED94E00E94B6
:100ED00010076093BA0162EF72E08BE797E00E941F
:100EE00081356091BB01772767FD70954AE050E03E
:100EF0008BE797E00E949C3660EF72E08BE797E00B
:100F00000E9481356091BA01772767FD70954AE0AC
:100F100050E08BE797E00E94A4366FED72E08BE71C
:100F200097E00E94C33581EE94E00C945E22FF921C
:100F30000F931F93CF93DF93CDB7DEB7E1970FB633
:100F4000F894DEBF0FBECDBF63EF73E08BE797E091
:100F50000E94C33564EE73E08BE797E00E94C335CF
:100F60008091E404882321F081EE94E00E945E22C7
:100F70001092C5010E9495316093B1017093B20146
:100F80008093B3019093B40110921C0140E06BE296
:100F900071E08CEF94E00E9460271092C2011092E1
:100FA000BD011092BC011092CF018091C601823028
:100FB00018F48F5F8093C60180911D0187FD55C095
:100FC00062EE73E0CE0101960E942D3B6CE971E068
:100FD000CE0101960E945D3B6BE271E0CE0101966D
:100FE0000E945D3B80911D014AE050E0BE01685EB9
:100FF0007F4F992787FD90950E94833BBE01685ED5
:101000007F4FCE0101960E945D3BBE016F5F7F4F17
:101010008CEF94E00E94A6278823D9F067ED73E057
:101020008BE797E00E948135BE016F5F7F4F8BE7B2
:1010300097E00E94D53540E0BE016F5F7F4F8CEF97
:1010400094E00E94602780911D018F5F80931D01B5
:101050000CC08FEF80931D0110929C0140E06BE269
:1010600071E08CEF94E00E94602780910A01882350
:1010700041F180911D018F3F21F568EC73E08BE712
:1010800097E00E9481356AE071E08BE797E00E946B
:10109000D5356AE071E08CEF94E00E94A6278823A2
:1010A00041F040E06AE071E08CEF94E00E9460273C
:1010B00008C010920A016CEB73E08BE797E00E9486
:1010C000C33580910A01882391F16AE773E0CE016C
:1010D000C0960E942D3BBE01605D7F4F8CEF94E077
:1010E0000E94A627882309F4D3C066E673E08BE745
:1010F00097E00E948135BE016F5F7F4F8BE797E0DD
:101100000E94D53588E0FE013196ACE9B1E001904E
:101110000D928A95E1F740E0BE01605D7F4F8CEF54
:1011200094E00E94602781E080931D01B1C080910E
:101130001D018F3F51F68091C801882309F48BC0AF
:101140008091DB01813031F04091D901142F1416C8
:1011500044F136C08091D901880F811D9091DC0146
:1011600089278093D9018091DA018F5F883018F444
:101170008093DA0102C01092DA015091C401852FE8
:10118000992787FD90954091D901642F651B242FE5
:1011900030E08217930714F4462FF7CF4093D9011C
:1011A000D3CF8091C401481759F0992787FD9095B6
:1011B0000197242F332727FD30952817390711F47D
:1011C00012E0140F68EA73E08BE797E00E94813524
:1011D0004AE050E0612F772767FD70958BE797E035
:1011E0000E949C366CE973E08BE797E00E94C33560
:1011F00001E0011784F54091C301552747FD509543
:1012000021E06FE175E081EE94E00E944625809137
:10121000E404823020F00F5FFF24F39401C0F12C2E
:1012200081EE94E00E945E228091C3018F5F8093E3
:10123000C301FF2001F3DDCF8981803321F581EEE9
:1012400094E00E945E2290E08091C3018F5F8093C2
:10125000C30191113ACF4091C301552747FD5095E5
:1012600021E06FE175E081EE94E00E944625BE0129
:101270006F5F7F4F81EE94E00E94111F8091E40424
:101280008230D0F6DCCF8A81803309F0C8C0D7CF56
:1012900060E673E0CE018A960E942D3BBE01665D3A
:1012A0007F4F8CEF94E00E94A627882309F4AEC0FC
:1012B00061E573E08BE797E00E948135BE016F5FC7
:1012C0007F4F8BE797E00E94A63565E473E08BE7DC
:1012D00097E00E94C3350E9440046FE373E0CE01A3
:1012E00084960E942D3BCE0184960E94380760E3CD
:1012F00073E08BE797E00E94813560911C017727AE
:1013000067FD70954AE050E08BE797E00E94A436B5
:101310000E94953100911C01112707FD1095212F86
:10132000312F600F711F821F931F6093B50170935F
:10133000B6018093B7019093B8018091C8018230C3
:10134000A1F18091BF0118166CF480912801909151
:10135000BB01813021F491959093BD010FC080E1D4
:10136000891B07C0882351F080912801813021F426
:1013700080E18093BD0102C01092BD018091BE0149
:1013800018164CF480912801813011F480EF1CC0B4
:101390001092BC011BC08823C9F090912801809154
:1013A000BA01913089F080510FC08091BB0187FD57
:1013B0008F5F85958195885F8093BD018091BA018B
:1013C00087FD8F5F859588508093BC016AE273E04A
:1013D000CE014E960E942D3B64E273E0CE0148960A
:1013E0000E942D3BBE01625E7F4F8CEF94E00E9415
:1013F000A627882309F44DC0BE01685E7F4F8CEF9D
:1014000094E00E94A627811144C035C066E173E0D4
:101410008BE797E00E94C3350E9497073AC06DE8BA
:1014200073E08BE797E00E9481356091C3017727D5
:1014300067FD70954AE050E08BE797E00E94A43684
:101440006CE773E08BE797E00E948135BE016F5F28
:101450007F4F8BE797E00E94D53540E0BE016F5F7C
:101460007F4F8CEF94E00E94602781EE94E00E9411
:101470005E2291E0E9CE81E08093CF018091BF01AF
:10148000811107C08091BE01811103C08FEF80934D
:101490001C01E1960FB6F894DEBF0FBECDBFDF9101
:1014A000CF911F910F91FF9008952F923F924F92ED
:1014B0005F926F927F928F929F92AF92BF92CF92E4
:1014C000DF92EF92FF920F931F93CF93DF93CDB7ED
:1014D000DEB765970FB6F894DEBF0FBECDBF7C01B7
:1014E000562E142F2FE0261710F0403138F068EDFB
:1014F00072E08BE797E00E9481350DC28BE797E0A1
:101500000E94AF358091E404811120C068EC72E044
:101510008BE797E00E948135B7018BE797E00E9447
:10152000A63567E28BE797E00E94E73541E0B70117
:1015300081EE94E00E943D2581110FC067EB72E0BF
:101540008BE797E00E94C3350E941A0340E050E009
:10155000BA0181EE94E00E94BF208DED94E00E94DC
:10156000F50682349D4409F0D4C16BEA72E08BE742
:1015700097E00E9481358DED94E00E941007AB0149
:10158000BC012AE030E08BE797E00E94E0368DED69
:1015900094E00E9410078DED94E00E9410076E8386
:1015A0007F83888799876CE972E08BE797E00E94D8
:1015B00081352AE030E04E815F81688579858BE74F
:1015C00097E00E94E0366EE872E08BE797E00E94B9
:1015D00081358DED94E00E941007AB01BC012AE03B
:1015E00030E08BE797E00E94E0368DED94E00E94BA
:1015F0001007662E8DED94E00E941007762E8DED7B
:1016000094E00E94F506019709F083C18DED94E006
:101610000E94F506082F62E872E08BE797E00E94CF
:1016200081354AE050E0602F8BE797E00E94C93691
:10163000083109F06EC18DED94E00E941007672B10
:10164000682B692B09F065C165E772E08BE797E0CD
:101650000E948135A62DBB27A7FDB095BD83AC8325
:101660004AE050E0BD018BE797E00E949C3668E7B6
:101670008BE797E00E94A835672D772767FD709567
:101680004AE050E08BE797E00E94A43666E672E0FD
:101690008BE797E00E9481356091BD01772767FD58
:1016A00070954AE050E08BE797E00E949C3663E635
:1016B00072E08BE797E00E9481356091BC0177274B
:1016C00067FD70954AE050E08BE797E00E94A436F2
:1016D0008FE0860D8F3120F08FE0870D8F3110F471
:1016E0000E94BB038C819D8101961C01220C331C3E
:1016F000280E391E5CEF2522C101AA2797FDA0956F
:10170000BA2F8C879D87AE87BF8768E572E08BE72D
:1017100097E00E9481352AE030E04C855D856E853A
:101720007F858BE797E00E94E03677FE03C07194D7
:10173000188A02C091E0988B8C819D81850D911D46
:1017400041971CF000E1602E6518A72DBB27A7FD6F
:10175000B095BB87AA87CD01810F911D41971CF0E1
:10176000B0E17B2E711A8E809F80A884B98400E03E
:1017700010E04A855B85415051095A8B498B07150A
:101780000CF0A7C05889552339F18091BD01909183
:10179000BC019801290F311D97FD3A95A989BA8995
:1017A000A21BB30B9D01BDEF8B02C00111246C0184
:1017B000EE24D7FCE094FE2C8E819F81A885B9850C
:1017C000C80ED91EEA1EFB1ED1010E945A3AC60E4F
:1017D000D71EE81EF91E02C0750164018091EC0459
:1017E0009091ED04A091EE04B091EF048C159D054D
:1017F000AE05BF0531F0B701A60181EE94E00E946D
:10180000BF20412C46140CF059C043E050E0BE010B
:101810006F5F7F4F81EE94E00E946C1F99812A8157
:101820003B814091BC01552747FD50956A857B85DA
:10183000641B750B06171707ACF4519541955109B8
:10184000041715077CF08091BD014C815D81480F24
:10185000511D87FD5A95642D772767FD7095641794
:10186000750714F0602F03C0602F48167CF4842D98
:101870000E94FB0290E0FC01EE0FFF1FE80FF91F32
:10188000E352FE4F10821182128216C0842D850D04
:101890002C8B3D8B9B8B0E94FB02482F50E0FA0162
:1018A000EE0FFF1FE40FF51FE352FE4F3D8930831B
:1018B0002C8921839B8992834394A4CF0F5F1F4F70
:1018C0008C859D85AE85BF85880E991EAA1EBB1E80
:1018D00056CF11E08BE697E00E94C4028091CF01C1
:1018E000882321F08091D001813051F467E472E0C7
:1018F0008BE797E00E94C33581EE94E00E945E2260
:10190000111109C062E372E08BE797E00E94C335D2
:1019100002C010E0DFCF65960FB6F894DEBF0FBEB1
:10192000CDBFDF91CF911F910F91FF90EF90DF908E
:10193000CF90BF90AF909F908F907F906F905F906F
:101940004F903F902F9008954F925F926F927F92A9
:101950008F929F92AF92BF92CF92DF92EF92FF92BF
:101960000F931F93CF93DF93CDB7DEB727970FB6B3
:10197000F894DEBF0FBECDBF80911C0118161CF479
:10198000815080931C018091C20118161CF4815073
:101990008093C20180912901811116C00E94953166
:1019A0000091AD011091AE012091AF013091B001D5
:1019B0000E5C1F4F2F4F3F4F061717072807390799
:1019C00018F481E08093290185E00E941E33892B61
:1019D00009F03FC080911C0181113BC0809123011F
:1019E0008D3EB8F59091C901913099F5109129017A
:1019F000113079F58F5F8093230190E00197FC010E
:101A0000EE0FFF1FE80FF91FE352FE4F1082118205
:101A100012820E945A0688EB80931C018091CA01B1
:101A2000811162C01093CA0188E893E1A0E0B0E0A0
:101A30008093B5019093B601A093B701B093B8011C
:101A400021EE30E040E050E06EEB70E080E090E0AE
:101A500040C084E00E941E33892B09F03FC0809172
:101A60001C0181113BC080912301813EB8F110918E
:101A70002901113099F581508093230190E003965C
:101A8000FC01EE0FFF1FE80FF91FE352FE4F10821B
:101A9000118212820E945A0688EB80931C01809169
:101AA000CA01811121C01093CA0188E893E1A0E026
:101AB000B0E08093B5019093B601A093B701B093C5
:101AC000B8012AEA30E040E050E067E870E080E0EA
:101AD00090E00E9416376093B90106C084E00E942E
:101AE0001E33019709F49AC28091CA01813009F02E
:101AF0009DC28091C201811199C28091B5018093EC
:101B0000C20120912001822F90E0FC01EE0FFF1F07
:101B1000E80FF91FE352FE4F1082118212822F3E0E
:101B200008F44AC01092CA011092CB016DEC70E02B
:101B30008BE797E00E94813510E022E030E040E042
:101B400050E060E070E0CB010E941637672B682BF5
:101B5000692B11F4F12C02C04AEFF42E22E030E0A0
:101B600040E050E060E070E0CB010E941637672B48
:101B7000682B692B11F400E001C00AEF22E030E08D
:101B800040E050E060E070E0CB010E941637672B28
:101B9000682B692B11F420E001C02AEF812F90E01F
:101BA000FC01EE0FFF1FE80FF91FE352FE4FF0821A
:101BB000018322831F5FC1CF6091B901772767FD41
:101BC0007095872F972F0E9435382BED3FE049E421
:101BD00050E40E94223920E030E044E353E40E94C4
:101BE0009F370E9485394B015C016091220170E0B2
:101BF00080E090E00E9435386B017C0120E030E00D
:101C000040E851E4C501B4010E9422399B01AC01B6
:101C1000C701B6010E94343720E030E040E05FE3C6
:101C20000E94343720E030E040E853E40E941E393F
:101C3000181614F40E94EE061091B901612F77274F
:101C400067FD7095872F972F0E9435382BED3FE069
:101C500049E450E40E94223920E030E044E353E4B8
:101C60000E949F376B017C010E9485392B013C014A
:101C70006091220170E080E090E00E9435384B01D5
:101C80005C0120E030E040E851E4C301B2010E9471
:101C900022399B01AC01C501B4010E94343720E018
:101CA00030E040E05FE30E9434370E9407386093E1
:101CB000220100912101C701B6011B3554F10E9498
:101CC0009C374B015C01602F70E080E090E00E9447
:101CD00035386B017C0120E030E040E851E4C5017B
:101CE000B4010E9422399B01AC01C701B6010E94D8
:101CF000343720E030E040E05FE30E94343720E0FA
:101D000030E0A9010E94983787FF2BC00E94DF06B0
:101D100028C00E949C374B015C01602F70E080E07E
:101D200090E00E9435386B017C0120E030E040E813
:101D300051E4C501B4010E9422399B01AC01C701E5
:101D4000B6010E94343720E030E040E05FE30E94BB
:101D5000343720E030E040E853E40E941E39181682
:101D6000ACF26091B901772767FD7095872F972FA7
:101D70000E9435382BED3FE049E450E40E942239BF
:101D800020E030E044E353E40E949F374B015C01C4
:101D90000E949C3720E030E040E851E40E94223964
:101DA0006B017C016091210170E080E090E00E9475
:101DB0003538A70196010E94343720E030E040E03A
:101DC0005FE30E9434370E940738162F6093210189
:101DD00000912201802F0E94CD06809320019091D6
:101DE0002301891779F0282F30E0892F90E0AC018A
:101DF0004F5F5F4F2417350729F0029628173907E0
:101E000009F091C0C501B4010E9485392B013C0144
:101E1000602F70E080E090E00E9435384B015C015B
:101E200020E030E040E851E4C301B2010E942239D1
:101E300020E030E040E05FE30E9434379B01AC01DA
:101E4000C501B4010E9433370E9407386093220114
:101E5000612F70E080E090E00E9435384B015C011A
:101E600020E030E040E05FE3C701B6010E94343774
:101E70009B01AC01C501B4010E9433370E940738B1
:101E8000609321010E94DF062091200180912301AF
:101E9000281309C02AEA30E040E050E063E770E030
:101EA00080E090E00EC030E090E0029628173907FD
:101EB00061F425EF30E040E050E06EEB70E080E050
:101EC00090E00E9416376093B901609121018091E2
:101ED00022010E94CD06809320018091230190E091
:101EE000FC01EE0FFF1FE80FF91FE352FE4F48EC15
:101EF0004083418342839C012F5F3F4FF901EE0FE6
:101F0000FF1FE20FF31FE352FE4F408341834283E2
:101F10000296FC01EE0FFF1FE80FF91FE352FE4F80
:101F20004083418342838091200190E0FC01EE0FC9
:101F3000FF1FE80FF91FE352FE4F20812093D601C7
:101F400091819093D70182818093D8013091D30100
:101F5000231309C02091D401921305C09091D5019B
:101F6000891709F442C08091B5019091B601A09102
:101F7000B701B091B8014E97A109B1098093B5019D
:101F80009093B601A093B701B093B8010E94DF0609
:101F90000E94A506882349F166EC70E08BE797E084
:101FA0000E9481351092CA011092CB010E948406D2
:101FB000E12CF12C4AE050E0BE016F5F7F4FC7017A
:101FC0000E94833B6EE271E0CE0101960E945D3B70
:101FD00040E060E0CE0101960E94550A8FEFE81ABA
:101FE000F80A83E5E816F10429F78091CB018130E6
:101FF000E9F48091200190E0FC01EE0FFF1FE80F53
:10200000F91FE352FE4F8FEA80838FEF81838FE0C9
:1020100082838BE697E00E94C40208C08091C901C8
:10202000811162CD81E08093C9015ECD27960FB604
:10203000F894DEBF0FBECDBFDF91CF911F910F91FE
:10204000FF90EF90DF90CF90BF90AF909F908F90D8
:102050007F906F905F904F900895CF93DF93CDB7AF
:10206000DEB728970FB6F894DEBF0FBECDBF8091C4
:1020700028012091BD01813009F054C02131B4F410
:102080008091BB01992781950CF49095422F55279B
:1020900047FD5095481759074CF08091BC0190912D
:1020A000BA0198171CF0803F0CF0A0C08091D201BB
:1020B000811105C01092C2010E94970797C08091BC
:1020C000BF01181634F42031ACF08091BB0181952A
:1020D0000FC0882379F0332727FD30958091BB010D
:1020E000992781950CF49095821793071CF080E155
:1020F0008093BD018091BE0118164CF49091BC01F3
:102100008091BA0198170CF471C080EF6DC08823DC
:1021100009F46CC08091BC01813F0CF067C08091D4
:10212000BA0162C0121604F13091BB0180E190E067
:10213000831B910937FD9395422F552747FD5095F5
:10214000481759078CF03091BC018091BA0199274A
:1021500087FD90950F97432F552747FD50954817BA
:10216000590714F437FF42C08091D201882309F443
:10217000A1CF8091BF0118164CF427FD17C080E154
:102180009091BB01891B8093BD0110C0882371F021
:102190008091BB01992787FD90950F97332727FDE5
:1021A00030952817390714F41092BD018091BE01B3
:1021B00018168CF42091BC01332727FD30958091AF
:1021C000BA01992787FD909540972817390774F031
:1021D0001092BC010BC0882349F08091BC011816F5
:1021E0002CF08091BA0180518093BC018091CF0185
:1021F000811137C08091C2014AE050E0BE016F5F9B
:102200007F4F992787FD90950E94833B6EE271E096
:10221000CE0101960E945D3BBE016F5F7F4F8CEF48
:1022200094E00E94A627811117C01092C2014AE0D3
:1022300050E0BE016F5F7F4F80E090E00E94833BE3
:102240006EE271E0CE0101960E945D3B80912A0111
:10225000811102C00E94970740E060E0CE01019624
:1022600004C040E060E08DE291E00E94550A909148
:10227000BF01992329F08091BD01890F8093BD0191
:102280009091BE01992329F08091BC01890F809320
:10229000BC0128960FB6F894DEBF0FBECDBFDF910C
:1022A000CF9108958F929F92AF92BF92CF92DF927B
:1022B000EF92FF920F931F93CF93DF93CDB7DEB7CB
:1022C00069970FB6F894DEBF0FBECDBF0E94CA0358
:1022D0000E948C1B209396013093970140939801A4
:1022E0005093990160939A0170939B0184E00E943E
:1022F0001E33892B09F07CC28091D101811178C2F3
:1023000010912901113009F073C21093D10180910D
:10231000D001811115C080911D0187FD0CC08FEF88
:1023200080931D0110929C0140E06BE271E08CEF04
:1023300094E00E9460270E9497070E942D101FC101
:102340000E9495316854744F8F4F9F4F6093A9013D
:102350007093AA018093AB019093AC018091C70167
:10236000811131C0809127018F5F883018F48093EC
:10237000270102C01093270163E774E0CE010196A4
:102380000E942D3B809127014AE050E0BE01685E2B
:102390007F4F90E00E94833BBE01685E7F4FCE017D
:1023A00001960E945D3B6EE271E0CE0101960E94B3
:1023B0005D3B9091260180912701989F802D1124EB
:1023C00080936B07D6C0813069F48091C8018F5F1C
:1023D000833018F48093C80102C01092C80163E6EC
:1023E00074E098C0823079F4809125018F5F893044
:1023F00018F48093250102C0109325010E94C802A1
:1024000063E574E092C0833009F0B9C01092D00146
:1024100060E070E08BE395E00E94BB1940912701DA
:10242000841731F060E070E08BE395E00E94BE1904
:1024300061E070E08BE395E00E94BB194091C80118
:10244000841731F061E070E08BE395E00E94BE19E3
:1024500062E070E08BE395E00E94BB19409125019A
:10246000841731F062E070E08BE395E00E94BE19C2
:102470000E9495316093AD017093AE018093AF01DE
:102480009093B00181E08093CB011092C90110922A
:1024900029016CE374E0CE0101960E942D3B40E0DF
:1024A00060E0CE0101960E94550A86EE80932301DA
:1024B00080E78093220180ED8093210188ED809355
:1024C000200110921C011092C2018FEA80936504D2
:1024D0008FEF809366048FE08093670488EC80938D
:1024E0008F0480939004809391048093920480934E
:1024F000930480939404809395048093960480932E
:1025000097048BE697E00E94C40239C0813049F4F9
:102510006AE174E0CE0101960E942D3B8091C801D2
:102520000AC08230F1F46AE074E0CE0101960E94A4
:102530002D3B809125014AE050E0BE01685E7F4F4F
:1025400090E00E94833BBE01685E7F4FCE01019602
:102550000E945D3B6EE271E0CE0101960E945D3B00
:1025600008C0833061F467EF73E0CE0101960E94EA
:102570002D3B40E060E0CE0101960E94550A85E0C7
:102580000E941E33019751F484E00E941E3301978C
:1025900029F48091D101813009F484C18091D00166
:1025A000813009F0BBC00E9495310091A9011091C2
:1025B000AA012091AB013091AC010617170728073B
:1025C000390708F0ABC01092D00160E070E08BE3F7
:1025D00095E00E94BB1940912701841731F060E01B
:1025E00070E08BE395E00E94BE1961E070E08BE340
:1025F00095E00E94BB194091C801841731F061E059
:1026000070E08BE395E00E94BE1962E070E08BE31E
:1026100095E00E94BB1940912501841731F062E0DA
:1026200070E08BE395E00E94BE191092C701809183
:10263000C1018093BD018091C0018093BC01809154
:10264000C801823089F48091BB0187FD8F5F859539
:102650008195885F8093BD018091BA0187FD8F5F6E
:10266000859588508093BC01C090B501D090B6018B
:10267000E090B701F090B8010E9495310091A5015A
:102680001091A6012091A7013091A80146015701A0
:10269000801A910AA20AB30A95018401060F171F36
:1026A000281F391F0093B5011093B6012093B7017D
:1026B0003093B801C090B101D090B201E090B30165
:1026C000F090B4010E9495310091A5011091A601EE
:1026D0002091A7013091A80146015701801A910A63
:1026E000A20AB30A95018401060F171F281F391F7C
:1026F0000093B1011093B2012093B3013093B40160
:1027000080911C018F3F21F48091C801823031F00B
:102710008091CE01811102C00E942D108091D001C4
:102720008111CFC08091CB018111CBC080919B01E1
:1027300090911F01891739F080931F018091C50185
:102740008F5F8093C5018091CE01813031F410926A
:10275000CE010E9497070E942D108091250188309C
:1027600051F09091C50180911E01981724F00E94AC
:1027700097070E942D1080911C018F3F09F4A1C082
:102780008091C801823029F48091C601823008F01E
:1027900098C00E949531C090B501D090B601E090EC
:1027A000B701F090B8016C157D058E059F0508F402
:1027B00088C00E94EA020E949531C0901C01DD246D
:1027C000C7FCD094ED2CFD2C6C0D7D1D8E1D9F1D26
:1027D0006093B5017093B6018093B7019093B801EF
:1027E0008091C2018F5F8093C2010E942D1069C049
:1027F00085E00E941E33892B09F0C1CE8091D10162
:102800008111BDCE10912901113009F0B8CE10937D
:10281000D1010E9495316854744F8F4F9F4F609340
:10282000A9017093AA018093AB019093AC018091B0
:10283000D001811121C01093D0010E949531609385
:10284000A5017093A6018093A7019093A8018091A0
:10285000BD018093C1018091BC018093C0011092A1
:10286000BD011092BC018091E404882371F081EED7
:1028700094E00E945E2209C08091C7018F5F80931F
:10288000C701843010F01092C7018091C7018111F7
:102890003DCE6AE274E0CE0101960E942D3B80910C
:1028A000270149CE1092D101109229010E94953141
:1028B0006093AD017093AE018093AF019093B0012E
:1028C0006DCE69960FB6F894DEBF0FBECDBFDF9117
:1028D000CF911F910F91FF90EF90DF90CF90BF901D
:1028E000AF909F908F9008958091CB01811102C08D
:1028F0000C9452110E94A40C8091CB01811104C050
:102900000E9497070C942D100895CF93DF931F9288
:10291000CDB7DEB78091180890911908009711F48F
:102920008CE198E09E012F5F3F4F922F981B892FDB
:102930000F90DF91CF91089569EA70E08BE797E0FF
:102940000E9481350E948514682F772767FD709556
:102950004AE050E08BE797E00E94A4360E9485147D
:10296000482F552747FD50952091240130E042170C
:10297000530714F48093240168E970E08BE797E033
:102980000E9481354AE050E0609124018BE797E096
:102990000C94C936F89414BEE0E6F0E080818861BA
:1029A000808380E4808378940895CF93DF93CDB7BC
:1029B000DEB729970FB6F894DEBF0FBECDBF61E03A
:1029C00083E00E94AF3264E670E083E00E94273229
:1029D00080918E01811145C01092800110927F017B
:1029E0008FEF80938301809384018093850180938E
:1029F0008601809387018093880181E0809389011B
:102A000010928B0110928A01109282011092810122
:102A10008091690790916A07892B31F48DE791E0E5
:102A200090936A0780936907E0916707F0916807C0
:102A3000309721F08DE791E0958384838DE791E0D5
:102A4000909368078093670710928D0110928C0114
:102A500087E391E090937E0180937D0181E08093F4
:102A60008E0120E030E040E051E06DED71E08DE757
:102A700091E00E946D2FFC018FEF868380EB8783AE
:102A800080EF80870E94CA1460E084E00E94AF3229
:102A900060E085E00E94AF3261E084E00E94E832AD
:102AA00061E085E00E94E83226E040E051EE60E01F
:102AB00070E08BE797E00E942C340E949C140E94E7
:102AC000241BC12CE12C00E021E041E06FED77E018
:102AD000CE0101960E94101BCE0101960E943E1B62
:102AE00060E070E08BE395E00E94BB199FEF980FC8
:102AF000973010F48093270161E070E08BE395E05C
:102B00000E94BB19833010F48093C80162E070E02A
:102B10008BE395E00E94BB199FEF980F983010F45B
:102B2000809325010E94C80290912601809127017F
:102B3000989F802D112480936B0760E08BE697E0CF
:102B40000E940D318BE697E00E94C40284E00E944F
:102B50001E33892B31F485E00E941E33892B09F442
:102B6000FFCF85E00E941E33892B71F481E08093B2
:102B700027018091260180936B071092C80182E0A3
:102B8000809325010E94C80284E00E941E33892B95
:102B900019F481E08093CD0168EA74E08BE797E057
:102BA0000E94813540E069E08CEF94E00E94342778
:102BB000811108C063EA74E08BE797E00E94C33597
:102BC0000E941A036FE974E08BE797E00E94C33517
:102BD000F12C70E8E72EDD24DA940F2D112707FD84
:102BE000109521E0A8016FE175E081EE94E00E946C
:102BF00046258091E404823008F443C06BE974E018
:102C00008BE797E00E94C3358091CD01813099F424
:102C10008091C401992787FD9095FC01EE0FFF1F5D
:102C2000E80FF91FE352FE4FE082D18212828BE659
:102C300097E00E94C4028091C4018F5F8093C40119
:102C40006EE874E08BE797E00E9481354AE050E03F
:102C5000B8018BE797E00E94A436BE016F5F7F4FFB
:102C600081EE94E00E94111F65E874E08BE797E025
:102C70000E948135BE016F5F7F4F8BE797E00E9416
:102C8000D53581EE94E00E945E22F394A6CF1F9288
:102C90000F920FB60F9211248F938091840080932E
:102CA000DC0181E08093DB018F910F900FBE0F90CC
:102CB0001F9018956F927F928F929F92AF92BF92C2
:102CC000CF92DF92EF92FF920F931F93CF93DF93F8
:102CD000EC01E881F9819BB190648BB18F7B8BB95A
:102CE00078842D81F72CF21AFD82A881B981119682
:102CF0003C91332329F00F2D300F08F43FEF01C032
:102D000030E02B85132F129F112D1124812E6D84FD
:102D1000AA81BB814A855C85DC80CE80EF80C98535
:102D2000912CA12CB12CD0E08D0101501109AB2BBD
:102D300009F4A9C1372D3F19F32E6E2D6D19D62E2A
:102D40007C2F7C19C72E0014D8010D2F392D182D7A
:102D50006B2D7A2D9BB9002C002C17FF8BB90081AD
:102D60006627889400C000C0002C8BB901110D0D9E
:102D700000C0002C9BB9002C002C16FF8BB908F466
:102D80000FEF889400C000C0002C002C8BB940FDD0
:102D9000600F00C0002C9BB9002C002C15FF8BB9D4
:102DA0006795889441FD600F00C000C0002C8BB96E
:102DB0006795889400C0002C9BB9002C002C14FF50
:102DC0008BB942FD600F6795889400C000C0002C4D
:102DD0008BB943FD600F00C0002C9BB9002C002C68
:102DE00013FF8BB96795889444FD600F00C000C045
:102DF000002C8BB96795889400C0002C9BB9002CDF
:102E0000002C12FF8BB945FD600F6795889400C0B8
:102E100000C0002C8BB946FD600F00C0002C9BB990
:102E2000002C002C11FF8BB96795889447FD600F2B
:102E300000C000C0002C8BB96795889400C0002C9E
:102E40009BB9002C002C10FF8BB900C000C000C043
:102E500000C0002C8BB900C000C0002C9BB9002C16
:102E6000002C67FF8BB902817727889400C000C0CF
:102E7000002C8BB901110C0D00C0002C9BB9002C4B
:102E8000002C66FF8BB908F40FEF889400C000C0D7
:102E9000002C002C8BB950FD700F00C0002C9BB98A
:102EA000002C002C65FF8BB97795889451FD700F2D
:102EB00000C000C0002C8BB97795889400C0002C0E
:102EC0009BB9002C002C64FF8BB952FD700F7795D5
:102ED000889400C000C0002C8BB953FD700F00C057
:102EE000002C9BB9002C002C63FF8BB9779588943C
:102EF00054FD700F00C000C0002C8BB977958894EA
:102F000000C0002C9BB9002C002C62FF8BB955FD32
:102F1000700F7795889400C000C0002C8BB956FDC7
:102F2000700F00C0002C9BB9002C002C61FF8BB9E6
:102F30007795889457FD700F00C000C0002C8BB9A6
:102F40007795889400C0002C9BB9002C002C60FF62
:102F50008BB9E60DF11D889400C000C0002C002C38
:102F60008BB900C000C0002C9BB9002C002C77FF4F
:102F70008BB901811127889400C000C0002C8BB947
:102F800001110F0D00C0002C9BB9002C002C76FF06
:102F90008BB908F40FEF889400C000C0002C002CFF
:102FA0008BB920FD100F00C0002C9BB9002C002C09
:102FB00075FF8BB91795889421FD100F00C000C0D4
:102FC000002C8BB91795889400C0002C9BB9002C5D
:102FD000002C74FF8BB922FD100F1795889400C048
:102FE00000C0002C8BB923FD100F00C0002C9BB932
:102FF000002C002C73FF8BB91795889424FD100FBB
:1030000000C000C0002C8BB91795889400C0002C1C
:103010009BB9002C002C72FF8BB925FD100F179562
:10302000889400C000C0002C8BB926FD100F00C092
:10303000002C9BB9002C002C71FF8BB9179588943C
:1030400027FD100F00C000C0002C8BB91795889485
:1030500000C0002C9BB9002C002C70FF8BB900C065
:1030600000C000C000C0002CD02F932E012F162FBF
:10307000372F6D2F792D8BB9972ED62FA32EB12EEA
:10308000802E002C51CEDF91CF911F910F91FF9098
:10309000EF90DF90CF90BF90AF909F908F907F90F8
:1030A0006F900895FF920F931F93CF93DF93EC01DE
:1030B00080917C018F5F982F977090937C0180FDA9
:1030C00002C080E001C080E891FD8064947009F046
:1030D0008062E0E1FE2EF80E20E030E000E011E03A
:1030E000FE01E20FF31F6285662331F070E0C80134
:1030F0000E94FF396F5F01C060E067834F2D469FDC
:10310000412D11244483662311F0615067832F5FA2
:103110003F4F2330310521F7DF91CF911F910F9160
:10312000FF900895AF92BF92CF92DF92EF92FF92FD
:103130000F93CF93DF93CDB7DEB72E970FB6F894EA
:10314000DEBF0FBECDBF6C015A01F901DC011C9638
:103150008C917A8369835C834B8390819B87918177
:103160009C8792819D87813029F4CE0101960E942F
:10317000521806C01A86198618861F821E821D8262
:1031800089819A818E0D911D9A838983002319F07C
:1031900083E08E0D01C080E08E870E94A131F60190
:1031A00027853089621B730B6A307105B0F3F89480
:1031B000CE0101960E945A1620EE31E0D5010E9400
:1031C000713A24E096958795779567952A95D1F77A
:1031D00020E030E04AE9A49E212DB49E200D311D4F
:1031E0001124620F731F811D911D693EF3E07F075B
:1031F00081059105A8F1DC01CB01885E9340A1090E
:10320000B109F2E0B695A79597958795FA95D1F70C
:1032100040E050E027E0829F412D929F400D511DDC
:10322000112420913A0530E0280F391F240F351F53
:103230008091730790917407A0917507B0917607FC
:10324000432F5527840F951FA11DB11D8093730730
:1032500090937407A0937507B093760720933A056F
:1032600078940E94A131D60150967C936E931F975B
:103270002E960FB6F894DEBF0FBECDBFDF91CF9173
:103280000F91FF90EF90DF90CF90BF90AF90089597
:10329000EF92FF920F93E12CF12C00E00E94921824
:1032A0000F91FF90EF900895EF92FF920F93E12C12
:1032B000F12C01E00E9492180F91FF90EF90089579
:1032C000EF92FF920F93CF93DF9300D01F92CDB771
:1032D000DEB7AB0119821A821B82E12CF12C00E0CF
:1032E0009E012F5F3F4FB9010E9492180F900F90DF
:1032F0000F90DF91CF910F91FF90EF90089589E1AA
:103300008093FD04109200051092180510921F057D
:10331000109222051092E1041092E4041092E0044D
:103320001092DF0481E591E09093DE048093DD0448
:103330001092D3011092D4011092D50140E050E0D8
:10334000BA0186E991E00C94B21A61E08AE00E9429
:10335000E83261E08AE00E94AF328CB580618CBDBA
:103360008CB580648CBD61E08DE00E94AF3261E07D
:103370008BE00C94AF32CB010C94D03BCB01642F8B
:103380000C94D83B85ED8093BC008091BC0084FDFB
:10339000FCCF10923F0508958A3040F590913F058B
:1033A0009111FCCF92E090933F059FEF90933E05E3
:1033B0001092400580933D0580ED80933C0585EE9D
:1033C0008093BC0080913F058230E1F380913E05FF
:1033D0008F3F71F080913E05803261F080913E0513
:1033E000803311F483E0089584E0089581E0089526
:1033F00080E0089582E008956A3010F590913F05CD
:103400009111FCCF91E090933F059FEF90933E0583
:1034100010924005960F90933D05880F8160809330
:103420003C0585EE8093BC0080913F058130E1F33F
:1034300080914005861710F460914005862F08950D
:1034400080E008951F920F920FB60F9211242F93D0
:103450003F934F935F936F937F938F939F93AF931C
:10346000BF93EF93FF938091B900887F883251F129
:1034700070F4803121F130F4882309F45EC0883083
:10348000F1F05FC08831F1F0803279F15AC08034B8
:10349000D9F168F4803349F1883309F052C0809340
:1034A0003E0585EC8093BC0010923F054AC08035F4
:1034B000F9F08835A9F1883409F043C040C0809103
:1034C0003C0510C09091400580913D059817B8F5D6
:1034D000E091400581E08E0F80934005F0E0EF5BC6
:1034E000FA4F80818093BB0017C080933E0527C0B0
:1034F000E091400581E08E0F80934005F0E08091DF
:10350000BB00EF5BFA4F80839091400580913D05B1
:10351000981710F085E801C085EC8093BC0011C0BD
:10352000E091400581E08E0F80934005F0E08091AE
:10353000BB00EF5BFA4F808302C010923E050E94F1
:10354000C219FF91EF91BF91AF919F918F917F91A0
:103550006F915F914F913F912F910F900FBE0F9000
:103560001F901895CF92DF92EF92FF92CF93DF9347
:10357000EC01405853446D4678438CE3C82ED12C5F
:10358000E12CF12CCB01BA01A70196010E94133A5C
:103590006D83CA01B901A70196010E94133A6C8399
:1035A000CA01B90128E130E040E050E00E94133A3E
:1035B0006B83188243E95EEFE8818E2F8370A1E070
:1035C00009F0A0E08A2F90E0BC0163597E4F2617D6
:1035D000370740F0BA01681B790B260F371FEF5FE2
:1035E000E883EACF81E089838981E82FF0E0EF5416
:1035F000FB4FE491AA2319F0823009F4EF5FF0E069
:103600002E173F0720F02E1B3F0B8F5FECCF2F5F55
:103610002A83DF91CF91FF90EF90DF90CF900895B4
:10362000CF92EF920F93FC01603D87E0780710F096
:10363000605D77406083418322830383E482C58297
:103640000F91EF90CF90089510923F0561E082E1D5
:103650000E94E83261E083E10E94E832E9EBF0E0A9
:1036600080818E7F808380818D7F808388E48093BA
:10367000B80085E48093BC0081E00895FC011092BD
:10368000410535812AE0832F622F0E94DF39982F70
:10369000990F980F990F930F909342053481832FC0
:1036A0000E94DF39982F990F980F990F930F9093DD
:1036B00043053381832F0E94DF39982F990F980F8C
:1036C000990F930F90934405109245053281832FF3
:1036D0000E94DF39982F990F980F990F930F9093AD
:1036E00046053181832F0E94DF39982F990F980F5B
:1036F000990F930F909347053081832F0E94DF39F4
:10370000982F990F980F990F930F90934805109247
:10371000490589E00C94CC190F931F93CF93DF9345
:1037200000D000D000D0CDB7DEB701E415E0F8013D
:10373000108281E00E94CC1967E088E60E94FC19A3
:10374000F80170817F776091420550914305409167
:1037500045053091460520914705922F92959F701F
:103760008AEF989F200D1124932F92959F70989F18
:10377000300D1124942F92959F70989F400D112425
:10378000952F92959F70989F500D1124962F92958A
:103790009F70989F600D1124972F92959F70989F0E
:1037A000700D112480E090E026960FB6F894DEBFED
:1037B0000FBECDBFDF91CF911F910F9108958091E2
:1037C000C10085FDFCCF8091C00085FFF8CF6093DC
:1037D000C60081E090E0089510924D0510924C05CE
:1037E00083E491E090934B0580934A0508959CB53E
:1037F0009F7D9CBD9CB5937F9CBD8695863048F48B
:10380000E82FF0E0E95BFE4F8081992787FD9095D6
:1038100002C083E090E02CB5982F93702C7F922B00
:103820009CBD9DB582FB882780F99E7F982B9DBD0E
:1038300008958EBD00000DB407FEFDCF8EB508952E
:103840008FEF0C94191C61E0FC0180810E94E8322A
:103850008FEF0C94191CCF93DF93EC018A810E94A7
:10386000F71B60E08881DF91CF910C94E832CF9212
:10387000DF92EF92FF920F931F93CF93DF93EC01B0
:103880006B018A010E9495317B010E94201C8B8371
:103890008F3F49F40E9495316E197F096D32714056
:1038A000A0F381E107C08E3F21F476010C0D1D1DB0
:1038B00007C08FE08983CE010E94231C80E013C0E3
:1038C000E016F10639F08FEF0E94191CF701819381
:1038D0007F01F6CF1B820E94201C0E94201CCE017B
:1038E0000E94231C81E0DF91CF911F910F91FF90E7
:1038F000EF90DF90CF9008950F931F93CF93DF93B6
:10390000EB010E9495318B010E94201C8F3F49F0F2
:103910000E949531601B710B6C177D07A8F380E046
:1039200001C081E0DF91CF911F910F910895FF9227
:103930000F931F93CF93DF9300D000D0CDB7DEB7A6
:103940008C01F62E29833A834B835C830E942B1CC7
:103950006CE271E0C8010E947C1C8F2D80640E9483
:10396000191C8C810E94191C8B810E94191C8A8150
:103970000E94191C89810E94191CF11002C085E95E
:1039800001C087E80E94191C8CE0F81202C00E9456
:10399000201CF12C0E94201CF801838387FF05C0A6
:1039A000FFEFFF1611F0F394F5CF0F900F900F90EB
:1039B0000F90DF91CF911F910F91FF900895BF92CB
:1039C000CF92DF92EF92FF920F931F93CF93DF93EB
:1039D000EC01B62E1C82198248830E9495318B011E
:1039E00061E088810E94AF3261E088810E94E83204
:1039F0000E94A5198BE08A830E94F71B2AE0F22E11
:103A00008FEF0E94191CFA94D9F720E030E0A90149
:103A100060E0CE010E94971C813049F00E949531F0
:103A2000601B710B613D774080F381E051C02AEA51
:103A300031E040E050E068E0CE010E94971C853004
:103A400011F481E00AC094E0F92E0E94201C8B83BF
:103A5000FA94D9F78A3A59F482E08C838C818230C7
:103A600079F4C12CD12CE12C80E4F82E0CC00E94FA
:103A70009531601B710B613D7740C8F282E028C030
:103A8000C12CD12C760120E030E0A90167E3CE0102
:103A90000E94971CA701960169E2CE010E94971C23
:103AA000882349F00E949531601B710B613D77407E
:103AB00050F38AE00DC08C818230E1F420E030E0E8
:103AC000A9016AE3CE010E94971C882331F088E0A7
:103AD0008983CE010E94231C19C00E94201C807C77
:103AE000803C11F483E08C830E94201C0E94201CE7
:103AF0000E94201CCE010E94231C8EE08B1518F41E
:103B000088E1898303C0BA8281E001C080E0DF914F
:103B1000CF911F910F91FF90EF90DF90CF90BF90CA
:103B200008950F931F93CF93DF93EC0189018C814C
:103B3000833039F039E0440F551F661F771F3A95DF
:103B4000D1F79A01AB0161E1CE010E94971C81116E
:103B50000AC040E052E0B801CE01DF91CF911F9141
:103B60000F910C94371C84E08983CE010E94231CA2
:103B700080E0DF91CF911F910F910895CF92DF9256
:103B8000EF92FF920F931F93CF93DF9300D0CDB7A7
:103B9000DEB78C01862F49835A830E94191C498104
:103BA000C42E5A81D52EE12CF12CF60181916F01A2
:103BB0000E94191CFFEFEF1AFF0AE11482E0F806D9
:103BC000A1F78FEF0E94191C8FEF0E94191C0E9411
:103BD000201CF80183838F71853039F083E1818364
:103BE000C8010E94231C80E001C081E00F900F906B
:103BF000DF91CF911F910F91FF90EF90DF90CF90C9
:103C000008950F931F93CF93DF93EC0189018C816B
:103C1000833039F089E0440F551F661F771F8A955E
:103C2000D1F79A01AB0168E1CE010E94971C88236D
:103C300011F086E023C0A8016EEFCE010E94BE1DE8
:103C40008823E9F068E572E0CE010E947C1C182F01
:103C5000811102C087E112C020E030E0A9016DE0CF
:103C6000CE010E94971C811108C00E94201C811166
:103C700004C0CE010E94231C06C086E18983CE01C8
:103C80000E94231C10E0812FDF91CF911F910F9193
:103C90000895CF93DF93EC019C01295F3F4F41E0F2
:103CA00050E060E070E08D819E810E946A29882347
:103CB00099F04F89588D698D7A8D452B462B472B6E
:103CC00059F44F81588569857A854F8B588F698F54
:103CD0007A8F998190689983DF91CF910895BF92EF
:103CE000CF92DF92EF92FF920F931F93CF93DF93C8
:103CF000EC018B899C89AD89BE89803E9F4FAF4185
:103D0000B105A8F4CE010E94491E882381F04F819D
:103D1000588569857A858D819E810E9466286B0110
:103D20007C0145E00E9412288C01009719F480E084
:103D300090E037C080E092E0F8019C0111922150A0
:103D40003040E1F7BB24B394ED81FE818481B81645
:103D500088F49801B701A6014B0D511D611D711D1D
:103D600080915205909153050E94011E8823F9F21B
:103D7000B394EACF90E0A0E0B0E029E0880F991F6B
:103D8000AA1FBB1F2A95D1F74B895C896D897E8953
:103D9000480F591F6A1F7B1F4B8B5C8B6D8B7E8B73
:103DA000C801DF91CF911F910F91FF90EF90DF90AD
:103DB000CF90BF900895CF93DF93EC01462F6F858E
:103DC000788989899A890E941228009739F02C8174
:103DD00030E2239F800D911D112402C080E090E00D
:103DE000DF91CF91089530E020E04EE2DC015C915C
:103DF000503271F0383029F4FB01E20FF11D40839D
:103E00002F5FFB01E20FF11DDC015C9150832F5FFE
:103E10003F5F01963B3051F7FB01E20FF11D10822D
:103E20000895CF93DF93EB01FC012381211102C0A0
:103E300080E010C02250223020F48FE28883198263
:103E400008C060E00E94DB1E009791F3BE010E9453
:103E5000F31E81E0DF91CF910895FB012BE030E26A
:103E600031932150E9F7DC0190E027E03A2FEB2F66
:103E70008D9181110AC0DA013C931196EC9381E097
:103E8000FB019081903239F525C08F32A1F38E323B
:103E900019F0EEEBF4E008C02A30E1F098E02AE0F7
:103EA000E5CF31963817B1F034913111FACF291797
:103EB00088F03FED380F3E3568F431E0390FFB01F3
:103EC000E90FF11D9FE9980F9A3108F48052808321
:103ED000932FCCCF80E008952F923F924F925F9224
:103EE0006F927F928F929F92AF92BF92CF92DF920A
:103EF000EF92FF920F931F93CF93DF9300D000D0E8
:103F0000CDB7DEB79C838B836B017A01FC01838183
:103F1000811103C08FEF9FEFD2C0EB81FC818181C3
:103F200080FFF8CFEB81FC814389548965897689CC
:103F300083859485A585B6854701A12CB12C8A017E
:103F40009B01081B190B2A0B3B0B80169106A2063E
:103F5000B30618F07A01E81AF90A87018B819C816F
:103F600007969A838983812CF2E09F2E0115110513
:103F700009F46BC0EB81FC814385548565857685AA
:103F80005A01F1E0BF22EB81FC8185819681FC0121
:103F900074801A012B01E9E05694479437942794D2
:103FA000EA95D1F7EB81FC812381223051F4FC01A9
:103FB000628D738D848D958D620D731D841D951D8D
:103FC0002FC07A947220A114B104E1F471101AC0C8
:103FD000EB81FC81452B462B472B49F48789908D3B
:103FE000A18DB28D87839087A187B2870BC047814F
:103FF00050856185728529813A810E947E288823B7
:1040000009F488CFEB81FC814781508561857285F9
:10401000858196810E946628670D711D811D911D05
:10402000A114B104A1F40115F2E01F0780F0409043
:10403000590550905A0560905B0570905C056415B9
:10404000750586059705C9F402C0C70138C09401FB
:104050002A193B0938012017310708F4390140E0DB
:104060000E941228009709F455CFBC016A0D7B1DF0
:10407000A301C6010E94413B0FC09601AB01BC01E8
:1040800080915205909153050E94911D882309F457
:1040900041CF612C62E0762EC60CD71CEB81FC81EF
:1040A00083859485A585B685860D971DA11DB11DB7
:1040B00083879487A587B6870619170957CF0F906E
:1040C0000F900F900F90DF91CF911F910F91FF9064
:1040D000EF90DF90CF90BF90AF909F908F907F90A8
:1040E0006F905F904F903F902F900895CF93DF9304
:1040F0001F92CDB7DEB741E050E0BE016F5F7F4F4A
:104100000E946C1F019719F4898190E002C08FEF23
:104110009FEF0F90DF91CF9108951F93CF93DF937F
:10412000EC018B81823018F480E090E024C04B8554
:104130005C856D857E85B5E0769567955795479545
:10414000BA95D1F7142F1F70CE010E94762097FDEB
:10415000EBCF4B855C856D857E85415E5F4F6F4FF4
:104160007F4F4B875C876D877E8720E2129FC0015F
:104170001124835A9A4FDF91CF911F9108954F9246
:104180005F926F927F92AF92BF92CF92DF92EF9247
:10419000FF920F931F93CF93DF93EC016A017B0192
:1041A0002B81222349F08B899C89AD89BE89841794
:1041B0009507A607B70710F480E06CC0223009F419
:1041C00064C0C114D104E104F10449F41F821886CB
:1041D00019861A861B861C861D861E865AC08B85EC
:1041E0009C85AD85BE85ED81FE81E585F0E0399643
:1041F000AC01BD0141505109610971090E2E04C085
:1042000076956795579547950A94D2F79701860159
:10421000015011092109310904C0369527951795D8
:104220000795EA95D2F7041715072607370720F0F8
:10423000892B8A2B8B2B49F48F89988DA98DBA8D68
:104240008F839887A987BA8704C0041B150B260B98
:10425000370B280139015E0187E0A80EB11C41141B
:1042600051046104710489F04F81588569857A850C
:1042700095018D819E810E947E2891E0491A510806
:10428000610871088111EBCF05C0CB86DC86ED8615
:10429000FE8681E0DF91CF911F910F91FF90EF900B
:1042A000DF90CF90BF90AF907F906F905F904F90D6
:1042B0000895AF92BF92CF92DF92EF92FF920F9349
:1042C0001F93CF93DF9300D000D0CDB7DEB78C0122
:1042D000FC018789908DA18DB28D89839A83AB83F0
:1042E000BC83A12CB12C49815A816B817C819E01B8
:1042F0002F5F3F4FD80115968D919C9116970E9484
:104300007E288823C1F1D8011596ED91FC9116976E
:104310008481A80EB11CA114B0E1BB0658F5C98078
:10432000DA80EB80FC808789803149F481E0E8EF16
:10433000CE16EFEFDE06E104F10450F4D4CF81E0B5
:10434000F8EFCF16FFEFDF06EF06FFE0FF0658F2AB
:10435000A50160E070E099E0440F551F661F771FCC
:104360009A95D1F7D80153964D935D936D937C93B5
:10437000569701C080E00F900F900F900F90DF9143
:10438000CF911F910F91FF90EF90DF90CF90BF9052
:10439000AF900895CF93DF93EC01FB018B818823CD
:1043A00011F080E03CC07E836D838789803109F104
:1043B0008032B9F783E08B83428D538D648D758D88
:1043C0004F8B588F698F7A8FCE010E945921882395
:1043D00041F381E089831F82188619861A861B861D
:1043E0001C861D861E861F86188A198A1A8A1C82B8
:1043F00016C082E08B831F8A188E198E1A8E408D0C
:10440000518D60E070E025E0440F551F661F771F57
:104410002A95D1F74B8B5C8B6D8B7E8BDACFDF913E
:10442000CF9108950F931F93CF93DF93EC018B816E
:104430008823E1F1898187FF33C061E0CE010E94CA
:10444000DB1E8C01009791F1FC018081853E71F1AA
:104450008B81823040F44B895C896D897E89448FE1
:10446000558F668F778F4F89588D698D7A8DF801BA
:10447000538F428F758B648BE0914E05F0914F0501
:10448000309759F0B8016A5E7F4FC8014896099588
:10449000F801808D918D938B828B89818F778983B1
:1044A000DF91CF911F910F910C94C22781E08883F7
:1044B00080E0DF91CF911F910F910895CF93DF930B
:1044C000EC010E9412221B82DF91CF9108954F923E
:1044D0005F926F927F92AF92BF92CF92DF92EF92F4
:1044E000FF920F931F93CF93DF9300D000D0CDB7EF
:1044F000DEB75C016A017B01FC0183818130F1F44C
:10450000818181FF1BC0F50183899489A589B689C2
:1045100084179507A607B70788F0892B8A2B8B2B62
:1045200009F479C0F5014384548465847684B70125
:10453000A601C5010E94BF20811102C080E06CC0AD
:10454000F50185819681C114D104E104F10471F46F
:104550004789508D618D728D0E94772A882371F36F
:10456000F501178A108E118E128E3AC0F50147811F
:104570005085618572859E012F5F3F4F0E947E2886
:104580008823E1F249815A816B817C81F501858123
:104590009681FC012789203139F4483FFFEF5F07FE
:1045A00061057105E8F407C0483F2FEF5207620725
:1045B0002FE07207A8F40E94772A882309F4BECF5F
:1045C000F50147815085618572850FEF1FEF2FEF51
:1045D0003FE0858196810E94F728882309F4AECFB9
:1045E000F501C38AD48AE58AF68A8181806881834D
:1045F000C5010E941222882309F4A0CFB701A601A9
:104600004C145D046E047F0410F4B301A201C501D3
:104610000E94BF2001C081E00F900F900F900F907B
:10462000DF91CF911F910F91FF90EF90DF90CF908E
:10463000BF90AF907F906F905F904F900895BF9222
:10464000CF92DF92EF92FF920F931F93CF93DF935E
:10465000EC01B42E80E2689FF0011124E35AFA4F76
:104660008385817121F0842F827109F04BC0809184
:10467000590590915A05A0915B05B0915C058F8713
:10468000988BA98BBA8B6C830489158920E030E064
:10469000980111270027C28CD38CE12CF12C0C2916
:1046A0001D292E293F290F8B188F298F3A8F83853B
:1046B000887151F4048D158D268D378D0B8B1C8BD5
:1046C0002D8B3E8B81E008C08031E1F4CE010E9449
:1046D00059218823B9F084E08B838B2D8F708983D7
:1046E0001F82188619861A861B861C861D861E86C2
:1046F000B4FE0BC040E050E0BA01CE010E94672238
:10470000811103C01B8280E013C0B5FE10C04B892D
:104710005C896D897E89CE01DF91CF911F910F91C8
:10472000FF90EF90DF90CF90BF900C94BF2081E07E
:10473000DF91CF911F910F91FF90EF90DF90CF907D
:10474000BF900895AF92BF92CF92DF92EF92FF9207
:104750000F931F93CF93DF937C01EB016A01B22E7D
:104760008D819E81F7019683858340E050E0BA01F8
:10477000CE010E94BF20A12C0B851C852D853E8576
:104780008B899C89AD89BE89081719072A073B07C1
:10479000A8F5B5E03695279517950795BA95D1F701
:1047A0000F70CE010E948D20009709F484C0FC0197
:1047B0002081222311F0253EB9F4A1100EC04091B2
:1047C000590550915A0560915B0570915C05F701A0
:1047D0004787508B618B728B0483FC018081AA24F4
:1047E000A3948111C9CF0AC04BE050E0BC01C601BF
:1047F0000E94343B892B09F0BFCF5BC08B2D8274A4
:10480000823409F058C0AA2051F0F701048161E018
:10481000C7010E94DB1EEC01009769F44CC08B813C
:10482000823009F448C0CE010E946F1E009709F43F
:1048300042C0EC0100E080E2FE0111928A95E9F7A6
:104840008BE0F601DE0101900D928A95E1F7E0918F
:104850004E05F0914F05309739F0BE01625F7F4FF2
:10486000CE014096099508C081E298E2998B888B29
:1048700080E098E09F878E87888999899B8B8A8BB7
:10488000998F888F8E859F859F8B8E8B0E94C227E4
:10489000882389F04B2D602FC701DF91CF911F91A5
:1048A0000F91FF90EF90DF90CF90BF90AF900C945E
:1048B0001F23B7FEEFCF80E0DF91CF911F910F91C3
:1048C000FF90EF90DF90CF90BF90AF9008953F9210
:1048D0004F925F926F927F928F929F92AF92BF9210
:1048E000CF92DF92EF92FF920F931F93CF93DF93BC
:1048F000CDB7DEB7C354D1090FB6F894DEBF0FBEF3
:10490000CDBF5C016B0124965FAF4EAF2497522E52
:104910001C8E1F8E19821C826115710511F480E0B6
:1049200077C0FC0183818111FACF2496EEADFFADF3
:10493000249780818F3211F076011EC02496EEAD4F
:10494000FFAD249780818F3231F431962496FFAFEA
:10495000EEAF2497F3CFF60183818250823060F36B
:10496000F60165817681CE0101960E94CA218823D5
:10497000B1F2CE0101967C018E01045E1F4F380119
:10498000FE0131964F01402E312E1BC08823C1F10C
:1049900021E0AE01495C5F4FB701C8010E94A2232C
:1049A000882309F4BCCFEC14FD0419F0C7010E9460
:1049B0005E220615170509F1942D832D7801092F24
:1049C000182FAE014E5B5F4FBE01695C7F4F24968E
:1049D0008EAD9FAD24970E942D1F882309F49FCF91
:1049E0002496EEADFFAD249780818F3279F6319613
:1049F0002496FFAFEEAF2497F3CF982D892DDECF0D
:104A0000252DAE01495C5F4FB701C5010E94A2236D
:104A1000CD5BDF4F0FB6F894DEBF0FBECDBFDF9189
:104A2000CF911F910F91FF90EF90DF90CF90BF90AB
:104A3000AF909F908F907F906F905F904F903F903E
:104A40000895CF93DF93CDB7DEB76B970FB6F89489
:104A5000DEBF0FBECDBFAB0119821C8221E0BC01BD
:104A6000CE0101960E9467246B960FB6F894DEBFC4
:104A70000FBECDBFDF91CF910895FB01242F609130
:104A8000500570915105AF010C946724DF92EF92AD
:104A9000FF920F931F93CF93DF938C01EB017A0169
:104AA000D22E8D819E81F801968385838381811129
:104AB0002BC0209749F127FD27C0A70185E0440FAF
:104AC000551F8A95E1F760E070E0CE010E94BF209B
:104AD0008823D1F0CE010E948D200097A9F0FC011F
:104AE0008081882389F0853E79F08E3269F06E2DC1
:104AF0006F704D2DC801DF91CF911F910F91FF90E5
:104B0000EF90DF900C941F2380E0DF91CF911F91F5
:104B10000F91FF90EF90DF9008952F923F924F9268
:104B20005F926F927F928F929F92AF92BF92CF923D
:104B3000DF92EF92FF920F931F93CF93DF93CDB746
:104B4000DEB760970FB6F894DEBF0FBECDBF8C0105
:104B50005B011A01DC0113968C9113978130C9F423
:104B600011968C9181FF15C082FF19C0F80143890D
:104B700054896589768983859485A585B68584174A
:104B80009507A607B70759F0C8010E94BF208111F9
:104B900006C081E0F80180838FEF9FEF2EC1710185
:104BA00078C0D8011596ED91FC91169754805A94CF
:104BB000DB01CA0169E0B695A795979587956A9537
:104BC000D1F758226A01B1E0DB22552009F46DC00B
:104BD000D80117964D915D916D917C911A9715961C
:104BE0008D919C9116970E946628650D711D811DFF
:104BF000911DC114D10409F4A0C020E032E02C19A9
:104C00003D0927012E153F0508F42901C114D104DF
:104C100009F098C0D8011B966D907D908D909C9066
:104C20001E976D827E828F82988653966D907D90BE
:104C30008D909C9056972D813E814F8158852615E9
:104C400037054805590508F47DC045E00E94122843
:104C5000009709F49ECFA201B5018C0D9D1D0E9405
:104C6000413BC40CD51CC11432E0D30609F46CC01E
:104C7000F80183859485A585B685840D951DA11DB4
:104C8000B11D83879487A587B687A40CB51CE4184B
:104C9000F508D8011B964D915D916D917C911E9701
:104CA000E114F10409F07DCF7BC0C114D10409F0F7
:104CB0008FCFD80117964D915D916D917C911A9788
:104CC000411551056105710519F19E012F5F3F4F97
:104CD000CF010E947E28882309F45BCF89819A81C5
:104CE000AB81BC81F80125813681F901278920310A
:104CF00039F4883FFFEF9F07A105B10590F417C075
:104D0000883F2FEF9207A2072FE0B20780F009C07B
:104D1000F8018789908DA18DB28D0097A105B1050D
:104D200031F4C8010E94491E811152CF32CFF801DF
:104D300087839087A187B2874BCFE114B2E0FB064F
:104D400040F45BCF41E082CF0E945628811190CF82
:104D500020CF2091590530915A0540915B05509123
:104D60005C05261737074807590751F469877A8782
:104D70008B879C870E9458289C858B857A856985BE
:104D80009501AB01BC0180915205909153050E94A1
:104D9000011E882309F4FDCE412C52E0552E68CF28
:104DA00053968D919D910D90BC91A02DF80121817C
:104DB00084179507A607B70738F4438B548B658B88
:104DC000768B206821830CC080914E0590914F0511
:104DD000892B31F02114310419F02068F801218366
:104DE000D80111968C9183FD02C0C10106C0C80193
:104DF0000E9412228111F9CFCCCE60960FB6F894A2
:104E0000DEBF0FBECDBFDF91CF911F910F91FF90FD
:104E1000EF90DF90CF90BF90AF909F908F907F905A
:104E20006F905F904F903F902F9008950F931F9336
:104E3000CF93DF938C01EC01A396662321F0D093EE
:104E40005105C0935005F80186A1882319F0CE01C1
:104E50000E945E22B8016B5F7F4FCE01DF91CF9140
:104E60001F910F910C94CA210F931F93CF93DF933F
:104E7000EC01842F462F682FCE010E94DF1C88236F
:104E8000C9F08E010B5F1F4F41E0BE01C8010E94B7
:104E9000D02A882341F061E0CE01DF91CF911F91AC
:104EA0000F910C94162740E0BE01C8010E94D02A41
:104EB0008111F1CF80E0DF91CF911F910F91089583
:104EC000FF920F931F93CF93DF93CDB7DEB76B970E
:104ED0000FB6F894DEBF0FBECDBFFB01F42E1982D2
:104EE0001C8220812F3239F42181211104C0642FCA
:104EF0000E9416271FC08C010D5D1F4F21E0AF01DE
:104F0000B801CE0101960E946724882399F09C8104
:104F1000923078F09BE1FE013196D80101900D921C
:104F20009A95E1F7FF2031F0109351050093500559
:104F300001C080E06B960FB6F894DEBF0FBECDBF08
:104F4000DF91CF911F910F91FF90089583960C945C
:104F50002125CF93DF931F92CDB7DEB7698341E060
:104F600050E0BE016F5F7F4F04960E948D2521E0C7
:104F700030E0019711F020E030E0C9010F90DF919F
:104F8000CF9108950F931F93CF938091580580FF81
:104F900043C04091590550915A0560915B0570914D
:104FA0005C052DE535E080915205909153050E94F6
:104FB000011EC82F811102C0C0E02FC0809158058A
:104FC00081FD06C0809158058E7F8093580525C0CD
:104FD00000915405109155052091560530915705C3
:104FE000011511052105310569F3409159055091CD
:104FF0005A0560915B0570915C05400F511F621F5F
:10500000731F2DE535E080915205909153050E9464
:10501000011E8111D7CFD0CFC1E08C2FCF911F912E
:105020000F910895CF92DF92EF92FF92CF936B0191
:105030007C01C42F8091590590915A05A0915B0580
:10504000B0915C058C159D05AE05BF0509F10E9468
:10505000C227811103C080E090E022C0C2FF0BC0D4
:1050600010925805C0925905D0925A05E0925B05FE
:10507000F0925C050DC02DE535E0B701A6018091E9
:105080005205909153050E94911D8111E9CFE3CF04
:10509000C370809158058C2B809358058DE595E061
:1050A000CF91FF90EF90DF90CF9008950C94C2279E
:1050B0008FEF9FEFDC018093590590935A05A093E1
:1050C0005B05B0935C051092580508950F931F93EC
:1050D000FC014250510961097109A481B0E09A01B3
:1050E000AB010E94783A0685178520893189600FC7
:1050F000711F821F931F1F910F9108958F929F928E
:10510000AF92BF92CF92DF92EF92FF920F931F93D5
:10511000CF93DF93EC016A017B0189014230510595
:105120006105710508F455C089859A85AB85BC85F4
:105130000196A11DB11D84179507A607B70708F4AE
:1051400048C08F89803129F499278F2D7E2D6D2DB0
:105150000BC08032F1F5CB01BA0147E096958795F7
:10516000779567954A95D1F78B889C88AD88BE88DE
:10517000680D791D8A1D9B1D42E00E941228009730
:1051800041F12F89203169F4DD24EE24FF24F6015A
:10519000EE0FFF1FE80FF91F80819181A0E0B0E0C2
:1051A00011C0E894C7F8DD24EE24FF24F601EE0FC9
:1051B000FF1FEE0FFF1FE80FF91F80819181A28171
:1051C000B381BF70F80180839183A283B38381E0B0
:1051D00001C080E0DF91CF911F910F91FF90EF9080
:1051E000DF90CF90BF90AF909F908F9008958F9257
:1051F0009F92AF92BF92CF92DF92EF92FF920F9366
:105200001F93CF93DF93EC016A017B0148015901A1
:10521000423051056105710508F44EC049855A8533
:105220006B857C854F5F5F4F6F4F7F4F4C155D05E2
:105230006E057F0508F440C08F89803129F49927D5
:105240008F2D7E2D6D2D0BC08032B1F5C701B601BB
:10525000E7E09695879577956795EA95D1F70B895D
:105260001C892D893E89600F711F821F931F43E0A7
:105270000E941228009701F12F89203159F4DD2472
:10528000EE24FF24F601EE0FFF1FE80FF91F9182B5
:10529000808210C0E894C7F8DD24EE24FF24F601D4
:1052A000EE0FFF1FEE0FFF1FE80FF91F80829182A4
:1052B000A282B38281E001C080E0DF91CF911F9193
:1052C0000F91FF90EF90DF90CF90BF90AF909F90A5
:1052D0008F9008952F923F924F925F926F927F929C
:1052E0008F929F92AF92BF92CF92DF92EF92FF92F6
:1052F0000F931F93CF93DF93CDB7DEB72F970FB6E2
:10530000F894DEBF0FBECDBF1C014C875D876E8752
:105310007F873B872A87DC0119960D911D912D917E
:105320003C911C970F5F1F4F2F4F3F4F0D831E83E4
:105330002F833887EA85FB8580809180A280B380A7
:1053400081149104A104B10431F0FFEF8F1A9F0A78
:10535000AF0ABF0A10C0DC018D909D90AD90BC904B
:10536000B1E0B9870C851D852E853F85013011057B
:105370002105310509F0198675016401412C512C74
:105380003201F10181859285A385B48548165906BD
:105390006A067B0608F050C00D811E812F8138857A
:1053A0000C151D052E053F0550F4A2E0CA2ED12C88
:1053B000E12CF12CB2E08B2E912CA12CB12C9E0172
:1053C0002F5F3F4FB701A601C1010E947E288823AD
:1053D00099F149815A816B817C81D701C60101967F
:1053E000A11DB11D452B462B472B19F04C015D012A
:1053F0000FC0AC01BD01481959096A097B090C8528
:105400001D852E853F85401751076207730741F0C0
:105410001FEF411A510A610A710A6C017D01B1CF77
:105420000FEF1FEF2FEF3FE0B701A601C1010E9470
:10543000F7288D83811114C01D823FC026013701DA
:1054400021E0421A51086108710897018601B301F1
:10545000A201C1010E94F728882371F37301620140
:105460008C149D04AE04BF0448F3AA85BB854D91FE
:105470005D916D917C914115510561057105A9F40E
:10548000EA85FB8580829182A282B382F985FF231F
:10549000A1F00FEF801A900AA00AB00AD1018D92F4
:1054A0009D92AD92BC92139708C095018401C101F1
:1054B0000E94F7288111E4CFBFCF8D812F960FB6C0
:1054C000F894DEBF0FBECDBFDF91CF911F910F913A
:1054D000FF90EF90DF90CF90BF90AF909F908F9014
:1054E0007F906F905F904F903F902F900895AF9274
:1054F000BF92CF92DF92EF92FF920F931F93CF93C1
:10550000DF9300D000D0CDB7DEB75C016A017B012C
:1055100082E090E0A0E0B0E0F50180839183A28377
:10552000B3839E012F5F3F4FB701A601C5010E94C3
:105530007E28811102C080E024C000E010E09801C4
:10554000B701A601C5010E94F7288823A1F3C980ED
:10555000DA80EB80FC80F5018789803149F481E0B5
:10556000F8EFCF16FFEFDF06E104F10450F4D9CFD6
:1055700081E098EFC9169FEFD906E9069FE0F9068A
:1055800080F20F900F900F900F90DF91CF911F91AD
:105590000F91FF90EF90DF90CF90BF90AF90089564
:1055A0004F925F926F927F92AF92BF92CF92DF92B3
:1055B000EF92FF920F931F93CF93DF93EC01142F81
:1055C00070935305609352051F8A82E090E0A0E03B
:1055D000B0E088839983AA83BB83109258058FEF2C
:1055E0009FEFDC018093590590935A05A0935B05CA
:1055F000B0935C0510925405109255051092560513
:1056000010925705442361F1453008F0D6C040E0C0
:1056100060E070E0CB010E941228009709F4CDC031
:10562000FC0120E1129FE00DF11D1124E255FE4F17
:1056300080818F7709F0C1C044855585668577855F
:10564000443651056105710508F4B7C0C084D184A2
:10565000E284F384C114D104E104F10421F4ADC067
:10566000C12CD12C760140E0C701B6010E9412285E
:10567000FC01009709F4A1C08385948581159240AF
:1056800009F09BC02089222309F497C0868597855D
:10569000892B09F492C08585882309F48EC02A8B52
:1056A00025852C831D8630E041E050E06D85062F76
:1056B000CA01062E02C0880F991F0A94E2F7281724
:1056C000390731F081E0860F8D87683078F375C037
:1056D000268937892115310519F040E050E004C0D2
:1056E00024A135A146A157A12D833E834F8358871E
:1056F0002093540530935505409356055093570514
:105700008685978526013701480E591E611C711C3C
:105710004B8A5C8A6D8A7E8AA188B288B98EA88EEF
:10572000A089B0E00E94783A640D751D861D971D12
:105730006A8F7B8F8C8F9D8F15E0AA0CBB1C1A95EE
:10574000E1F741E0A41A4EEFB40AAB2CBB24A694B7
:10575000DC01CB018A0D9B1DA11DB11D8E879F878A
:10576000A88BB98B438854884114510419F0612CDB
:10577000712C04C040A051A062A073A0A7019601A3
:10578000281B390B4A0B5B0BDA01C901840D951DEF
:10579000A61DB71D04C0B695A795979587950A9540
:1057A000D2F789879A87AB87BC87853F3FE093070D
:1057B000A105B10520F48CE08F8B80E012C0853FFD
:1057C0009F4FA105B10510F480E109C084A595A5FE
:1057D000A6A5B7A58A8F9B8FAC8FBD8F80E28F8BDC
:1057E00081E0DF91CF911F910F91FF90EF90DF90BB
:1057F000CF90BF90AF907F906F905F904F90089543
:105800000F931F93CF93DF9300D0CDB7DEB78C01FA
:10581000FC01158E10A2FB0101900020E9F73197E1
:10582000E61BF70B7B9738F42A8349830E947C3B65
:105830002A81498102C0FC011082F801428F20AF09
:105840000F900F90DF91CF911F910F9108950895C0
:10585000CF92DF92EF92FF920F931F93CF93DF933C
:105860008C01EB016A017901FC018381882309F431
:105870006BC04330510508F46AC0F9014081518181
:1058800062817381C8010E94BF20882309F462C02D
:10589000A601BE01C8010E946C1F009709F44CC00C
:1058A000BE0120E030E0A601415051092417350720
:1058B00098F5FB01D0806F5F7F4FD90111960F2EB5
:1058C000FAE0CF2EF02DDC1441F00F2EFDE0CF2EAC
:1058D000F02DDC101DC04AE001C04DE01082CD016A
:1058E000CA0FDB1F58815413C9019C012F5F3F4F22
:1058F000F70180819181A281B381820F931FA11D45
:10590000B11D80839183A283B38380E090E024C0A3
:105910009D01A817B90751F6F801C388D488E58816
:10592000F6880385148525853685C016D106E206DE
:10593000F30631F4C80FD91F188287E090E00CC03D
:10594000C40FD51F188203C082E090E005C083E039
:1059500090E002C084E090E0DF91CF911F910F9121
:10596000FF90EF90DF90CF900895AF92BF92CF92CB
:10597000DF92EF92FF920F931F93CF93DF9300D0AC
:1059800000D0CDB7DEB78C016B015A0119821A82A3
:105990001B821C827C018DE1E80EF11C9E012F5FB1
:1059A0003F4FA501B601C7010E94282C0097B1F313
:1059B000F8018730910521F4148E138E81E003C025
:1059C000948F838F80E00F900F900F900F90DF9156
:1059D000CF911F910F91FF90EF90DF90CF90BF90EC
:1059E000AF9008958B3331F091E0833209F090E06D
:1059F000892F089581E008950F931F93CF93DF932C
:105A0000EC018E012196F8018081992787FD909500
:105A10000E94253B892BA9F7C801DF91CF911F91E7
:105A20000F9108950F931F93CF93DF938C01EC0197
:105A300009900020E9F72297C017D10758F0888114
:105A4000992787FD90950E94253B892B19F0188294
:105A50002197F2CFDF91CF911F910F910895BF92BF
:105A6000CF92DF92EF92FF920F931F93CF93DF932A
:105A7000EC016B017A01A90198016115710509F426
:105A800040C0B7014D960E94282C8C01009731F040
:105A90008730910519F09C8F8B8F37C0C7010E940A
:105AA000FC2C7C01FC01B0808B2D0E94F22C882301
:105AB00029F00730110529F180E028C0FBE5BF126D
:105AC000F8CFC70101960E94FC2C7C016DE570E0C7
:105AD0000E94683B009769F3FC011082C7010E9495
