:100000000C94FA020C9422030C9422030C94220305
:100010000C9422030C9422030C948E040C9422035F
:100020000C9422030C9422030C9422030C942203BC
:100030000C9422030C9422030C9422030C942203AC
:100040000C94C5370C9422030C941C3A0C946E3A11
:100050000C9422030C9422030C9422030C9422038C
:100060000C94231E0C9422034C6F77657374204606
:1000700072656552616D3A20004672656552616D28
:100080003A2000616E696D2076616C75653A2000DA
:10009000616E696D006F66667365742076616C755C
:1000A000653A20006F66667365740046414C53459F
:1000B0000054525545007365636F6E642076616C21
:1000C00075653A20007365636F6E640046414C535A
:1000D00045005452554500686F7572313220766183
:1000E0006C75653A2000686F7572313200636C6F11
:1000F000636B00206E6F742076616C69643A200037
:10010000696E692066696C652000496E69206669C0
:100110006C65206578697374730020646F65732063
:100120006E6F7420657869737400636C6F636B2EF7
:10013000696E69006E657874466F6C6465722076CE
:10014000616C75653A20006E657874466F6C646505
:10015000720046414C534500545255450070616E43
:100160006F66662076616C75653A200070616E6F0F
:1001700066660046414C5345005452554500747222
:10018000616E736C617465206C6F6F702076616C4A
:1001900075653A20006C6F6F70006D6F7665592041
:1001A00076616C75653A20006D6F766559006D6FEC
:1001B0007665582076616C75653A20006D6F7665BE
:1001C00058007472616E736C6174650046414C53E3
:1001D00045005452554500616E696D6174696F6EDA
:1001E000206C6F6F702076616C75653A20006C6FC3
:1001F0006F7000686F6C642076616C75653A2000E2
:10020000686F6C6400616E696D6174696F6E002067
:100210006E6F742076616C69643A2000696E6920A3
:1002200066696C652000496E692066696C652065A9
:1002300078697374730020646F6573206E6F742027
:10024000657869737400636F6E6669672E696E699D
:1002500000756E6B6E6F776E206572726F722076AE
:10026000616C756500756E6B6E6F776E00656F669D
:10027000006B6E6600736E660073650062747300D7
:10028000666E6F00666E66006E6F206572726F72CA
:10029000002F303073797374656D2F6469676974EA
:1002A000732E626D70002F303073797374656D2F0B
:1002B0006469676974732E626D70002F30307379D2
:1002C0007374656D2F6469676974732E626D700055
:1002D0002F303073797374656D2F64696769747337
:1002E0002E626D70002F303073797374656D2F64DA
:1002F00069676974732E626D7000466F726D617408
:1003000020756E7265636F676E697A656400436C11
:100310006F73696E6720496D6167652E2E2E0052DE
:100320006F772073697A653A20002C2000496D614F
:100330006765206F66667365743A2000496D616772
:10034000652073697A653A200042697420446570BB
:1003500074683A20004865616465722073697A6543
:100360003A2000496D616765204F66667365743A8F
:10037000200046696C652073697A653A20004669F9
:100380006C65206F70656E206661696C6564004CF9
:100390006F6164696E6720696D6167652027004140
:1003A000626F72742E00436C6F73696E6720496DC3
:1003B0006167652E2E2E007800496D616765207299
:1003C00065736F6C7574696F6E3A200046696C6571
:1003D000206F70656E206661696C6564006300451E
:1003E0006D70747920666F6C6465722100312E62C5
:1003F0006D7000302E626D7000486F6C642028694B
:100400006E206D73293A2000302E626D70002F63CC
:100410006F6E6669672E696E69004F70656E696EF2
:10042000672046696C653A2000302E626D7000438B
:100430006861696E696E672064657465637465647C
:100440003A200030004F70656E696E6720466F6C11
:100450006465723A2000466F6C64657220496E6470
:1004600065783A200020666F6C6465722873292EC7
:100470000052616E646F6D6C7920616476616E63A9
:10048000696E6720004E6F742065786973747321FC
:1004900000466F7263696E67206E6578743A20005B
:1004A000436861696E696E673A20002F004E657877
:1004B0007420466F6C6465722E2E2E002D2D2D003B
:1004C0002F303073797374656D2F636C6F636B2E8F
:1004D000626D70002F303073797374656D2F74699D
:1004E0006D655F002F303073797374656D2F706C9C
:1004F00061795F002F303073797374656D2F62728C
:10050000696768745F002F303073797374656D2F7D
:1005100074696D655F002F303073797374656D2F6A
:10052000706C61795F002F303073797374656D2F53
:100530006272696768745F0020666F6C64657273CD
:1005400020666F756E642E00466F6C6465723A208B
:100550000046696C6520496E6465783A20002D2D4F
:100560002D004F4B21006661696C00496E69742053
:1005700053443A20001F1C1F1E1F1E1F1F1E1F1E3C
:100580001F7C3C3E5E2B3D3F2F5B5D3B2C2A225C5B
:100590000000000000240027002A000000000025C1
:1005A0000028002B00000000002300260029000482
:1005B000040404040404040202020202020303030A
:1005C0000303030102040810204080010204081004
:1005D00020010204081020000000070002010000B2
:1005E000030406000000000000000000DB04C2203D
:1005F0005B35563B11241FBECFEFD8E0DEBFCDBF29
:1006000011E0A0E0B1E0EAE7FCE702C005900D923E
:10061000A238B107D9F718E0A2E8B1E001C01D92F5
:10062000AD33B107E1F715E0C4EFD5E004C0229780
:10063000FE010E942C3ECC3ED107C9F70E94AD3B83
:100640000C943B3E0C940000FC0188279927E89409
:1006500021912032E9F3293010F02E30C8F32B32EB
:1006600041F02D3239F4689404C00E94F503820FE2
:10067000911D219120532A30C0F31EF4909581954D
:100680009F4F08951F93FC0199278827BC01E89488
:1006900011911032E9F3193010F01E30C8F31B32FB
:1006A00051F01D3249F4689406C00E94E003610FC6
:1006B000711D811D911D119110531A30B0F33EF43C
:1006C00090958095709561957F4F8F4F9F4F1F91AB
:1006D0000895FB01DC0105900D920020E1F70895DB
:1006E000FB01DC0104C08D910190801921F441507F
:1006F0005040C8F7881B990B0895FB01DC0102C02C
:1007000001900D9241505040D8F70895FB01DC0153
:100710008D9181341CF08B350CF4805E61916134D5
:100720001CF06B350CF4605E861B611189F3990B2C
:100730000895FB01DC010D900020E9F7119701906D
:100740000D920020E1F70895FC018191861721F0B8
:100750008823D9F7992708953197CF010895FB0190
:10076000DC018D91019080190110D9F3990B089546
:10077000FB01DC0101900D920020E1F70895FB01DF
:100780009F01E8944230C4F04532B4F44A3029F471
:1007900097FB1EF4909581959F4F642F77270E94B9
:1007A000E13D805D8A330CF0895D8193CB01009738
:1007B000A1F716F45DE251931082C9010C94FD0378
:1007C000592F482F372F262F660F771F881F991F05
:1007D000660F771F881F991F620F731F841F951F55
:1007E000660F771F881F991F08957AE0979F902DB5
:1007F000879F802D910D11240895DC01FC01672F46
:1008000071917723E1F7329704C07C916D937083E7
:100810006291AE17BF07C8F3089580913601823008
:1008200019F48EE190E020C0833019F48CE390E05D
:100830001BC0843019F48CE291E016C0853019F4A5
:1008400084E893E011C0863019F488E097E00CC08A
:10085000873019F480E19EE007C0883019F48FEFEB
:100860009FEF02C08AE090E090933B0180933A01B1
:1008700008959091F604903128F49093F204109228
:10088000F3040895892F80518E3038F48FE08093DF
:10089000F2049F509093F3040895892F8E51803174
:1008A00040F48DE2891B8093F2048FE08093F3047F
:1008B00008959E3230F01092F2048CE3891B8093ED
:1008C000F30408950E9439044091F2048091F304E6
:1008D000882319F48FE0841B0FC090E09C0174E022
:1008E000220F331F7A95E1F780FF03C0842F820F18
:1008F00003C0822F841B815F90E0FC01EE0FFF1F7D
:10090000E80FF91FE152FE4F80910F05808380911F
:100910001005818380911105828308951F920F92A3
:100920000FB60F9211248F93809184008093DF047F
:1009300081E08093E0048F910F900FBE0F901F9085
:100940001895569A08951F93CF93DF93382F492F08
:10095000809139058F5F87708093390580FD02C0D3
:1009600020E001C020E881FD206482FD2062122F7A
:10097000105F832F942F9C01F901C0E0D0E06285C5
:10098000662331F080E091E070E00E94F53D6F5FFA
:100990006783212F269F212D11242483662311F0A4
:1009A0006150678321963196C330D10541F7DF91BD
:1009B000CF911F91089589E1809383011092860160
:1009C00010929E011092A5011092A8011092C401EC
:1009D0001092C7011092C3011092C2018DE691E0FE
:1009E0009093C1018093C001109235051092360595
:1009F000109237058FE295E040E050E060E070E053
:100A00000E94E31E0895EF92FF920F931F93DF93CE
:100A1000CF9300D000D0CDB7DEB77E010894E11CA3
:100A2000F11C8C010C5F1F4FC8010E94382889837C
:100A3000C8010E943828F7018183C8010E94382824
:100A4000F7018283C8010E94382869817A81982F32
:100A50008B810F900F900F900F90CF91DF911F918E
:100A60000F91FF90EF9008950F931F93DF93CF9313
:100A700000D0CDB7DEB78C010C5F1F4FC8010E94BC
:100A800038288983C8010E943828982F89810F90BF
:100A90000F90CF91DF911F910F910895CF93DF9326
:100AA000EC0188A1882321F0CE014D960E941B27DE
:100AB000CE014D96BE014A8D0E94912C88A18823BB
:100AC00021F01C8E1B8E81E005C081E090E09C8FA0
:100AD0008B8F80E0DF91CF9108951F93162F843084
:100AE00041F1853048F48130A9F0813070F08230D6
:100AF000B1F08330B9F518C0863029F18630F0F0B6
:100B0000873031F1883071F528C082E098E068E8DC
:100B100072E02CC082E098E064E872E027C082E0D6
:100B200098E060E872E022C082E098E06CE772E052
:100B30001DC082E098E069E772E018C082E098E0AA
:100B400065E772E013C082E098E061E772E00EC0F2
:100B500082E098E06DE672E009C082E098E065E628
:100B600072E004C082E098E061E572E00E94F63B2A
:100B7000112321F082E098E00E94213C1F9108950A
:100B8000CF92DF92EF92FF920F931F93DF93CF9359
:100B9000CDB7DEB7CC58D0400FB6F894DEBF0FBE4D
:100BA000CDBF3CE0E32EF12CEC0EFD1EC7016AE246
:100BB00071E00E9469038E010C5A1F4FC801B701F2
:100BC00041E020E00E94F73482E891E060E071E0CB
:100BD00040E00E94D72CC8010E944E05882351F4A2
:100BE00082E098E0B7010E94A03D82E098E06AE1CF
:100BF00071E004C082E098E06AE071E00E94413C4C
:100C00008E010C5A1F4FC801BE016E5D7F4F42E33B
:100C100050E00E94B2348823B1F482E098E060E0B2
:100C200071E00E94F63B82E098E0B8010E94A03D8E
:100C300082E098E063EF70E00E94F63BF801838D5C
:100C400061E00E946D0522E0E22EF12CEC0EFD1E0B
:100C5000C7016DEE70E00E9469038E01095E1F4FAF
:100C6000C80166EE70E00E94690394E5C92ED12C9C
:100C7000CC0EDD1EC601B701A8019E012E5D3F4FBF
:100C800002E310E07E010894E11CF11C0E946F3425
:100C90008823A1F082E098E067ED70E00E94F63BC7
:100CA0008981882319F062ED70E002C06CEC70E07D
:100CB00082E098E00E94413C898106C0F601838D64
:100CC00061E00E946D0581E0809333018E01095E31
:100CD0001F4FC80165EC70E00E94690384E5C82ECF
:100CE000D12CCC0EDD1EC601BE016E5F7F4FA80168
:100CF0009E012E5D3F4F02E310E07E010894E11C4F
:100D0000F11C0E946F348823A1F082E098E066EB2A
:100D100070E00E94F63B8981882319F061EB70E056
:100D200002C06BEA70E082E098E00E94413C898159
:100D300006C0F601838D61E00E946D0581E080931D
:100D400032018E01095E1F4FC80164EA70E00E9403
:100D50006903B4E5CB2ED12CCC0EDD1EA2E2EA2E27
:100D6000F12CEC0EFD1EC601BE016E5F7F4FA80187
:100D7000970102E310E00E942034882389F082E08A
:100D800098E065E970E00E94F63B82E098E0B701E8
:100D90000E94A33DC7010E9424038093F40407C06E
:100DA000F601838D61E00E946D051092F4048E01BE
:100DB000095E1F4FC80160E970E00E946903F4E515
:100DC000CF2ED12CCC0EDD1EE2E2EE2EF12CEC0E5D
:100DD000FD1EC601BE016E5F7F4FA801970102E3B1
:100DE00010E00E942034882379F082E098E063E8E4
:100DF00070E00E94F63B82E098E0B7010E94A33DBC
:100E0000C7010E94240306C0F601838D61E00E94A1
:100E10006D0585E080933701FE01EC5AFF4F80A1FC
:100E2000882321F0CF014D960E941B2782E891E094
:100E30006AE071E040E00E94D72CCE018C5A9F4FAF
:100E40000E94E731C457DF4F0FB6F894DEBF0FBEE4
:100E5000CDBFCF91DF911F910F91FF90EF90DF9069
:100E6000CF900895AF92BF92CF92DF92EF92FF9210
:100E70000F931F93DF93CF93CDB7DEB7CE58D040FB
:100E80000FB6F894DEBF0FBECDBFFEE0EF2EF12C03
:100E9000EC0EFD1EC70166E472E00E9469038E013C
:100EA0000A5A1F4FC801B70141E020E00E94F73401
:100EB000C8010E944E05882351F482E098E0B701F2
:100EC0000E94A03D82E098E066E372E004C082E008
:100ED00098E066E272E00E94413C8E010A5A1F4F80
:100EE000C801BE016C5D7F4F42E350E00E94B23406
:100EF0008823B1F482E098E06CE172E00E94F63B56
:100F000082E098E0B8010E94A03D82E098E06FE0A6
:100F100072E00E94F63BF801838D61E00E946D054E
:100F2000E4E0EE2EF12CEC0EFD1EC70165E072E050
:100F30000E9469038E01075E1F4FC80160E072E0E6
:100F40000E94690376E5A72EB12CAC0EBD1E64E2AB
:100F5000C62ED12CCC0EDD1EC501B701A80196010D
:100F600002E310E00E942034882399F082E098E0A8
:100F700063EF71E00E94F63B82E098E0B6010E94C8
:100F8000A33DC6010E94420370933F0160933E015E
:100F90000BC0F501838D61E00E946D0588EC90E047
:100FA00090933F0180933E018E01075E1F4FC80161
:100FB0006EEE71E00E94690356E5C52ED12CCC0E71
:100FC000DD1EC601BE016C5F7F4FA8019E012C5D36
:100FD0003F4F02E310E07E010894E11CF11C0E94E7
:100FE0006F348823A1F082E098E067ED71E00E9401
:100FF000F63B8981882319F062ED71E002C06CEC48
:1010000071E082E098E00E94413C898106C0F601CF
:10101000838D61E00E946D0581E080932F0144E0A3
:10102000E42EF12CEC0EFD1EC70162EC71E00E9473
:1010300069038E01075E1F4FC8016CEB71E00E94CF
:10104000690336E5A32EB12CAC0EBD1E24E2C22EE0
:10105000D12CCC0EDD1EC501B701A801960102E31B
:1010600010E00E942034882399F082E098E06EEA34
:1010700071E00E94F63B82E098E0B6010E94A33D39
:10108000C6010E942403909304058093030509C0C0
:10109000F501838D61E00E946D05109204051092A8
:1010A00003058E01075E1F4FC80168EA71E00E94C8
:1010B000690396E5C92ED12CCC0EDD1E84E2E82E04
:1010C000F12CEC0EFD1EC601BE016C5F7F4FA80126
:1010D000970102E310E00E942034882399F082E017
:1010E00098E06AE971E00E94F63B82E098E0B7017F
:1010F0000E94A33DC7010E9424039093060580939C
:10110000050509C0F601838D61E00E946D0510920E
:101110000605109205058E01075E1F4FC80165E99F
:1011200071E00E946903B6E5CB2ED12CCC0EDD1EFA
:10113000C601BE016C5F7F4FA8019E012C5D3F4F31
:1011400002E310E0A2E0EA2EF12CEC0EFD1E0E945C
:101150006F348823B1F082E098E06EE771E00E947E
:10116000F63B8A81882319F069E771E002C063E7E2
:1011700071E082E098E00E94413C8A818093E4041F
:1011800007C0F601838D61E00E946D051092E404B2
:101190008E01075E1F4FC8016CE671E00E94690373
:1011A000F6E5CF2ED12CCC0EDD1EC601BE016C5F44
:1011B0007F4FA8019E012C5D3F4F02E310E0E3E06A
:1011C000EE2EF12CEC0EFD1E0E946F348823A1F050
:1011D00082E098E06DE571E00E94F63B8B81882308
:1011E00019F068E571E002C062E571E082E098E024
:1011F0000E94413C8B8106C0F601838D61E00E9414
:101200006D0581E0809331018E01075E1F4FC8019B
:1012100067E471E00E94690356E5C52ED12CCC0E1F
:10122000DD1E44E2E42EF12CEC0EFD1EC601BE01D3
:101230006C5F7F4FA801970102E310E00E94203409
:101240008823A1F082E098E064E371E00E94F63B1D
:1012500082E098E0B7010E94A33DA0E4B1E0F7016D
:1012600088E001900D928150E1F707C0F601838D6F
:1012700061E00E946D0510924001FE01EA5AFF4FA5
:1012800080A1882321F0CF014D960E941B27CE011B
:101290008A5A9F4F0E94E731C257DF4F0FB6F8942A
:1012A000DEBF0FBECDBFCF91DF911F910F91FF9099
:1012B000EF90DF90CF90BF90AF900895AF92BF9224
:1012C000CF92EF920F93DF93CF9300D000D000D056
:1012D000CDB7DEB75E010894A11CB11CC5016EED4F
:1012E00077E041E021E000913901E090F504C09001
:1012F000F6040E94741FC5010E94881F26960FB62F
:10130000F894DEBF0FBECDBFCF91DF910F91EF906C
:10131000CF90BF90AF90089585E00E94C8390197A3
:10132000B9F484E00E94C839019791F48091E504F2
:10133000813071F41092E504109230010E940D3852
:1013400060931A0570931B0580931C0590931D05EF
:10135000809130018823D1F48091E5048823B1F491
:101360000E940D3820911A0530911B0540911C05F3
:1013700050911D052E5C3F4F4F4F5F4F261737078B
:101380004807590718F481E0809330010895DF93EE
:10139000CF9300D00F92CDB7DEB719821A821B828D
:1013A0008FED91E060E071E0AE014F5F5F4F0E9412
:1013B00014350F900F900F90CF91DF910895809189
:1013C000EA04882339F481E08093EA0483E06EEF35
:1013D00070E005C01092EA0483E06FEF70E00E94B5
:1013E000D53808950F931F93DF93CF93CDB7DEB712
:1013F000EC970FB6F894DEBF0FBECDBFEFE9F2E079
:101400008FEF808311821282339692E0EF3CF907CE
:10141000C1F7108211821282339684E0EF31F8070F
:10142000C1F78FEF808311821282339694E0EF34FC
:10143000F907C1F789838A831B82809317038093FE
:101440001803109219038C838D831E8280931A03D4
:1014500080931B0310921C038F83888719868093C7
:101460001D0380931E0310921F038A878B871C869F
:1014700080933B0380933C0310923D038D878E87BE
:101480001F8680937D0380937E0310927F03888B59
:10149000898B1A8A80937A0380937B0310927C0352
:1014A0008B8B8C8B1D8A8093A4038093A503109251
:1014B000A6038E8B8F8B188E8093DA038093DB03C9
:1014C0001092DC03898F8A8F1B8E8093DD038093BB
:1014D000DE031092DF038C8F8D8F1E8E8093E003CE
:1014E0008093E1031092E2038F8F88A319A2809367
:1014F000110380931203109213038AA38BA31CA2DF
:1015000080930E0380930F03109210038DA38EA37C
:101510001FA280935003809351031092520388A717
:1015200089A71AA680936B0380936C0310926D03B6
:101530008BA78CA71DA68093B0038093B103109254
:10154000B2038EA78FA718AA8093CE038093CF03F0
:101550001092D00389AB8AAB1BAA8093D1038093EE
:10156000D2031092D3038CAB8DAB1EAA80934A0397
:1015700080934B0310924C038FAB88AF19AE8093CE
:10158000710380937203109273038AAF8BAF1CAE0A
:101590008093AA038093AB031092AC036091350152
:1015A00080913401689F602D112460935C078CE565
:1015B00097E00E94D9360FEF10E00CC083E0B8012D
:1015C0000E94D53861E070E080E090E00E944138F0
:1015D0000150104017FFF2CF00E010E083E0B801A7
:1015E0000E94D53861E070E080E090E00E944138D0
:1015F0000F5F1F4F0F3F110589F70FEF10E0DECF90
:101600002F923F924F925F926F927F928F929F9212
:10161000AF92BF92CF92DF92EF92FF920F931F9300
:10162000DF93CF93CDB7DEB767970FB6F894DEBFE1
:101630000FBECDBF8C016D8B542E603118F42FE09E
:10164000241738F482E098E06FE973E00E94F63BDB
:101650005EC282E098E00E94213C8091C70188230D
:1016600009F582E098E06FE873E00E94F63B82E0C3
:1016700098E0B8010E94A03D82E098E067E20E94F5
:10168000553C84EC91E0B80141E00E94912C882304
:1016900089F482E098E06EE773E00E94413C0E948A
:1016A000F20935C284EC91E040E050E060E070E087
:1016B0000E94962480EC91E00E94340582549D445F
:1016C00009F000C282E098E062E773E00E94F63B16
:1016D00080EC91E00E940305AB01BC0182E098E040
:1016E0002AE030E00E94FC3C80EC91E00E9403057F
:1016F00080EC91E00E9403056E877F87888B998B31
:1017000082E098E063E673E00E94F63B82E098E0B6
:101710004E855F85688979892AE030E00E94FC3C2B
:1017200082E098E065E573E00E94F63B80EC91E092
:101730000E940305AB01BC0182E098E02AE030E0A2
:101740000E94FC3C80EC91E00E9403056B017C014F
:1017500080EC91E00E9403054B015C0180EC91E07C
:101760000E943405019709F0ADC180EC91E00E9420
:101770003405182F82E098E069E473E00E94F63B9C
:1017800082E098E0612F4AE050E00E94103D18315D
:1017900009F098C180EC91E00E9403056115710584
:1017A0008105910509F08EC1DB8ACA8A340182E085
:1017B00098E06CE373E00E94F63B82E098E0B601AB
:1017C0004AE050E00E946E3D82E098E068E70E94A7
:1017D000193C82E098E0B4014AE050E00E94813D6B
:1017E00082E098E06DE273E00E94F63B60910705AD
:1017F0007091080582E098E04AE050E00E946E3D5A
:1018000082E098E06AE273E00E94F63B609109058D
:1018100070910A0582E098E04AE050E00E94813D24
:101820008A899B890F964F9720F0C4010F964F9796
:1018300010F40E94C7092A893B892F5F3F4FC901D5
:10184000880F991F820F931F8C7F9C01442737FDBF
:101850004095542F2A873B874C875D8782E098E02C
:101860006FE173E00E94F63B82E098E04A855B8579
:101870006C857D852AE030E00E94FC3C77FC03C04B
:1018800031E0398705C070946194710873941986AA
:101890004D89242F30E08A899B89820F931F4197BD
:1018A0002CF48A899B8998878F8306C0A0E1B0E0D9
:1018B000A21BB30BB887AF83452D50E0C301840F43
:1018C000951F419714F4130105C060E1262E312CB9
:1018D000241A350A8E849F84A888B988CC24DD24F4
:1018E000BFE02D89B21BBF8BE7C03985332319F4C4
:1018F0008501740131C02091070530910805C901A7
:10190000880F991F820F931F909581959F4F7C019F
:101910000027F7FC0095102F8E859F85A889B9892F
:10192000E80EF91E0A1F1B1F6091090570910A0538
:1019300060957095660D771D6C197D09882777FD78
:101940008095982F2A853B854C855D850E94B63D04
:10195000E60EF71E081F191F8091CF019091D0014C
:10196000A091D101B091D2018E159F05A007B107BA
:1019700031F084EC91E0B801A7010E949624CC8A52
:101980008C2D90E05C2C529440EF5422B52DB15F29
:10199000BE832F892D83322F350D3C8300E010E06C
:1019A0003FE0432E21E0E22EF12CE822F9224D897E
:1019B000450D4E8B70C084EC91E0BE016F5F7F4F90
:1019C00043E050E00E94252769815A814B81209194
:1019D000090530910A05C301821B930BC816D9066D
:1019E00024F05C89552319F520C088279927821B8C
:1019F000930BC816D90624F48C898823C1F415C02A
:101A000020910705309108058A899B89820F931FD1
:101A10000817190724F09C89992349F406C0021776
:101A20001307CCF4AC89AA2311F4842D08C0E11467
:101A3000F10419F0852D800F02C08E81801B90E08B
:101A4000FC01EE0FFF1FE80FF91FE152FE4F10825D
:101A50001182128217C0BC89BB2311F48D8107C08B
:101A6000E114F10411F48C8102C08E89800F90E0A2
:101A7000FC01EE0FFF1FE80FF91FE152FE4F4083FC
:101A8000518362830F5F1F4F4A942D8121502D8314
:101A90003C8131503C834F815885041715070CF465
:101AA0008ACF0894C11CD11C8A859B85AC85BD85D5
:101AB000880E991EAA1EBB1EC214D3040CF415CFA7
:101AC00011E001C010E08091EB04882331F48CE533
:101AD00097E060915C070E94D9368091E7048823E3
:101AE00021F08091E604813051F482E098E06EE0CC
:101AF00073E00E94413C84EC91E00E941B2711237B
:101B000031F482E098E06AEF72E00E94413C67960F
:101B10000FB6F894DEBF0FBECDBFCF91DF911F91FE
:101B20000F91FF90EF90DF90CF90BF90AF909F907C
:101B30008F907F906F905F904F903F902F9008957F
:101B4000DF93CF9300D00F92CDB7DEB78091F5042D
:101B500090E0BE016F5F7F4F4AE050E00E94BF03FC
:101B60008091F5048A3010F08A8101C08981805308
:101B700090E0E4E0880F991FEA95E1F790930A0559
:101B8000809309058091EC04882371F48091EE0420
:101B9000882351F08091ED04882331F480EA90E0AD
:101BA00090930A058093090580E491E061E972E071
:101BB0000E94690380E491E06CE040E00E94000B29
:101BC0000F900F900F90CF91DF910895DF93CF93F7
:101BD00000D00F92CDB7DEB78091F50490E0BE0142
:101BE0006F5F7F4F4AE050E00E94BF038091F50491
:101BF0008A3010F480E002C08981805390E0F4E0E4
:101C0000880F991FFA95E1F790930A0580930905CB
:101C10008091EC04882371F48091EE04882351F0C4
:101C20008091ED04882331F480EA90E090930A05D6
:101C30008093090580E491E066EA72E00E946903FE
:101C400080E491E068E040E00E94000B0F900F906C
:101C50000F90CF91DF910895DF93CF9300D00F9233
:101C6000CDB7DEB78091390190E0BE016F5F7F4F45
:101C70004AE050E00E94BF03809139018A3010F0A1
:101C80008A8101C08981805310920805109207054E
:101C900090E0A4E0880F991FAA95E1F790930A05B8
:101CA000809309058091EC04882371F48091EE04FF
:101CB000882351F48091ED04882331F480EA90E088
:101CC00090930A058093090580E491E06BEB72E044
:101CD0000E94690380E491E063E040E00E94000B11
:101CE0000F900F900F90CF91DF910895DF93CF93D6
:101CF00000D00F92CDB7DEB78091390190E0BE01E0
:101D00006F5F7F4F4AE050E00E94BF0329818FEF51
:101D10009FEF9093080580930705809139018A30E1
:101D200048F02053822F90E0B4E0880F991FBA95B5
:101D3000E1F702C080EA90E090930A0580930905DC
:101D40008091EC04882371F48091EE04882351F48F
:101D50008091ED04882331F480EA90E090930A05A5
:101D60008093090580E491E060ED72E00E946903D0
:101D700080E491E060E040E00E94000B0F900F9043
:101D80000F90CF91DF9108950E94760E0E942C0E45
:101D90000E94E60D0E94A00D8091EC04882341F47E
:101DA00090E08091ED04882309F491E09093ED0494
:101DB0008091C701882321F084EC91E00E941B27C9
:101DC000089537C00E94C40E8CE597E060915C07CF
:101DD0000E94D9360E948C0985E00E94C839892B5F
:101DE000A9F48091E504882389F480913001813041
:101DF00069F48091ED04882349F08091F5048F5FA8
:101E00008093F5048C3310F01092F50484E00E9466
:101E1000C839892B71F48091E504882351F48091AD
:101E20003001813031F48093E5041092EE04809308
:101E3000ED048091EE04813029F208951F931CE097
:101E400044C00E94C40E8CE597E060915C070E943C
:101E5000D9360E948C0985E00E94C839892B21F56A
:101E60008091E504882301F5809130018130E1F40F
:101E70008091ED048823C1F090913901292F2F5FC3
:101E80002093390180913301882341F02D3018F1DE
:101E90009B50909339011FC01093390180913901F3
:101EA000883110F01092390184E00E94C839892BE2
:101EB00061F48091E504882341F480913001813000
:101EC00021F48093E5048093EE048091EE0488234E
:101ED00009F4B7CF05C0809139018823E9F2DECF3C
:101EE0001F910895DF93CF9300D000D000D0CDB7DD
:101EF000DEB71092EC041092F6040E941E0F0E94AE
:101F0000E10E0E945E098FEF809338010E94F11F5D
:101F100029833A834B835C836D837E83AFE2B5E094
:101F2000FE01319686E001900D928150E1F72696F0
:101F30000FB6F894DEBF0FBECDBFCF91DF910895ED
:101F40008AE395E060E070E00E94E81D4091340172
:101F5000841731F08AE395E060E070E00E94EF1DA5
:101F60008AE395E061E070E00E94E81D4091F00492
:101F7000841731F08AE395E061E070E00E94EF1D84
:101F80008AE395E062E070E00E94E81D409136012E
:101F9000841731F08AE395E062E070E00E94EF1D63
:101FA0001092F8041092F7041092E60481E08093F6
:101FB000EB041092EF040E940D3860931A057093A1
:101FC0001B0580931C0590931D051092F1048FEF63
:101FD000809338018091C701882321F084EC91E03F
:101FE0000E941B2710923F0110923E0182E891E06F
:101FF0006AE071E040E00E94D72C1092FE0410923B
:10200000FD0491E09093E7048091E304882311F4A8
:102010009093E3040E94C0058091EC04882339F476
:102020008CE0809339011092F5040E94720F809128
:102030003201882341F40E94C40E8CE597E0609140
:102040005C070E94D93608950E9439041092080551
:102050001092070580EB90E090930A0580930905A4
:1020600080E491E065EE72E00E9469038FEF809357
:102070005C0780E491E060E040E00E94000B40914A
:10208000F2048091F304882319F48FE0841B0FC0BD
:1020900090E09C0154E0220F331F5A95E1F780FF36
:1020A00003C0842F820F03C0822F841B815F90E0C6
:1020B000FC01EE0FFF1FE80FF91FE152FE4F808178
:1020C00080930F0581818093100582818093110593
:1020D0008091350190913401899F802D1124809346
:1020E0005C07089580913205809339018091330512
:1020F0008093F504209134052093F60480913801F3
:10210000281709F485C08091F7049091F80401968E
:102110009093F8048093F704209338010E94DF091C
:1021200080913301882361F0809139018D3008F46A
:1021300069C08C508093390165C08CE0809339016F
:10214000809132019091F604882389F08091F40403
:10215000890F8093F6048C3318F08C538093F60427
:102160000E9424100E94C40E0E94620404C099239D
:1021700041F40E94C40E8CE597E060915C070E94D8
:10218000D93660913A0170913B018FEF6F3F78072C
:10219000A1F180913701882381F18091F5042CE32E
:1021A000829FC00111242091F604820F911D0E948C
:1021B000F53D892B11F59091EC049130F1F41092DA
:1021C000F8041092F704809134058093F6049093FC
:1021D000EF041092EB048091C701882321F084EC76
:1021E00091E00E941B2781E08093E8041092400157
:1021F000089581E08093EC0408958091EC04882395
:10220000C1F3089580913901882309F496CF98CFBE
:102210000895BC0184EC91E041E00E94912C882358
:1022200049F482E098E06CEC73E00E94413C0E942B
:10223000F209089580EC91E00E94340582549D4497
:1022400009F040C080EC91E00E94030580EC91E031
:102250000E94030580EC91E00E94030580EC91E070
:102260000E94030580EC91E00E94030570930C0529
:1022700060930B0580EC91E00E94030570930E05BE
:1022800060930D0582E098E069EB73E00E94F63BF5
:1022900060910B0570910C0582E098E04AE050E0F7
:1022A0000E946E3D82E098E067EB73E00E94F63B8F
:1022B00060910D0570910E0582E098E04AE050E0D3
:1022C0000E94813D82E098E066EA73E00E94413C12
:1022D00084EC91E00E941B270895DF92EF92FF9219
:1022E0000F931F93DF93CF93CDB7DEB7C654D04083
:1022F0000FB6F894DEBF0FBECDBF82E098E06CEB66
:1023000074E00E94413C82E098E06DEA74E00E9433
:10231000413C8091C701882321F084EC91E00E9428
:102320001B278091EF04882321F41092F804109267
:10233000F7040E940D38609316057093170580937B
:1023400018059093190510923F0110923E0182E802
:1023500091E06AE071E040E00E94D72C1092FE0408
:102360001092FD04109208051092070510920A05BC
:10237000109209051092E7048091E304882319F470
:1023800081E08093E30480913C0190913D0197FDB1
:1023900055C0A0E3EA2EF12CEC0EFD1EC7016BEA3E
:1023A00074E00E946903C70166E275E00E94990328
:1023B000C7016AE071E00E9499038E010D5F1F4F13
:1023C00080913C0190913D01B8014AE050E00E94AB
:1023D000BF03C701B8010E94990382E891E0B701E9
:1023E0000E94B82C8823D9F082E098E060EA74E07B
:1023F0000E94F63B82E098E0B7010E94A33D82E88C
:1024000091E0B70140E00E94D72C80913C0190916F
:102410003D01019690933D0180933C010FC08FEFE9
:102420009FEF90933D0180933C011092260582E836
:1024300091E06AE071E040E00E94D72C8091400179
:10244000882359F180913C0190913D018F5F9F4F0E
:1024500021F582E098E061E974E00E94F63B82E0B9
:1024600098E060E471E00E94A33D82E891E060E4BE
:1024700071E00E94B82C882341F082E891E060E48A
:1024800071E040E00E94D72C08C01092400182E029
:1024900098E065E874E00E94413C80914001882307
:1024A00009F0DEC080913C0190913D018F5F9F4F0C
:1024B00009F0D6C08091F004882309F47FC0809190
:1024C000E004813041F58091E20490E09C01220F0C
:1024D000331F880F892F881F990B822B2091DF04CF
:1024E00082278093E2048091E1048F5F8093E1046E
:1024F000883030F01092E10403C0241B2093E204E2
:102500002091E2044091F9045091FA04822F90E066
:102510004817590794F38091E204082F10E0011541
:10252000110559F08091F9049091FA0408171907E0
:1025300021F001970817190711F40E5F1F4F82E071
:1025400098E061E774E00E94F63B82E098E0B80111
:102550004AE050E00E946E3D82E098E065E674E05B
:102560000E94413C71E0E72EF12C25C04091FB0414
:102570005091FC0484EC91E065EA71E021E00E9456
:102580008C288091C701823010F4DD2405C00894A6
:10259000E11CF11CDD24D39484EC91E00E941B2704
:1025A0008091FB049091FC0401969093FC0480932D
:1025B000FB04DD20D9F2E016F106C4F28E01025EC2
:1025C0001F4F4091FB045091FC0484EC91E065EABC
:1025D00071E021E00E948C2884EC91E0B8010E9417
:1025E0005D258091C701823008F48CC18E8D8033C7
:1025F00009F488C18F8D803309F484C182E098E0AA
:1026000066E574E00E94F63B6091FB047091FC0467
:1026100082E098E04AE050E00E94813D82E098E04C
:1026200065E474E00E94F63B82E098E0B8010E9405
:10263000A33D82E891E0B80140E00E94D72C84ECF1
:1026400091E00E941B2721E08091FB049091FC0403
:1026500001969093FC048093FB04222309F4B1CFEC
:102660008E010F5F1F4FC80163E474E00E9469038D
:1026700082E891E0B8010E94B82C882321F182E021
:1026800098E06FE274E00E94F63B8E01025E1F4FFD
:1026900082E098E0B8010E94A33DA6E2B5E0F8010F
:1026A00088E001900D928150E1F782E891E0BE014F
:1026B0006F5F7F4F40E00E94D72C81E090E09093C5
:1026C0003D0180933C018E010A5F1F4FC80169E202
:1026D00074E00E94690382E891E0B8010E94B82C7E
:1026E000882309F4F2C082E098E06AE174E00E9475
:1026F000F63B82E098E0BE01625E7F4F0E94A03D03
:1027000082E098E06EE074E00E94413C0E94320753
:102710008E01045F1F4FC80168E074E00E946903E6
:10272000C8010E94091182E098E069EF73E00E94FD
:10273000F63B60913E0170913F0182E098E04AE0F3
:1027400050E00E94813D0E940D3820913E01309161
:102750003F01442737FD4095542F260F371F481F50
:10276000591F20931205309313054093140550937D
:1027700015058091F004823009F452C08091030560
:102780009091040518161906B4F480913101209136
:102790000B0530910C05813029F488279927821B7D
:1027A000930B04C080E190E0821B930B909308058B
:1027B000809307050DC0892B59F08091310181303C
:1027C00019F480E190E0F2CF10920805109207050D
:1027D00080910505909106051816190684F48091DC
:1027E0003101813039F480EF9FEF90930A05809397
:1027F000090535C010920A051092090530C0892BD1
:1028000071F18091310120910D0530910E058130DB
:1028100011F02051304030930A05209309051FC064
:1028200080910B0590910C0562E070E00E94F53DEF
:10283000709561957F4F685F7F4F70930805609337
:10284000070580910D0590910E0562E070E00E94F1
:10285000F53D6850704070930A05609309058E013C
:102860000E5E1F4FC80163EF73E00E94690368E1C9
:10287000E62EF12CEC0EFD1EC7016DEE73E00E94FA
:10288000690382E891E0B8010E94B82C882329F1FD
:1028900082E891E0B7010E94B82C8823F1F481E02E
:1028A0008093E7048091030590910405892BA9F496
:1028B0008091050590910605892B79F48FEF9FEFA4
:1028C00090933F0180933E0108C082E098E06FED55
:1028D00073E00E94413C0E946D11CE0187966DED20
:1028E00073E00E946903CA5BDF4F0FB6F894DEBF46
:1028F0000FBECDBFCF91DF911F910F91FF90EF9051
:10290000DF90089584EC91E00E941B2720E09CCE8C
:102910000F931F93DF93CF93CDB7DEB728970FB6F2
:10292000F894DEBF0FBECDBF809131014091070505
:1029300050910805813009F069C041315105CCF44E
:1029400080910B0590910C05909581959F4F4817AC
:1029500059077CF02091090530910A0580910D05F9
:1029600090910E058217930724F0205F3F4F0CF0E3
:10297000C2C08091E404882309F468C080910305F3
:1029800090910405181619065CF44031510544F085
:1029900080910B0590910C05909581959F4F0EC0ED
:1029A00097FF10C080910B0590910C059095819533
:1029B0009F4F8417950734F080E190E090930805CD
:1029C00080930705409105055091060514161506DC
:1029D00074F42091090530910A0580910D059091BC
:1029E0000E05281739071CF080EF9FEF80C057FFB6
:1029F00082C08091090590910A05815F9F4F0CF07C
:102A00007AC080910D0590910E0571C014161506BF
:102A1000CCF080E190E020910B0530910C05821BF9
:102A2000930B4817590774F02091090530910A0556
:102A300080910D0590910E050F972817390714F412
:102A400037FF59C08091E404882339F41092FE04C2
:102A50001092FD040E946D114EC08091030590916B
:102A60000405181619067CF457FD0DC080E190E0AE
:102A700020910B0530910C05821B930B9093080558
:102A8000809307050EC097FF0CC080910B059091B5
:102A90000C050F974817590724F410920805109257
:102AA00007054091050550910605141615068CF48E
:102AB00080910D0590910E05409720910905309168
:102AC0000A05281739072CF010920A0510920905FB
:102AD00012C057FF10C08091090590910A05181681
:102AE00019064CF080910D0590910E05409790933A
:102AF0000A05809309058091E704882389F5809170
:102B0000FD049091FE048E010F5F1F4FB8014AE053
:102B100050E00E94BF03C8016EE071E00E9499037B
:102B200082E891E0B8010E94B82C8823B1F4109299
:102B3000FE041092FD0480E090E0B8014AE050E00D
:102B40000E94BF03C8016EE071E00E94990380916A
:102B50002F01882311F40E946D11CE01019602C04D
:102B600083E191E060E040E00E94000B20910305CA
:102B7000309104052115310551F0809107059091A0
:102B80000805820F931F90930805809307052091F5
:102B90000505309106052115310551F08091090593
:102BA00090910A05820F931F90930A05809309055F
:102BB00028960FB6F894DEBF0FBECDBFCF91DF9140
:102BC0001F910F910895EF92FF920F931F93DF9340
:102BD000CF93CDB7DEB7E4970FB6F894DEBF0FBE44
:102BE000CDBF0E948C090E94F11F2FA738AB49ABC3
:102BF0005AAB6BAB7CABAFE2B5E0FE01BF9686E0B3
:102C000001900D928150E1F784E00E94C839892B30
:102C100009F0BEC08091E504882309F0B9C0009195
:102C20003001013009F0B4C08091EB04882309F031
:102C3000AFC00093E5048091E6048823D1F480912D
:102C40003C0190913D0197FD0FC08FEF9FEF909356
:102C50003D0180933C011092260582E891E06AE0F4
:102C600071E040E00E94D72C0E946D110E948814F0
:102C70008FC00E940D386854744F8F4F9F4F6093E0
:102C80001E0570931F058093200590932105809168
:102C9000F104882391F5809134018F5F8093340192
:102CA000883010F000933401B8E1EB2EF12CEC0EDB
:102CB000FD1EC70166E275E00E9469038091340140
:102CC00090E08E010F5F1F4FB8014AE050E00E9474
:102CD000BF03C701B8010E949903C7016EE071E00C
:102CE0000E9499038091350190913401899F802D34
:102CF000112480935C07C70129C0813061F5809160
:102D0000F0048F5F8093F004833010F01092F00491
:102D10008E010D5F1F4FC80166E175E00E946903D7
:102D20008091F00490E07E010894E11CF11CB70151
:102D30004AE050E00E94BF03C801B7010E94990316
:102D4000C8016EE071E00E949903C80160E040E0B4
:102D50000E94000B1DC08230B9F4809136018F5F54
:102D600080933601893018F081E0809336010E940B
:102D70000D048E010D5F1F4FC80166E075E00E94D3
:102D8000690380913601CECF833011F40E94A00FE9
:102D900084E00E94C839892B09F03AC28091E50489
:102DA000882309F035C290913001913009F030C28A
:102DB0008091EB04882309F42BC29093E5041092D0
:102DC000EC041092ED0480913205809339018091DA
:102DD00033058093F504809134058093F6040E94B6
:102DE000720FB0C08091E504882309F0ABC0009158
:102DF0003001013009F0A6C00093E5040E940D38AF
:102E00006854744F8F4F9F4F60931E0570931F053A
:102E100080932005909321058091E6048823F1F5A5
:102E20000093E6040E940D386093220570932305F9
:102E300080932405909325058091070590910805BE
:102E4000909300058093FF048091090590910A05F5
:102E500090930205809301051092080510920705D2
:102E600010920A05109209058091C701882321F06C
:102E700084EC91E00E941B278091EB04882321F4CD
:102E80008091EF04882399F01092EF041092EB04E4
:102E900081E08093E8041092400109C08091F10420
:102EA0008F5F8093F104843010F01092F1048091D0
:102EB000F104882359F48E01085E1F4FC80164EFA6
:102EC00074E00E9469038091340119C0813059F483
:102ED0008E010D5F1F4FC80164EE74E00E9469030C
:102EE0008091F0040CC08230F1F48E010D5F1F4F11
:102EF000C80164ED74E00E9469038091360190E09E
:102F00007E010894E11CF11CB7014AE050E00E94E8
:102F1000BF03C801B7010E949903C8016EE071E0C8
:102F20000E9499030AC0833069F48E010D5F1F4F20
:102F3000C80160EC74E00E946903C80160E040E0F1
:102F40000E94000B8091E604813009F0C1C00E940C
:102F50000D3820911E0530911F054091200550919C
:102F60002105261737074807590708F0B1C0109206
:102F7000E6048AE395E060E070E00E94E81D40917D
:102F80003401841731F08AE395E060E070E00E943C
:102F9000EF1D8AE395E061E070E00E94E81D40913A
:102FA000F004841731F08AE395E061E070E00E945C
:102FB000EF1D8AE395E062E070E00E94E81D409119
:102FC0003601841731F08AE395E062E070E00E94F8
:102FD000EF1D1092F1048091FF04909100059093F1
:102FE0000805809307058091010590910205909353
:102FF0000A05809309058091F0048230F9F48091EC
:103000000B0590910C0562E070E00E94F53D709513
:1030100061957F4F685F7F4F709308056093070548
:1030200080910D0590910E0562E070E00E94F53DE3
:103030006850704070930A0560930905E09012058E
:10304000F090130500911405109115050E940D389C
:1030500020912205309123054091240550912505AA
:10306000E21AF30A040B150BE60EF71E081F191FD0
:10307000E0921205F09213050093140510931505C4
:10308000E0901605F09017050091180510911905AC
:103090000E940D382091220530912305409124058E
:1030A00050912505E21AF30A040B150BE60EF71EE4
:1030B000081F191FE0921605F092170500931805D6
:1030C000109319058091E804882311F40E94881454
:1030D0008091E604882309F0A2C09091EB04992323
:1030E00029F08091EF04813009F08BC09091340574
:1030F0008091F6049817C1F09093F6042091F7049C
:103100003091F8042F5F3F4F3093F8042093F70479
:103110008091EF04813041F48091370190E02817CD
:10312000390714F00E94A00F8091E804813039F42F
:103130008091EB04882319F41092E80417C0809161
:1031400036018830B9F08091EB04882399F480919E
:10315000EF04882379F42091F7043091F8048091EA
:103160003A0190913B012817390724F00E946D1114
:103170000E94881480913E0190913F018F5F9F4F84
:1031800021F08091F004823029F48091E3048823B7
:1031900009F045C00E940D382091120530911305A9
:1031A0004091140550911505621773078407950720
:1031B000B0F18091EB04882391F50E94DF090E9411
:1031C0000D3820913E0130913F01442737FD409555
:1031D000542F260F371F481F591F20931205309375
:1031E000130540931405509315058091FD049091AB
:1031F000FE0401969093FE048093FD040E948814BF
:103200000EC0913061F4882351F40E94721007C0FF
:1032100085E00E94C839892B09F094CEE3CDE4966D
:103220000FB6F894DEBF0FBECDBFCF91DF911F91D7
:103230000F91FF90EF9008950E94E3150895EF928B
:10324000FF920F931F93CF93DF93EC018B017A01D1
:1032500080913508882309F04DC085E398E00E94ED
:10326000BE3B892B09F446C010922708109226080D
:103270008FEF80932A0880932B0880932C088093EB
:103280002D0880932E0880932F0881E080933008CA
:1032900010923208109231081092290810922808D2
:1032A0008091630790916407892B31F484E298E060
:1032B0009093640780936307E0916507F091660738
:1032C000309721F084E298E09583848384E298E04B
:1032D0009093660780936507109234081092330824
:1032E00089E591E0909325088093240885E398E090
:1032F0000E94C83B84E298E0BE01A80197010E94A9
:103300002A35DF91CF911F910F91FF90EF90089593
:10331000CF92DF92EF92FF920F931F93DF93CF93A1
:10332000CDB7DEB729970FB6F894DEBF0FBECDBF7D
:1033300083E061E00E94353983E064E670E00E943A
:10334000D538F89414BE8091600088618093600045
:1033500080E480936000789484E060E00E943539D6
:1033600085E060E00E94353984E061E00E947439B4
:1033700085E061E00E9474390E949B200E945E09F2
:103380008AE395E060E070E00E94E81D982F81508C
:10339000873010F4909334018AE395E061E070E0A7
:1033A0000E94E81D833010F48093F0048AE395E0D6
:1033B00062E070E00E94E81D982F8150883010F480
:1033C000909336010E940D048FED91E060E071E072
:1033D00040E050E00E941F19FC018FEF868380EBD4
:1033E000878380EF80878CE597E060E00E94BA36A3
:1033F0008091350190913401899F802D1124809313
:103400005C0784E00E94C839892B09F0C6C085E0BA
:103410000E94C839892B09F0C0C0FFCF81E080939A
:1034200034018091350180935C071092F00482E0B2
:10343000809336010E940D0484E00E94C839892BD4
:1034400019F481E08093E90482E098E06BE675E08E
:103450000E94F63B82E891E069E040E00E94262D60
:10346000882349F482E098E066E675E00E94413CDA
:103470000E94F20999C082E098E062E675E00E943D
:10348000413C00E010E07E010894E11CF11C30E8B2
:10349000C32EDD24DA9484EC91E065EA71E0A801A2
:1034A00021E00E948C288091C701823008F444C03A
:1034B00082E098E06EE575E00E94413C8091E9046D
:1034C0008130A1F48091F9049091FA04FC01EE0F8F
:1034D000FF1FE80FF91FE152FE4FC082D182128216
:1034E0008CE597E060915C070E94D9368091F904E1
:1034F0009091FA0401969093FA048093F90482E083
:1035000098E061E575E00E94F63B82E098E0B80142
:103510004AE050E00E94813D84EC91E0B7010E94B6
:103520005D2582E098E068E475E00E94F63B82E069
:1035300098E0B7010E94A33D84EC91E00E941B2714
:103540000F5F1F4F88E00030180709F0A4CF60918B
:10355000F9047091FA0482E098E04AE050E00E9499
:103560006E3D82E098E068E375E00E94413C809106
:10357000E904813031F468E873E180E090E00E9472
:10358000413882E891E060E471E040E00E94D72C8D
:103590000E9432070E94881407C085E00E94C83943
:1035A000892B09F049CF3ACF29960FB6F894DEBFA0
:1035B0000FBECDBFCF91DF911F910F91FF90EF9084
:1035C000DF90CF9008952F923F924F925F926F922B
:1035D0007F928F929F92AF92BF92CF92DF92EF92A3
:1035E000FF920F931F93DF93CF93CDB7DEB72E9744
:1035F0000FB6F894DEBF0FBECDBF4C015A01F901E2
:103600001E2DDC011C969C917A8369835C834B831D
:1036100080818B8781818C8782818D87913029F48D
:10362000CE0101960E94A30406C01A861986188648
:103630001F821E821D8289819A81810F911D9A832A
:103640008983002311F480E002C0812F8D5F8E8773
:103650000E941B38F40127853089621B730B6A3086
:103660007105B0F3F89439814A81CBB0F0E4CF2AE8
:10367000DBB0BFEB4B2ED420DBB879858E81781B75
:103680007E83E981FA818181882311F420E004C0DE
:10369000282F270F08F42FEF832F942FFC01FC8491
:1036A000622F2F2D629F612D1124EE840B811C81CE
:1036B0003B842D849D818F81598478846A8450E075
:1036C00040E030E020E09AC1A52DA71B7A2FB72D4E
:1036D000B91B9B2F462C481A842D00140150104012
:1036E000D801CBB8002C002C67FFDBB82081332732
:1036F000889400C000C0002CDBB82111290F00C045
:10370000002CCBB8002C002C66FFDBB808F42FEFA0
:10371000889400C000C0002C002CDBB830FC320FB5
:1037200000C0002CCBB8002C002C65FFDBB837950F
:10373000889431FC320F00C000C0002CDBB83795F4
:10374000889400C0002CCBB8002C002C64FFDBB8A0
:1037500032FC320F3795889400C000C0002CDBB8D3
:1037600033FC320F00C0002CCBB8002C002C63FFC0
:10377000DBB83795889434FC320F00C000C0002CB1
:10378000DBB83795889400C0002CCBB8002C002CF7
:1037900062FFDBB835FC320F3795889400C000C05B
:1037A000002CDBB836FC320F00C0002CCBB8002C4C
:1037B000002C61FFDBB83795889437FC320F00C0CE
:1037C00000C0002CDBB83795889400C0002CCBB823
:1037D000002C002C60FFDBB800C000C000C000C09F
:1037E000002CDBB800C000C0002CCBB8002C002C93
:1037F00037FFDBB822814427889400C000C0002C2A
:10380000DBB82111280F00C0002CCBB8002C002CF5
:1038100036FFDBB808F42FEF889400C000C0002CFE
:10382000002CDBB820FC420F00C0002CCBB8002CD1
:10383000002C35FFDBB84795889421FC420F00C06F
:1038400000C0002CDBB84795889400C0002CCBB892
:10385000002C002C34FFDBB822FC420F47958894E3
:1038600000C000C0002CDBB823FC420F00C0002CBD
:10387000CBB8002C002C33FFDBB84795889424FC90
:10388000420F00C000C0002CDBB84795889400C0F0
:10389000002CCBB8002C002C32FFDBB825FC420FEB
:1038A0004795889400C000C0002CDBB826FC420F6E
:1038B00000C0002CCBB8002C002C31FFDBB84795A2
:1038C000889427FC420F00C000C0002CDBB847954D
:1038D000889400C0002CCBB8002C002C30FFDBB843
:1038E000EE0DF11D889400C000C0002C002CDBB848
:1038F00000C000C0002CCBB8002C002C47FFDBB868
:1039000021816627889400C000C0002CDBB82111FB
:10391000270F00C0002CCBB8002C002C46FFDBB8D2
:1039200008F42FEF889400C000C0002C002CDBB8F6
:10393000F0FC620F00C0002CCBB8002C002C45FF1F
:10394000DBB867958894F1FC620F00C000C0002CC2
:10395000DBB86795889400C0002CCBB8002C002CF5
:1039600044FFDBB8F2FC620F6795889400C000C08A
:10397000002CDBB8F3FC620F00C0002CCBB8002C8D
:10398000002C43FFDBB867958894F4FC620F00C0FD
:1039900000C0002CDBB86795889400C0002CCBB821
:1039A000002C002C42FFDBB8F5FC620F6795889471
:1039B00000C000C0002CDBB8F6FC620F00C0002C79
:1039C000CBB8002C002C41FFDBB867958894F7FC3E
:1039D000620F00C000C0002CDBB86795889400C05F
:1039E000002CCBB8002C002C40FFDBB800C000C07E
:1039F00000C000C0002CDBB88D01002C01151105A2
:103A000009F062CEB501882777FD8095982F20EECA
:103A100031E040E050E00E94B63DA4E096958795E5
:103A200077956795AA95D1F798014AE9A49E212D2B
:103A3000B49E200D311D112440E050E0260F371FA9
:103A4000481F591F293EB3E03B07B0E04B07B0E0E9
:103A50005B0790F1285E334040405040F2E05695BD
:103A6000479537952795FA95D1F787E0289F012D3F
:103A7000389F000D111D112480913805280F311D2C
:103A8000200F311F4091750750917607609177079D
:103A900070917807832F9927A0E0B0E0840F951FDD
:103AA000A61FB71F8093750790937607A09377079B
:103AB000B09378072093380578940E941B38F4015E
:103AC000708B67872E960FB6F894DEBF0FBECDBF02
:103AD000CF91DF911F910F91FF90EF90DF90CF90EA
:103AE000BF90AF909F908F907F906F905F904F901E
:103AF0003F902F900895EF92FF920F93DF93CF9313
:103B000000D00F92CDB7DEB7AB0119821A821B82AB
:103B10009E012F5F3F4FB90100E0EE24FF240E9479
:103B2000E31A0F900F900F90CF91DF910F91FF90BC
:103B3000EF900895EF92FF920F9301E0EE24FF249F
:103B40000E94E31A0F91FF90EF900895EF92FF9279
:103B50000F9300E0EE24FF240E94E31A0F91FF90E0
:103B6000EF900895882319F48CB5806202C08CB55B
:103B70008F7D8CBD08959CB5937F982B9CBD089537
:103B80002CB5382F33702C7F322B3CBD2DB590E0F7
:103B9000959587959595879581702E7F822B8DBD04
:103BA00008958AE061E00E9474398AE061E00E9431
:103BB00035398CB580618CBD8CB580648CBD8DE051
:103BC00061E00E9435398BE061E00E94353908954B
:103BD000F999FECF72BD61BDF89A80B50895F99943
:103BE000FECF1FBA72BD61BD40BD0FB6F894FA9A00
:103BF000F99A0FBE0895982F6A3010F060E021C046
:103C0000809144058823E1F781E0809344058FEF9C
:103C100080934505109246056150609347056F5F9C
:103C2000990F91609093480585EE8093BC00809138
:103C300044058130E1F380914605861710F46091C8
:103C40004605862F08951F920F920FB60F921124EA
:103C50008F939F93EF93FF938091B90090E0887FBB
:103C6000907088329105B9F189329105A4F48031C0
:103C7000910561F1813191053CF4009709F48FC001
:103C8000089709F097C022C08831910521F18097EB
:103C900009F090C03BC08034910509F460C08134C4
:103CA00091053CF480339105E1F1C89709F082C099
:103CB00043C08035910509F446C08835910509F463
:103CC0005AC08834910509F075C061C080914805DB
:103CD0008093BB004CC09091460580914705981792
:103CE00068F490914605E92FF0E0E55CFA4F808199
:103CF0008093BB009F5F9093460539C085ED80930C
:103D0000BC008091BC0084FDFCCF52C080E2809357
:103D1000450585ED8093BC008091BC0084FDFCCFFF
:103D200047C080E38093450585ED8093BC0080917A
:103D3000BC0084FDFCCF3CC088E38093450585EC46
:103D40008093BC0035C080914605E82FF0E090914B
:103D5000BB00E55CFA4F90838F5F8093460590919E
:103D6000460580914705981710F085E801C085EC5D
:103D70008093BC001FC080914605E82FF0E0909131
:103D8000BB00E55CFA4F90838F5F8093460585ED1D
:103D90008093BC008091BC0084FDFCCF09C01092D0
:103DA000450585ED8093BC008091BC0084FDFCCF6F
:103DB00010924405FF91EF919F918F910F900FBE4C
:103DC0000F901F901895EF92FF920F931F93CF9330
:103DD000DF93EC017A018B0180E89CEBA2E9B7EC60
:103DE000E80EF91E0A1F1B1FC801B7012CE330E0C3
:103DF00040E050E00E94083E6D83C801B7012CE30B
:103E000030E040E050E00E94083E122F032FF42ED5
:103E1000E52E622F732F842F952F2CE330E040E0A6
:103E200050E00E94083E6C83612F702F8F2D9E2DD5
:103E30002CE330E040E050E00E94083E122F032FB8
:103E4000F42EE52E622F732F842F952F28E130E07A
:103E500040E050E00E94083E6B83612F702F8F2D51
:103E60009E2D28E130E040E050E00E94083E60E0F6
:103E7000A3E9BEEF70E0862F90E083709070892BED
:103E800009F471E0E62FEF5F472F50E0CA01835934
:103E90009E4F2817390738F0CD01841B950B280F4A
:103EA000391F6E2FE7CF688341E0E42FF0E0EC5834
:103EB000FA4F8491772319F0423009F48F5F90E034
:103EC000542F5F5F2817390720F0281B390B452F27
:103ED000ECCF4983822F8F5F8A83DF91CF911F912F
:103EE0000F91FF90EF900895CF92EF920F93FC0106
:103EF00087E0603D780710F0605D77406083418324
:103F000022830383E482C5820F91EF90CF900895BE
:103F1000FC0110923B052581822F6AE00E94D53D6D
:103F200036E0839FC0011124280F20933C05248193
:103F3000822F0E94D53D839FC0011124280F20931A
:103F40003D052381822F0E94D53D839FC00111240E
:103F5000280F20933E0510923F052281822F0E9458
:103F6000D53D839FC0011124280F20934005218156
:103F7000822F0E94D53D839FC0011124280F2093DA
:103F800041052081822F0E94D53D839FC0011124CD
:103F9000280F209342051092430580914405882301
:103FA000E1F782E0809344058FEF809345051092FE
:103FB000460589E08093470580ED8093480585EEAE
:103FC0008093BC00809144058230E1F380914505E7
:103FD0008F3F31F080914505803211F08091450589
:103FE0000895DF93CF9300D000D000D0CDB7DEB7D7
:103FF00010923B05809144058823E1F782E080938D
:1040000044058FEF809345051092460581E080932B
:10401000470580ED8093480585EE8093BC00809134
:1040200044058230E1F3809145058F3F31F0809166
:104030004505803211F08091450588E667E00E94D1
:10404000FB1D70913B057F7760913C0550913D05CC
:1040500040913F053091400520914105822F90E02D
:10406000B4E095958795BA95E1F7EAEFFFEFDC01AB
:10407000AE9FC001AF9F900DBE9F900D1124280FE1
:10408000872F90E0A4E095958795AA95E1F7DC014C
:10409000AE9FC001AF9F900DBE9F900D1124780F71
:1040A000862F90E0B4E095958795BA95E1F7DC010D
:1040B000AE9FC001AF9F900DBE9F900D1124680F61
:1040C000852F90E0A4E095958795AA95E1F7DC010E
:1040D000AE9FC001AF9F900DBE9F900D1124580F51
:1040E000842F90E0B4E095958795BA95E1F7DC01CF
:1040F000AE9FC001AF9F900DBE9F900D1124480F41
:10410000832F90E0A4E095958795AA95E1F7DC01CF
:10411000AE9FC001AF9F900DBE9F900D1124380F30
:1041200080E090E026960FB6F894DEBF0FBECDBFBC
:10413000CF91DF9108951092440582E161E00E94E1
:10414000743983E161E00E947439E9EBF0E0808129
:104150008E7F808380818D7F808388E48093B80008
:1041600085E48093BC0081E008958091C10085FDC5
:10417000FCCF8091C00085FFF8CF6093C60081E03E
:1041800090E0089510924C0510924B0585E691E061
:1041900090934A05809349050895FF920F931F93CA
:1041A000CF93DF938B010E940D38EB01FF24FA942B
:1041B00009C00E940D386C1B7D0B6017710710F051
:1041C00080E008C0FEBC0DB407FEFDCF8EB58F3F6A
:1041D00081F781E0DF91CF911F910F91FF900895BA
:1041E000FC01808161E00E9474398FEF8EBD0DB4B7
:1041F00007FEFDCF8EB50895DC016EBD0DB407FE40
:10420000FDCF8EB520E030E0FA01E20FF31F808190
:104210008EBD0DB407FEFDCF8EB52F5F3F4F82E000
:104220002030380789F78FEF8EBD0DB407FEFDCF24
:104230008EB58FEF8EBD0DB407FEFDCF8EB58FEF1F
:104240008EBD0DB407FEFDCF8EB513968C931397DC
:104250008F71853011F481E0089583E111968C937C
:104260001197CD010E94F02080E00895BF92CF9277
:10427000DF92EF92FF920F931F93CF93DF93EC01A6
:104280006B017A010E940D388B01BB24BA9409C0DE
:104290000E940D38601B710B6D52714010F081E16E
:1042A0000FC0BEBC0DB407FEFDCF8EB58B838F3F14
:1042B00079F38E3F21F420E030E09FEF12C08FE0D1
:1042C0008983CE010E94F02080E01FC09EBD0DB406
:1042D00007FEFDCF8EB5F601E20FF31F80832F5F3F
:1042E0003F4F2E153F0590F31B828FEF8EBD0DB40F
:1042F00007FEFDCF8EB58FEF8EBD0DB407FEFDCF4F
:104300008EB5CE010E94F02081E0DF91CF911F9108
:104310000F91FF90EF90DF90CF90BF9008951F9383
:10432000182F81E00E94B21D80E00E94BB1D1695EF
:104330001230A1F0133028F4112369F01130D1F4B8
:1043400007C0143089F0143060F0153099F40FC0B4
:1043500080E090E011C084E090E00EC085E090E045
:104360000BC081E090E008C086E090E005C082E0EC
:1043700090E002C083E090E00E94C01D1F9108956C
:104380000F931F938C01FC0182810E948F21F80101
:10439000808160E00E9474391F910F910895FF920F
:1043A0000F931F93DF93CF9300D000D0CDB7DEB72C
:1043B0008C01F62E29833A834B835C830E94C021B3
:1043C000C8016CE271E00E94CD208F2D80648EBD0B
:1043D0000DB407FEFDCF8EB5FE0131969E01235030
:1043E000304083818EBD0DB407FEFDCF8EB5319771
:1043F000E217F307B1F7FF2011F087E801C085E964
:104400008EBD0DB407FEFDCF8EB58CE0F81631F4ED
:104410008FEF8EBD0DB407FEFDCF8EB59FEF2FEF52
:104420002EBD0DB407FEFDCF8EB587FF04C09923C6
:1044300011F09150F5CFF80183830F900F900F90FA
:104440000F90CF91DF911F910F91FF900895CF9220
:10445000DF92EF92FF920F931F93CF93DF93EC01C4
:104460007A018B0169018C81833039F099E0EE0C7F
:10447000FF1C001F111F9A95D1F7CE0168E1A8011A
:1044800097010E94CF21882311F086E023C0CE013E
:104490006EEFA6010E94FC208823E9F0CE0168E5BA
:1044A00072E00E94CD20882311F487E113C0CE0171
:1044B0006DE020E030E040E050E00E94CF21882312
:1044C00041F48FEF8EBD0DB407FEFDCF8EB588236E
:1044D00079F086E18983CE010E94F02080E0DF91AF
:1044E000CF911F910F91FF90EF90DF90CF900895A3
:1044F000CE010E94F02081E0F2CFCF92DF92EF92C6
:10450000FF920F931F93CF93DF93EC017A018B01FE
:1045100069018C81833039F0B9E0EE0CFF1C001F7B
:10452000111FBA95D1F7CE0161E1A80197010E9450
:10453000CF21882339F084E08983CE010E94F020C6
:1045400080E006C0CE01B60140E052E00E94362174
:10455000DF91CF911F910F91FF90EF90DF90CF905F
:104560000895BF92CF92DF92EF92FF920F931F9325
:10457000CF93DF93EC01B62E1C82198248830E94F0
:104580000D386B01888161E00E943539888161E0D6
:104590000E9474390E94D11D8BE08A830E948F2172
:1045A00080E09FEF9EBD0DB407FEFDCF2EB58F5F5F
:1045B0008A30C1F709C00E940D386C197D09615D10
:1045C000774010F081E063C0CE0160E020E030E091
:1045D00040E050E00E94CF21813069F71FEFCE010B
:1045E00068E02AEA31E040E050E00E94CF218530C7
:1045F00011F481E00DC080E01EBD0DB407FEFDCFBB
:104600009EB58F5F8430C1F79B839A3A31F482E084
:104610008C838C81823051F40DC00E940D386C194E
:104620007D09615D7740D8F282E031C0EE24FF243D
:1046300087010FC0E12CF12C012D80E4182F09C057
:104640000E940D386C197D09615D774010F08AE099
:104650001EC0CE0167E320E030E040E050E00E9461
:10466000CF21CE0169E2A80197010E94CF218823C2
:1046700039F78C81823029F5CE016AE320E030E001
:1046800040E050E00E94CF21882331F088E0898308
:10469000CE010E94F02021C08FEF8EBD0DB407FE29
:1046A000FDCF8EB5807C803C11F483E08C8380E06C
:1046B0009FEF9EBD0DB407FEFDCF2EB58F5F8330FB
:1046C000C1F7CE010E94F0208EE08B1518F488E12E
:1046D000898303C0BA8281E001C080E0DF91CF917D
:1046E0001F910F91FF90EF90DF90CF90BF900895B2
:1046F000CF93DF93EB01DC0190E020E03EE28C9170
:10470000803269F0283029F4FE01E90FF11D308371
:104710009F5FFE01E90FF11D8C9180839F5F2F5FEA
:1047200011962B3061F7C90FD11D1882DF91CF91FF
:1047300008950F931F93CF93DF93DC01EB018A0160
:1047400080E090E020E2FE01E80FF91F208301964F
:104750008B309105C1F757E040E024C0622F2E3224
:1047600019F081E895E007C05A3051F15AE048E06D
:1047700018C0321729F1FC01019634913323C9F78F
:104780005417F0F02132E0F02F37D0F4822F815609
:104790008A3110F4622F6052FE01E40FF11D608334
:1047A0004F5F11962C91222311F02F32B9F6F801A8
:1047B000B183A08390E08881803219F091E001C03C
:1047C00090E0892FDF91CF911F910F910895CF92A3
:1047D000DF92EF92FF920F931F93DF93CF9300D05E
:1047E00000D0CDB7DEB77C01FC018789908DA18D0B
:1047F000B28D89839A83AB83BC8300E010E06E01A5
:104800000894C11CD11C49815A816B817C81D701DC
:1048100015968D919C91169796010E940B308823D6
:1048200079F1D7011596ED91FC9116978481080FC7
:10483000111DB0E100301B0718F529813A814B8129
:104840005C818789803131F4285F3F4F4040504080
:10485000D0F205C0285F3F4F4F4F5F40A0F2C80124
:10486000A0E0B0E029E0880F991FAA1FBB1F2A957E
:10487000D1F7F701838B948BA58BB68B81E001C0B8
:1048800080E00F900F900F900F90CF91DF911F91CC
:104890000F91FF90EF90DF90CF900895CF93DF932B
:1048A000EC01FB018B818823D1F57E836D838789A1
:1048B0008031C9F582E08B831F8A188E198E1A8E7B
:1048C000808D918DA0E0B0E035E0880F991FAA1F80
:1048D000BB1F3A95D1F78B8B9C8BAD8BBE8B0FC0DA
:1048E00083E08B83828D938DA48DB58D8F8B988F74
:1048F000A98FBA8FCE010E94E723882381F081E03F
:1049000089831F82188619861A861B861C861D8637
:104910001E861F86188A198A1A8A1C8201C080E0A6
:10492000DF91CF9108958032D1F7DACF6F927F92E5
:104930008F929F92AF92BF92CF92DF92EF92FF92AF
:104940000F931F93CF93DF93EC017A018B012B819F
:10495000222309F480C08B899C89AD89BE89841784
:104960009507A607B70708F476C085C0E114F104DF
:104970000105110551F41F82188619861A861B86B7
:104980001C861D861E8681E067C02B853C854D8573
:104990005E85ED81FE81858590E00996215030404D
:1049A0004040504039014A01082E04C09694879433
:1049B000779467940A94D2F72F5F3F4F4F4F5F4F22
:1049C0000894E108F108010911095701680104C0C0
:1049D000D694C794B794A7948A95D2F70894E11C0B
:1049E000F11C011D111DA614B704C804D90428F038
:1049F000211531054105510549F48F89988DA98DFF
:104A0000BA8D8F839887A987BA8716C0A618B7086A
:104A1000C808D90811C04F81588569857A858D816C
:104A20009E8194010E940B300894A108B108C1082E
:104A3000D108882331F40FC047E0842E912C8C0ECE
:104A40009D1EA114B104C104D10429F7EB86FC8694
:104A50000D871E8798CF80E0DF91CF911F910F9136
:104A6000FF90EF90DF90CF90BF90AF909F908F908E
:104A70007F906F900895223009F078CFE7CFCF93E1
:104A8000DF93EC01462F6F85788989899A890E9486
:104A9000E22DAC01009719F420E030E00AC08C81CF
:104AA000282F30E065E0220F331F6A95E1F7240FCD
:104AB000351FC901DF91CF910895CF93DF93FC019A
:104AC000EB018381882391F08250823020F48FE2C1
:104AD0008883198209C0CF0160E00E943F250097BA
:104AE00029F0BE010E94782381E001C080E0DF91BF
:104AF000CF9108950F931F93CF93DF938C01FC0107
:104B000083818823F1F1818187FF38C0C80161E08A
:104B10000E943F25EC010097A1F18881853E89F133
:104B2000F8018381823040F483899489A589B6890C
:104B30008C8F9D8FAE8FBF8FF8018789908D9B8F53
:104B40008A8F8789908DA18DB28DCD01AA27BB2731
:104B50009D8B8C8BE0914F05F0915005309751F073
:104B6000BE016A5E7F4FCE0148960995888D998D6A
:104B70009B8B8A8BF80181818F7781830E94992D8D
:104B800004C081E0F801808380E0DF91CF911F9124
:104B90000F9108956F927F928F929F92AF92BF92E2
:104BA000CF92DF92EF92FF920F931F93DF93CF93F9
:104BB00000D000D0CDB7DEB77C015A016B01DC011B
:104BC00013968C911397813009F091C011968C91B6
:104BD00081FF8DC0A0C00097A105B10511F481E04F
:104BE00087C0F7016384748485849684C701B60105
:104BF000A5010E949624882309F479C0D70115964F
:104C00008D919C911697A114B104C104D10489F42B
:104C100057964D915D916D917C915A970E947A3093
:104C2000882309F464C0F701178A108E118E128E42
:104C300044C0D70117964D915D916D917C911A9763
:104C40009E012F5F3F4F0E940B30882309F44FC015
:104C5000D7011596ED91FC91169749815A816B8188
:104C60007C818789803149F4483FBFEF5B07B0E022
:104C70006B07B0E07B0748F020C0483F8FEF580734
:104C80008FEF68078FE07807C0F4CF010E947A3079
:104C9000882369F1D70117964D915D916D917C91B3
:104CA0001A9715968D919C9116970FEF1FEF2FEF86
:104CB0003FE00E949B2F8823D1F0F701A38AB48A9A
:104CC000C58AD68A818180688183C7010E947A253E
:104CD000882369F0B601A5016A147B048C049D0445
:104CE00010F4B401A301C7010E94962401C080E022
:104CF0000F900F900F900F90CF91DF911F910F9118
:104D0000FF90EF90DF90CF90BF90AF909F908F90EB
:104D10007F906F900895F70183899489A589B6895A
:104D200084179507A607B70708F055CFE0CF1F9364
:104D3000CF93DF93EC01142F262F30E0F90185E0AB
:104D4000EE0FFF1F8A95E1F7EF5AFA4F83858171C5
:104D500021F0842F827109F064C0809151079091F5
:104D60005207A0915307B09154078F87988BA98B56
:104D7000BA8B6C83F901B5E0EE0FFF1FBA95E1F72E
:104D8000EF5AFA4F2489358940E050E0A9013327D2
:104D900022272F8B388F498F5A8F828D938DA0E0D9
:104DA000B0E0282B392B4A2B5B2B2F8B388F498F68
:104DB0005A8F838590E088719070009751F4848DAC
:104DC000958DA68DB78D8B8B9C8BAD8BBE8B81E02B
:104DD00008C0409731F5CE010E94E723882309F1EE
:104DE00084E08B83812F8F7089831F8218861986B8
:104DF0001A861B861C861D861E8614FF18C0CE01CF
:104E000040E050E060E070E00E94CA25882379F419
:104E100008C04B895C896D897E89CE010E949624E9
:104E200002C01B8280E0DF91CF911F91089515FD94
:104E3000F0CF81E0F8CF0F931F938C010E947A2569
:104E4000F80113821F910F9108952F923F924F9274
:104E50005F926F927F928F929F92AF92BF92CF920A
:104E6000DF92EF92FF920F931F93DF93CF9300D0C7
:104E7000CDB7DEB74C011A01DC0113968C91139764
:104E8000882309F4B4C011968C9180FFB0C0C7C0CC
:104E900015012E183F082B01F4013796FA83E98398
:104EA00031019FC0D4011B962D913D914D915C9194
:104EB0001E979FEFA92E91E0B92EA222B32215963C
:104EC000ED91FC91169779018A0189E01695079575
:104ED000F794E7948A95D1F7948113968C91823058
:104EE00049F4428D538D648D758D4E0D5F1D601F8D
:104EF000711F35C0D92EDA94DE20A114B10401F55A
:104F0000DD20F1F4211531054105510551F4F4017D
:104F10008789908DA18DB28D87839087A187B28775
:104F20000FC0D40117964D915D916D917C911A97A8
:104F3000CF0129813A810E940B30882309F457C0A0
:104F4000F4014781508561857285858196810E9433
:104F5000792DAB01BC014D0D511D611D711DA114B9
:104F6000B10499F4F0E06F16F2E07F0670F08091E2
:104F7000510790915207A0915307B09154074817D9
:104F800059076A077B0709F067C0CB01BA0140E007
:104F90000E94E22D009759F140E052E04A195B0966
:104FA00083014615570508F48A019C012A0D3B1D13
:104FB000C201B901A8010E947D03400E511E980153
:104FC00040E050E0F40183859485A585B685820F85
:104FD000931FA41FB51F83879487A587B687601A80
:104FE000710A6114710409F05DCFA10102C04FEF95
:104FF0005FEFCA010F900F90CF91DF911F910F913A
:10500000FF90EF90DF90CF90BF90AF909F908F90E8
:105010007F906F905F904F903F902F900895D401B4
:105020005396AD90BD90CD90DC9056971B96ED9029
:10503000FD900D911C911E979A0140E050E0D60121
:10504000C5018E199F09A00BB10B281739074A0714
:105050005B0708F01DCF1FCF80915A0790915B0727
:1050600092010E947D22882311F200E012E0A5CF78
:10507000DF93CF930F92CDB7DEB7BE016F5F7F4F47
:1050800041E050E00E942527019719F02FEF3FEFF4
:1050900003C08981282F30E0C9010F90CF91DF91A3
:1050A0000895EF92FF920F931F93CF93DF93EC013C
:1050B0008B81823038F1EB84FC840D851E85CE0116
:1050C0000E94382897FD1EC08B859C85AD85BE85C6
:1050D0004F96A11DB11D8B879C87AD87BE8755E07C
:1050E00016950795F794E7945A95D1F72E2D30E051
:1050F0002F70307045E0220F331F4A95E1F72F5A89
:105100003A4F02C020E030E0C901DF91CF911F91FA
:105110000F91FF90EF900895DF92EF92FF920F931F
:105120001F93CF93DF938C01EB017A01D22E8D81F7
:105130009E81F801968385838381882329F56115F3
:10514000710559F521C0A70175E0440F551F7A95E7
:10515000E1F760E070E0CE010E9496248823A1F080
:10516000CE010E945128FC01009771F080818823B4
:1051700059F0853E49F08E3239F06E2D6F70C801BE
:105180004D2D0E94972601C080E0DF91CF911F91A5
:105190000F91FF90EF90DF90089527FFD4CFF4CFC9
:1051A000CF93DF93EC019C01295F3F4F8D819E815E
:1051B00041E050E060E070E00E94D8308823A1F028
:1051C0008F89988DA98DBA8D0097A105B10559F4E5
:1051D0008F819885A985BA858F8B988FA98FBA8F73
:1051E00089818068898381E0DF91CF9108952F9232
:1051F0003F924F925F926F927F929F92AF92BF9237
:10520000CF92DF92EF92FF920F931F93DF93CF9392
:1052100000D000D0CDB7DEB76C01162F072F1A01D2
:10522000DC0113968C911397813009F046C11196D9
:105230008C9181FF42C15DC1F60143895489658922
:10524000768983859485A585B68584179507A607F5
:10525000B70731F0C6010E949624882309F42DC1B6
:10526000812F902F9C0129013101EDC0D6011596A7
:10527000ED91FC911697DA01C90169E0B695A79501
:10528000979587956A95D1F794809A9498225FEFC5
:10529000A52E51E0B52EA222B322992009F052C0CA
:1052A000A114B10409F04EC0D60117964D915D913D
:1052B0006D917C911A97411551056105710571F148
:1052C000CF019E012F5F3F4F0E940B30882309F4CE
:1052D000F4C029813A814B815C81D6011596ED910C
:1052E000FC9116978789803149F4283FBFEF3B072F
:1052F000B0E04B07B0E05B0748F019C0283FEFEF84
:105300003E07EFEF4E07EFE05E0788F4D6011796F1
:105310002D933D934D935C931A9714C0F6018789A2
:10532000908DA18DB28D0097A105B10531F4C60114
:105330000E94D028882331F4C0C0F601878390876B
:10534000A187B287D60117964D915D916D917C91A1
:105350001A9715968D919C9116970E94792D7B0135
:105360008C01E90CF11C011D111DA114B104A9F45B
:10537000B0E06B16B2E07B06A8F5F6012385348514
:105380004585568583899489A589B6892817390763
:105390004A075B0710F045E001C041E0C801B701D2
:1053A0000E94E22D009709F488C040E052E04A19BB
:1053B0005B0983014615570508F48A019C012A0DF3
:1053C0003B1DC901B201A8010E947D03A00EB11EC0
:1053D000F0E0AF16F2E0BF0611F50E94DF2D882342
:1053E000F1F46BC08091510790915207A09153073F
:1053F000B09154078E159F05A007B10711F40E94C4
:105400006A2D80915A0790915B07B801A70192011C
:105410000E942722882309F450C000E012E098017E
:1054200040E050E0F60183859485A585B685820F1E
:10543000931FA41FB51F83879487A587B687400E47
:10544000511E601A710AD6011B962D913D914D9106
:105450005C911E976114710409F008CF53968D91E9
:105460009D910D90BC91A02D82179307A407B507BD
:1054700048F4F601238B348B458B568B81818068F1
:10548000818310C080914F0590915005892B51F078
:105490002114310439F0D60111968C91119780684E
:1054A00011968C93F601818183FF05C0C6010E948D
:1054B0007A25882311F0A10105C081E0D6018C93E3
:1054C0004FEF5FEFCA010F900F900F900F90CF91A9
:1054D000DF911F910F91FF90EF90DF90CF90BF90E1
:1054E000AF909F907F906F905F904F903F902F90E4
:1054F000089582FDA1CEB4CE9F92AF92BF92CF927B
:10550000DF92EF92FF920F931F93CF93DF938C0163
:10551000FC0183899489A589B689805E9F4FAF413C
:10552000B04008F05CC0C8010E94D028882309F46C
:1055300056C0D80117964D915D916D917C911A9747
:1055400015968D919C9116970E94792D5B016C01A7
:1055500045E00E94E22DEC01009709F442C080E092
:1055600092E0FE019C01119221503040E1F79C2E07
:10557000ED2EFF24F39411C0B601A5014F0D511D6E
:10558000611D711D80915A0790915B07292D3E2D59
:105590000E942722882319F1F394D8011596ED91E2
:1055A000FC9116972481F21638F330E040E050E089
:1055B00089E0220F331F441F551F8A95D1F7539658
:1055C0008D919D910D90BC91A02D820F931FA41FD2
:1055D000B51FF801838B948BA58BB68B02C0C0E0FE
:1055E000D0E0CE01DF91CF911F910F91FF90EF900E
:1055F000DF90CF90BF90AF909F9008958F929F9231
:10560000AF92BF92CF92DF92EF92FF920F931F93D0
:10561000CF93DF936C01EB01942E852EA22E8D810A
:105620009E81D60116969C938E931597CB0140E0F0
:1056300050E060E070E00E949624BB2438C0CE01A8
:105640000E945128FC01009709F492C095E016953C
:105650000795F794E7949A95D1F71E2D1F708081D6
:10566000882311F0853EC9F4BB2099F4209151079D
:10567000309152074091530750915407D6011F961D
:105680002D933D934D935C93529714961C93BB249A
:10569000B3948081882359F418C0892D982DBF01B7
:1056A0004BE050E00E947003009709F46FC0EB8458
:1056B000FC840D851E858B899C89AD89BE89E81681
:1056C000F9060A071B0708F4BACFA6FE51C0A1FECF
:1056D0004FC0BB2051F0F6011481C60161E00E9469
:1056E0003F25EC01009761F443C08B81823009F4BF
:1056F0003FC0CE010E947C2A0097D1F1EC0110E05E
:1057000080E2DE011D928A95E9F7DE01292D382D10
:10571000C901FC018BE001900D928150E1F7E0910D
:105720004F05F0915005309739F0BE01625F7F4F11
:10573000CE014096099508C081E298E2998B888B4A
:1057400080E098E09F878E87888999899B8B8A8BD8
:10575000998F888F8E859F859F8B8E8B0E94992D28
:10576000882331F0C601612F4A2D0E94972601C07F
:1057700080E0DF91CF911F910F91FF90EF90DF902C
:10578000CF90BF90AF909F908F900895A7FEEACFE3
:10579000EFCF2F923F924F925F926F927F928F92B4
:1057A0009F92AF92BF92CF92DF92EF92FF920F93B0
:1057B0001F93DF93CF93CDB7DEB7C654D0400FB65B
:1057C000F894DEBF0FBECDBF3C016B01DE01AE5BC6
:1057D000BF4F11965C934E9325962FAF2597611579
:1057E000710509F483C01F861AA6FC0183818823F2
:1057F00009F07CC01C861FA2FA0180818F32F1F073
:1058000086014CE0E42EF12CEC0EFD1E32E4A32EBA
:10581000B12CAC0EBD1E4E010894811C911C279624
:10582000FFAEEEAE279727E2222E312C2C0E3D1E26
:10583000270124C01196B183A08301C0FD01A0817E
:10584000B1818C918F32B1F3D60113968C9113975D
:1058500082508230A8F28E01095D1F4F15966D911E
:105860007C911697C8010E944E24882351F63EC0B1
:10587000342D252D8701832F922F7C01F501808106
:105880009181B401A5010E949923882329F42EC097
:105890003196D501ED93FC93D501ED91FC9180817A
:1058A0008F32B1F38823C9F0C701B801A40121E008
:1058B0000E94FE2A8823D1F00C151D0519F0C8019D
:1058C0000E941B272796EEADFFAD2797EE16FF0629
:1058D00079F6C101322D292FCDCFC301B801A40122
:1058E00025962FAD25970E94FE2A01C080E0CA5B55
:1058F000DF4F0FB6F894DEBF0FBECDBFCF91DF9163
:105900001F910F91FF90EF90DF90CF90BF90AF90DD
:105910009F908F907F906F905F904F903F902F90CF
:105920000895FB01242F60914D0570914E05AF0144
:105930000E94C92B0895DF93CF93CDB7DEB76B9745
:105940000FB6F894DEBF0FBECDBF9C01AB0119822C
:105950001C82CE010196B90121E00E94C92B6B96F1
:105960000FB6F894DEBF0FBECDBFCF91DF91089583
:1059700083960E949B2C0895CF93DF93EC016623BE
:1059800031F0A396D0934E05C0934D05A3978EA1F9
:10599000882321F0CE0183960E941B27CE01839697
:1059A0002596BE010E944E24DF91CF910895DF928B
:1059B000EF92FF920F931F93DF93CF93CDB7DEB794
:1059C0006B970FB6F894DEBF0FBECDBF9C01FB01F5
:1059D000D42E19821C8280818F3241F481818823E8
:1059E00029F4C901642F0E94BC2C22C089010D5DDD
:1059F0001F4F7E010894E11CF11CC701B801AF01E3
:105A000021E00E94C92B882391F08C81823078F0AC
:105A1000D801F7018BE101900D928150E1F7DD2073
:105A200021F010934E0500934D0581E001C080E008
:105A30006B960FB6F894DEBF0FBECDBFCF91DF914E
:105A40001F910F91FF90EF90DF9008950F931F9398
:105A5000CF93DF93EC01262F642F422F0E94B122B7
:105A60008823C9F08E010B5F1F4FC801BE0141E0C2
:105A70000E94262E882339F4C801BE0140E00E940E
:105A8000262E882341F0CE0161E00E94BC2C8823A1
:105A900019F081E001C080E0DF91CF911F910F915B
:105AA0000895DF93CF930F92CDB7DEB76983049645
:105AB000BE016F5F7F4F41E050E00E94F72820E079
:105AC00030E0019711F421E030E0C9010F90CF914F
:105AD000DF9108958FEF9FEFAFEFBFEF80935107F6
